:020000040800F2
:1000000010070024B1020008473B00082939000806
:10001000453B0008EB0600083552000800000000D0
:10002000000000000000000000000000D1440008B3
:10003000ED06000800000000493B0008D34400081A
:10004000CB020008CB020008CB020008CB0200085C
:10005000CB020008CB020008CB020008CB0200084C
:10006000CB020008CB020008CB020008CB0200083C
:10007000CB020008CB020008CB020008CB0200082C
:10008000CB020008CB020008CB020008CB0200081C
:10009000CB020008CB020008CB020008CB0200080C
:1000A000CB020008CB020008CB020008CB020008FC
:1000B000CB020008CB020008CB020008CB020008EC
:1000C000CB020008CB020008CB020008CB020008DC
:1000D000CB02000829520008CB020008CB0200081E
:1000E000CB020008CB02000800000000CB02000891
:1000F000CB020008CB020008CB020008CB020008AC
:10010000CB020008CB020008CB020008CB0200089B
:10011000CB020008CB020008CB020008CB0200088B
:10012000CB020008CB020008CB020008CB0200087B
:10013000CB020008CB020008CB020008CB0200086B
:1001400000000000000000000000000000000000AF
:10015000CB020008CB020008CB020008CB0200084B
:10016000CB020008CB020008CB020008CB0200083B
:10017000CB020008CB020008CB020008CB0200082B
:10018000CB020008CB020008CB020008CB0200081B
:10019000CB020008CB020008CB020008CB0200080B
:1001A000CB020008CB020008CB020008CB020008FB
:1001B000CB020008CB020008CB020008CB020008EB
:1001C000CB020008CB020008CB020008CB020008DB
:1001D000CB020008CB020008CB020008CB020008CB
:1001E000CB020008CB020008CB020008CB020008BB
:1001F000CB020008CB020008CB020008CB020008AB
:10020000CB020008CB020008CB020008CB0200089A
:10021000CB020008CB020008CB020008CB0200088A
:10022000CB020008CB020008CB020008000000004F
:10023000CB020008CB02000800000000CB0200083F
:10024000CB020008CB020008CB020008CB0200085A
:10025000CB020008CB020008CB020008CB0200084A
:10026000CB020008CB020008CB020008CB0200083A
:10027000CB020008CB020008CB02000800000000FF
:10028000CB020008CB020008CB02000800000000EF
:1002900000000000CB020008DFF810D000F096F854
:1002A00000480047A1580008AFF300801007002461
:1002B0000948804709480047FEE7FEE7FEE7FEE7FA
:1002C000FEE7FEE7FEE7FEE7FEE7FEE7044B186009
:1002D000D0F800D041680847B945000899020008E5
:1002E00008ED00E02DE9F05F0546002092469B46B0
:1002F00088460646814640241BE02846414647463C
:10030000224600F053F853465A46C01A914110D382
:1003100011461846224600F03AF82D1A67EB0108FC
:100320004F4622460120002100F031F817EB00096A
:100330004E41201EA4F10104DFDC484631462A4626
:100340004346BDE8F09F40EA01039B0703D009E064
:1003500008C9121F08C0042AFAD203E011F8013BB1
:1003600000F8013B521EF9D27047D2B201E000F80A
:10037000012B491EFBD270470022F6E710B5134649
:100380000A4604461946FFF7F0FF204610BD202A12
:1003900004DB203A00FA02F1002070479140C2F1DC
:1003A000200320FA03F3194390407047202A04DB0E
:1003B000203A21FA02F00021704721FA02F3D040DE
:1003C000C2F120029140084319467047064C074D80
:1003D00006E0E06840F0010394E807009847103415
:1003E000AC42F6D3FFF75CFFD45A0008F45A000879
:1003F00030B520248FB0002162014FF48075D30006
:100400000393CDE907210991CDE905150B91CDE9BC
:1004100000400C910D9103F039FD08B10BA00FE0E5
:100420000C4841F28832694600F0B4FE08B10AA0D7
:1004300006E04FF4487003F089FB002803D008A0C1
:1004400004F0FAFE01200FB030BD0000D5E2C0EF8D
:1004500000000000AC010024D5E2C0EF3100000034
:10046000D5E2C0EF32000000F0B58FB0054612B300
:100470004FF480744FF0EB0C4FF4406ECDF800C099
:10048000002360010390CDE9064E4FF040760191C4
:100490004FF0805C41F2883406270597CDE9083695
:1004A000CDE90A230B482246CDE90C3C694600F011
:1004B00071FE68B905E008A004F0BEFE00200FB090
:1004C000F0BD04482246294600F07AFF0028F6D005
:1004D0000120F4E7AC0100244253505F51535049CE
:1004E0005F46617374526561642053697A65203D8B
:1004F0002030000010B590B002208DF8380003F0D5
:10050000C5FC40BB032003F01BFC002007904FF408
:10051000807406943121009122040590012341F258
:100520008834CDE90A30CDE908020C9022460D90BE
:1005300069460A4800F02EFE68B908480EA922460E
:1005400000F09EFF38B9204603F000FB18B903F015
:1005500041FC002800D0012010B010BDAC010024E7
:10056000F0B514000F468FB005461ED04FF48076CC
:10057000B44203D91CA0344604F05EFE00204FF4C0
:1005800080623221D3000393CDE90720CDE905062F
:100590000B904FF0407CCDE900170C900D90CDE909
:1005A00009C403F073FCE8B905E01AA004F044FEA6
:1005B00000200FB0F0BD41F288361C483246694633
:1005C00000F0E8FD70B906E018483246294600F010
:1005D00057FF38B96D1C641EF6D2304603F0B6FAE8
:1005E0000028E6D00120E4E74572726F723A204697
:1005F0006C617368C3BFB4CED0B4C8EBCAFDBEDDB6
:10060000B2BBC4DCB3ACB9FD323536D7D6BDDAA344
:10061000A10A00004253505F515350495F5772691D
:1006200074652053697A65203D203000AC010024B8
:100630002DE9F05F81460D4611F0FF001746C0F12D
:1006400000014FF4807B4FEA122402F0FF08CEB283
:1006500013D0E8B2C0F10000C0B2002C09EB000AD0
:1006600005EB00041FD0324629464846FFF778FFC5
:10067000B81B5546C7B2060A2AE064B15E46641E3E
:100680000CD3324629464846FFF76AFF09F58079C0
:1006900005F58075F3E72946484620E0B8F10000EB
:1006A00021D00246F7E7B045F5D9324629464846FB
:1006B000FFF756FFA8EB0602504621460FE05A46C8
:1006C00021462846FFF74CFF04F5807405F5807538
:1006D000761EF4D2002F06D03A4621462846BDE8C1
:1006E000F05FFFF73DBFBDE8F09FFEE7704772B6D1
:1006F000FEE700002DE9F84F044600F021FC0090D1
:100700003CB194F83500022806D0802161650020B4
:10071000E4E00120BDE8F88FC74DC74EC649183543
:1007200020683036DFF81483DFF814938842DFF84E
:1007300014A3DFF814B32ED0A8422CD0B0422AD094
:10074000404528D0484526D0504524D0584522D091
:10075000BD4A183290421ED0BC4A90421BD0BB4AC0
:100760001832904217D0B94A3032904213D0B74A6B
:10077000483290420FD0B54A603290420BD0B34A13
:100780007832904207D0B14A9032904203D0AF4ABB
:10079000A832904209D1026822F01E02026020684D
:1007A000426922F08002426103E0026822F00E02F8
:1007B000026027688F4238464DD0A8424BD0B042E5
:1007C00049D0404547D0484545D0504543D058458D
:1007D00041D09D4A183290423DD09C4A90423AD036
:1007E0009A4A1832904236D0984A3032904232D0EB
:1007F000964A483290422ED0944A603290422AD093
:10080000924A7832904226D0904A9032904222D03A
:100810008E4AA83290421ED08D4A90421BD08C4AFC
:100820001432904217D08A4A2832904213D0884A14
:100830003C3290420FD0864A503290420BD0844ACC
:100840006432904207D0824A7832904203D0804A84
:100850008C32974204D1206E026822F480720260CA
:1008600075492068884228D0A84226D0B04224D0BA
:10087000404522D0484520D050451ED058451CD078
:1008800071491831884218D07049884215D06F4993
:100890001831884211D06D49303188420DD06B49F2
:1008A0004831884209D069496031884205D067499A
:1008B0007831884201D065499031016821F0010109
:1008C00001600EE000F03CFB0099401A052808D9B1
:1008D000202262650321002084F8351084F834005A
:1008E00017E73868C007EDD1534A012120689042CC
:1008F0002ED0A8422CD0B0422AD0404528D048451E
:1009000026D0504524D0584522D04F4B183398421A
:100910001ED04E4B98421BD04C4B1833984217D0E8
:100920004A4B3033984213D0484B483398420FD04B
:10093000464B603398420BD0444B7833984207D0F3
:10094000424B9033984203D0404BA833984208D191
:1009500094F85C703F23A06D07F01F07BB408360D5
:1009600007E094F85C30A06D03F01F0301FA03F375
:100970004360206890424DD0A8424BD0B04249D04D
:10098000404547D0484545D0504543D0584541D0D3
:100990002D4A183290423DD02C4A90423AD02B4AF0
:1009A0001832904236D0294A3032904232D0274A0B
:1009B000483290422ED0254A603290422AD0234AB3
:1009C0007832904226D0214A9032904222D01F4A5B
:1009D000A83290421ED01E4A90421BD01C4A1432AC
:1009E000904217D01A4A2832904213D0184A3C320B
:1009F00090420FD0164A503290420BD0144A6432C3
:100A0000904207D0124A7832904203D0104A8C327A
:100A100090420BD1D4E919024260E06E30B1026815
:100A200022F480720260D4E91C024260002084F843
:100A3000351084F834006DE6100002405800024082
:100A40007000024088000240A000024010040240F2
:100A5000085402582DE9F05F28B190F835100229AA
:100A600004D0802141650120BDE8F09F904C904B5F
:100A70000168183C18338E4ADFF83C92A1428D4C35
:100A8000DFF838E28E4FDFF83CB2DFF83CA28F4D42
:100A90008F4E31D091422FD099422DD0A1422BD0F0
:100AA000494529D0714527D0B94225D0DFF810C279
:100AB0000CF1180C61451FD0DFF808C2ACF1600CD6
:100AC000614519D0DFF8FCC1ACF1480C614513D089
:100AD000DFF8F0C1ACF1300C61450DD0DFF8E4C1B6
:100AE000ACF1180C614507D0594505D0514503D0EC
:100AF000A94201D0B1422CD1DFF8B4C14FF00408B3
:100B000080F83580ACF1180C61451DD091421BD0A6
:100B1000994219D0A14217D0494515D0714513D03B
:100B2000B94211D06648183081420DD0654860380E
:100B3000814209D063484838814205D06148303845
:100B4000814201D05F481838086820F00100086031
:100B5000ABE0D1F800C02CF00E08DFF854C1C1F8AA
:100B60000080ACF1180C0168614527D0914225D076
:100B7000994223D0A14221D049451FD071451DD0B3
:100B8000B9421BD0DFF838C10CF1180C614515D003
:100B9000DFF830C1ACF1600C61450FD0DFF824C143
:100BA000ACF1480C614509D0DFF818C1ACF1300C4C
:100BB000614503D0DFF80CC1ACF1180CD1F800C0CE
:100BC0002CF0010CC1F800C0DFF8E4804FF0010CFC
:100BD0000168A8F11808414546D0914244D0994295
:100BE00042D0A14240D049453ED071453CD0B942A7
:100BF0003AD0334A1832914236D0324A603A914262
:100C000032D0304A483A91422ED02E4A303A914260
:100C10002AD02C4A183A914226D0594524D0514521
:100C200022D0A94220D0B1421ED02A4A91421BD0E4
:100C3000284A1432914217D0264A2832914213D0C2
:100C4000244A3C3291420FD0224A503291420BD07A
:100C5000204A6432914207D01E4A7832914203D032
:100C60001C4A8C32914218D1016E0A6822F48072BB
:100C70000A6090F85C20816D02F01F020CFA02F20B
:100C80004A60D0E919124A60C16E31B10A6822F493
:100C900080720A60D0E91C124A600022016D80F85F
:100CA00035C080F8342001B188470020DCE6000020
:100CB00028000240580002407000024088000240B4
:100CC000A00002407004024088040240A0040240D8
:100CD000B80402400854025870B5044600F030F9D8
:100CE0000546601C02D004480078044400F028F94E
:100CF000401BA042FAD370BD100000242DE9F84F2C
:100D000003247D4D00234FF001094FF0B04B4FF00D
:100D10000F0AE9E009FA03F73A4076D00E7906F0B7
:100D20000306012E01D0022E18D1D0F808C04FEAD8
:100D3000430ECE6804FA0EF82CEA080C06FA0EF6FA
:100D400046EA0C068660D0F804C00E792CEA070C3F
:100D5000C6F300169E4046EA0C0646600E79F6433E
:100D6000B6070BD0C6684FEA43088F6804FA08FC40
:100D700026EA0C0607FA08F73743C7600E7906F033
:100D80000306022E12D1DE080F694FEA437C00EB06
:100D90008606B646366A4FEADC6C0AFA0CF807FAA1
:100DA0000CF726EA08063743CEF820700F7906685C
:100DB0004FEA430807F0030704FA08FC07FA08F7AC
:100DC00026EA0C06374307604E6816F4403F1CD0F5
:100DD0004A4E376847F00207376036689F0706F0CB
:100DE0000206009623F0030606F1B046B6463F0F12
:100DF000D6F80864DFF808810AFA07FC404526EABD
:100E00000C0603D14FF0000C41E06CE0DFF8F4C0B9
:100E1000604502D14FF0010C39E0DFF8ECC06045CD
:100E200002D14FF0020C32E0DFF8E0C0604502D1A1
:100E30004FF0030C2BE0DFF8D8C0604502D14FF033
:100E4000040C24E0DFF8CCC0604502D14FF0050C63
:100E50001DE0DFF8C4C0604502D14FF0060C16E07B
:100E6000DFF8B8C0604502D14FF0070C0FE0DFF8A3
:100E7000B0C0604502D14FF0080C08E0DFF8A4C014
:100E8000604502D14FF0090C01E04FF00A0C0CFA5A
:100E900007FC4CEA060CCEF808C44F68DBF800608B
:100EA000FF0226EA020600D516435F46CBF8006033
:100EB000D1F804C0DBF804605FEA8C2C26EA020655
:100EC00000D516437E606E684F6826EA0206BF03AF
:100ED00000D516436E602E684F6826EA0206FF03AF
:100EE00000D516432E605B1C0A6832FA03F67FF4C5
:100EF00011AFBDE8F88F000080000058F44402589C
:100F0000000002580004025800080258000C025861
:100F1000001002580014025800180258001C025811
:100F200000200258002402580AB181617047090468
:100F3000FBE7000001480068000C70470010005CEF
:100F40000148806870470000100000240248816852
:100F5000027811448160704710000024032010B50E
:100F600000F086F801F01CFA0F4A10491468136863
:100F7000C4F3032203F00F038A5CC95C02F01F0272
:100F800001F01F01D0400A4A20FA01F1116009491D
:100F900008600F2000F010F808B1012010BD00F02B
:100FA0002BF8002010BD000018440258C45A000855
:100FB000200000241C00002470B50D4D0446287844
:100FC000A0B14FF47A71B1FBF0F00A490968B1FBA6
:100FD000F0F002F057F948B9102C07D20022214650
:100FE000501E00F025F800206C6070BD012070BD1F
:100FF000100000241C000024054808B5016841F0D9
:1010000002010160006800F00200009008BD0000CD
:10101000F4440258002809DB410900F01F0289004E
:10102000012001F1E0219040C1F80001704700006B
:101030000E4BF0B41B680D46C3F30223C3F1070641
:10104000042E00D90426191D072901D2002300E02F
:10105000DB1E012404FA06F19C40491E2940641E4F
:10106000994014402143F0BC04F0F6B80CED00E0C8
:10107000064900F0070210B54FF6FF040868044B5C
:10108000204040EA02201843086010BD0CED00E04B
:101090000000FA05134970B50A68D243520705D516
:1010A000096801F00701814213D118E00A6822F0B3
:1010B000070202430A60FFF743FF0A4D4FF47A76B6
:1010C0000446083D07E000BFFFF73AFF001BB042AF
:1010D00001D9012070BD2868C0438004F4D40020E9
:1010E00070BD00000C4802582DE9F84F1E46154609
:1010F0008A460446FFF724FF814694F84000012801
:101100000ED001274FF0000884F8407094F8410099
:10111000012807D05FF0020084F84080BDE8F88F16
:101120000220FBE74221C4F8448084F841100022E9
:1011300020214B462046009602F084FE0028EBD189
:101140002168286888622168686848622168A86800
:10115000C86220682969026822F4400242F48002D1
:1011600011430160E9684FF000622046CAF8281078
:10117000514602F011FD01224B46082120460096FF
:1011800002F060FE0028C7D122680821D16084F8EF
:101190004170C1E72DE9F84F17468B460446FFF72B
:1011A000CFFE824694F8400001280ED001264FF071
:1011B000000884F8406094F84100012807D0022517
:1011C00084F840802846BDE8F88F0220FBE74FF006
:1011D0000209C4F8448084F841900022202153463B
:1011E0002046009702F02EFE0500E9D10022594664
:1011F000204602F0D1FCDBF8240058B90122534606
:1012000002212046009702F01DFE0500D8D121687A
:10121000C1F80C9084F84160D2E70000F8B50446AC
:10122000FFF78EFE05461CB194F8410010B107E0AF
:101230000120F8BD204600F047F841F28830A06454
:1012400020686FF0FF02A168036802EB012223F41B
:10125000706111430160A06C002220212B46009098
:10126000204602F0EFFD0028E3D12268D4E90735DB
:101270002679E168176845EA0665DFF844C0194336
:10128000104B29430025012607EA0C07394311605A
:101290002268D4E90517B4F810C0D2F804E0394345
:1012A0000EEA030E4EEA0C431943516021680A68A6
:1012B00042F001020A60656484F84160F8BD0000F4
:1012C0002FFFFF00FEF8E0FF2DE9F041B6B0044625
:1012D00014212FA8FFF750F8BC216846FFF74CF8FF
:1012E0003249206888425DD14FF0007000900024A0
:1012F0006846129400F076FA08B1FFF7F8F92C4826
:10130000016841F480410160006800F4804034903D
:1013100027480C30016841F010010160016801F0BC
:1013200010013491016841F002010160016801F08F
:1013300002013491016841F0080101600068032650
:1013400009274FF0040800F00800CDF8BC80329661
:1013500002252FA9CDE933701648CDE93054FFF7A7
:10136000CDFCCDE92F8531AADFF84C802FA940466E
:1013700082E8D000FFF7C2FC4FF4605031AACDE9FB
:101380002F050E482FA982E8D000FFF7B7FC0A21ED
:1013900031944020CDE93261CDE92F052FA9404697
:1013A000FFF7ACFC36B0BDE8F08100000050005201
:1013B000D44402580010025800040258000C02588D
:1013C0002DE9F84F15460E460446FFF7B9FD824653
:1013D0002068816994F8403000F12009012B0DD07C
:1013E00001274FF0000884F8407094F84120012A4A
:1013F00006D0022084F84080BDE8F88F0220FBE789
:10140000C4F84480A6B3222284F841200269521C09
:10141000A2630269521C62632663426922F0406241
:1014200042F080624261206881610EE00621204620
:1014300002F008FDC8B999F80000216B0870206B14
:10144000401C2063A06B401EA063A06B53464FF06E
:10145000010200950028E9D14FF00201204602F078
:10146000F1FC10B922680221D16084F84170C1E713
:10147000FFE7616C012041F008016164BAE70000F8
:101480002DE9F84F15460E460446FFF759FD94F82E
:10149000401082462068012900F120090ED0012762
:1014A0004FF0000884F8407094F84110012907D0EB
:1014B0005FF0020084F84080BDE8F88F0220FBE76F
:1014C000C4F8448086B3122184F841100169491C94
:1014D000E1620169491CA1626662416921F04061D3
:1014E00041610EE00421204602F0ACFCC8B9606AFC
:1014F000017889F80010606A401C6062E06A401E52
:10150000E062E06A53464FF0010200950028E9D1FD
:101510004FF00201204602F095FC10B9226802212A
:10152000D16084F84170C5E7FFE7616C012041F0AC
:1015300008016164BEE7000010B500F0EBFE05494C
:101540000968054AC1F30211515C01F01F01C8404E
:1015500010BD000020440258C45A0008494930B563
:10156000484C0B1D0A68143409681D68246802F091
:101570000303C5F30012C1F30531C4F3CC04002901
:1015800014FB02F200EE102AF8EE400A75D03F4A32
:101590009FED3D1AB7EE000A6BB1DFED3D1A012B4E
:1015A00001D0022B64D002EE101A1168F8EE422A24
:1015B00081EEA22A21E0334C283C23689B0612D5F9
:1015C000344B246801EE901A1168C4F3C104F8EE9C
:1015D000612AE34001EE903AC1F30801F8EE611A86
:1015E00081EEA22A0BE001EE901ADFED2B2A00BF5C
:1015F000F8EE611A116882EEA12AC1F3080101EE2A
:10160000901A1168F8EE611A40EE811A71EE800AA4
:1016100062EE200AC1F3462101EE101AB8EE411A1B
:1016200031EE001AC0EE811ABCEEE11A80ED001A0C
:101630001168C1F3064101EE101AB8EE411A31EEFD
:10164000001AC0EE811ABCEEE11A80ED011A116891
:10165000C1F3066101EE101AB8EE411A31EE000A2C
:1016600080EE801ABCEEC10A80ED020A30BD04E0B3
:1016700001EE901ADFED092ABAE70021016041600E
:101680008160F3E7284402580000003938440258CA
:101690000024744A0090D0030024744C20BCBE4B3C
:1016A000494930B5484C0B1D0A681C3409681D684F
:1016B000246802F00303C5F30022C1F30551C4F30B
:1016C000CC04002914FB02F200EE102AF8EE400AC6
:1016D00075D03F4A9FED3D1AB7EE000A6BB1DFEDC2
:1016E0003D1A012B01D0022B64D002EE101A1168B2
:1016F000F8EE422A81EEA22A21E0334C283C2368EE
:101700009B0612D5344B246801EE901A1168C4F37D
:10171000C104F8EE612AE34001EE903AC1F30801FA
:10172000F8EE611A81EEA22A0BE001EE901ADFEDCD
:101730002B2A00BFF8EE611A116882EEA12AC1F3CC
:10174000080101EE901A1168F8EE611A40EE811A54
:1017500071EE800A62EE200AC1F3462101EE101AF2
:10176000B8EE411A31EE001AC0EE811ABCEEE11A51
:1017700080ED001A1168C1F3064101EE101AB8EEAF
:10178000411A31EE001AC0EE811ABCEEE11A80ED6A
:10179000011A1168C1F3066101EE101AB8EE411A80
:1017A00031EE000A80EE801ABCEEC10A80ED020A1A
:1017B00030BD04E001EE901ADFED092ABAE70021FE
:1017C000016041608160F3E728440258000000395D
:1017D000404402580024744A0090D0030024744C02
:1017E00020BCBE4B2DE9FC5F044650F8241B0025AD
:1017F00000902E460801FE4FDFF8F8831DD5606E7D
:1018000050B1B0F5801F0CD0B0F5001F0ED0B0F570
:10181000401F1DD001250FE0386840F400303860CB
:1018200016E00221201D02F065FB03E00098022172
:1018300002F0F0FB05000BD02E462088C00523D512
:10184000606D05281ED2DFE800F00C11161B1B008E
:10185000626ED8F8001021F440111143C8F800104E
:10186000EBE7386840F40030386009E00021201DC3
:1018700002F040FB03E00098002102F0CBFB05469C
:101880006DB100E001252E462088800528D5A06D89
:1018900080281ED00CDC90B140280ED114E0626D7F
:1018A000D8F8001021F007011143C8F80010EBE749
:1018B000C02813D0B0F5807F10D001250FE0386824
:1018C00040F40030386009E00021201D02F012FBD6
:1018D00003E00098002102F09DFB054695B12E46DD
:1018E0002088DFF81093400509F108092CD5D4F8B9
:1018F000A400B0F5800F20D00DDCA0B1B0F5001F22
:101900000FD115E0A26DD8F8001021F4E071114359
:10191000C8F80010E4E7B0F5C00F13D0B0F5000F21
:1019200010D001250FE0386840F40030386009E03D
:101930000021201D02F0DEFA03E00098002102F0F1
:1019400069FB054675B12E46208800052DD5D4F8D3
:10195000A800B0F1007F21D00EDCA8B1B0F1807FEB
:1019600010D116E0D4F8A420D9F8001021F46001B9
:101970001143C9F80010E7E7B0F1407F13D0B0F190
:10198000806F10D001250FE0386840F400303860D7
:1019900009E00021201D02F0ADFA03E000980021CB
:1019A00002F038FB05466DB12E46206880011FD538
:1019B000A06CD8B110280FD0202812D0302815D014
:1019C000012514E0D4F8A820D9F8001021F0E06136
:1019D0001143C9F80010E8E7386840F40030386077
:1019E00004E00221201D02F085FA05466DB12E4665
:1019F0002088C0042BD5E06DB0F5005F20D00DDC51
:101A0000A0B1B0F5805F0FD115E07A48A26C001F3D
:101A1000016821F0300111430160E9E7B0F5405F52
:101A200013D0B0F5804F10D001250FE0386840F496
:101A30000030386009E00021201D02F05BFA03E06D
:101A40000098002102F0E6FA054685B12E4620886E
:101A5000800429D5206EB0F5403F23D010DC08B3B8
:101A6000B0F5803F14D0B0F5003F0FD115E0E26D26
:101A7000D8F8001021F4E0411143C8F80010E6E75F
:101A8000B0F5802F0ED0B0F5A02F0BD001250AE0C5
:101A90000121201D02F02EFA03E00098012102F03E
:101AA000B9FA05468DB12E46208840042AD5D4F8CF
:101AB000AC00B0F1405F23D010DC08B3B0F1805F20
:101AC00014D0B0F1005F0FD115E0226ED8F80010ED
:101AD00021F4E0211143C8F80010E5E7B0F1804F90
:101AE0000ED0B0F1A04F0BD001250AE00121201D3E
:101AF00002F000FA03E00098012102F08BFA05469B
:101B00006DB12E46208800041FD5E06ED8B1B0F12B
:101B1000805F0ED0B0F1005F10D0012514E0D4F842
:101B2000AC20D9F8001021F0E0411143C9F80010B1
:101B3000E8E7386840F40030386004E00121201DF7
:101B400002F0D8F905466DB12E462068C0011ED5B9
:101B5000606CD0B101280ED0022811D0032814D017
:101B6000012513E0E26ED8F8001021F04051114336
:101B7000C8F80010E9E7386840F40030386004E045
:101B80000221201D02F0B6F9054685B12E462068D7
:101B9000DFF85CB04002ABF11C0B57D5164801686A
:101BA00041F480710160FFF7CBF982460EE01148E5
:101BB000626C001F016821F0030111430160E6E738
:101BC000FFF7BEF9A0EB0A0064283DD80A48006878
:101BD000C005F5D57DBBDFF81CA0B4F8B0200AF134
:101BE000200ADAF8001002F4407001F4407105E0B8
:101BF0002C4402585044025800480258814211D0E7
:101C0000DAF80010DAF8002021F4407142F4803252
:101C1000CAF80020DAF8002022F48032CAF8002046
:101C2000CAF80010D4F8B000B0F5807F21D1FFF7DA
:101C300087F9019019E008E0FFF782F90199411A4C
:101C400041F28830814210D903252E462078DFF8F2
:101C500044A4C0073DD0A06F182838D026DC80B33C
:101C6000082829D0102825D12CE0DAF800008007B8
:101C7000E2D5D4F8B010C1F30120032858460DD0A6
:101C8000016821F47C510160B4F8B020DAF800104A
:101C9000C2F30B021143CAF80010D7E7FE4A0368EB
:101CA00002EA111223F47C511143ECE720280ED0F4
:101CB00028280CD001250BE00121201D02F01AF983
:101CC00004E004E00098012102F0A4F905465DB1AA
:101CD0002E46207880071ED5606F062819D2DFE8CF
:101CE00000F0160C11161616A26FDAF8001021F08B
:101CF00038011143CAF80010EBE70121201D02F062
:101D0000F9F803E00098012102F084F9054675B165
:101D100000E001252E46207840071FD5D4F890001A
:101D2000062819D2DFE800F0160C11161616626F9D
:101D3000DAF8001021F007011143CAF80010EAE7B1
:101D40000121201D02F0D6F803E00098012102F0E5
:101D500061F905469DB100E001252E4620788006F8
:101D60002BD5D4F88C00B0F1405F24D011DC10B337
:101D7000B0F1805F15D0B0F1005F10D116E0D4F85B
:101D80009020D9F8001021F007011143C9F8001084
:101D9000E4E7B0F1804F0ED0B0F1A04F0BD0012599
:101DA0000AE00021201D02F0A5F803E000980221BE
:101DB00002F030F905468DB12E46207840062BD52D
:101DC000D4F89800B0F5406F24D011DC10B3B0F512
:101DD000806F15D0B0F5006F10D116E0D4F88C20CC
:101DE000DAF8001021F0E0411143CAF80010E4E7EE
:101DF000B0F5805F0ED0B0F5A05F0BD001250AE0F2
:101E00000021201D02F076F803E00098022102F084
:101E100001F905468DB12E46207800062BD5D4F861
:101E20009C00B0F5C04F24D011DC10B3B0F5005FBA
:101E300015D0B0F5804F10D116E0D4F89820D9F81D
:101E4000001021F4E0511143C9F80010E4E7B0F5A7
:101E5000004F0ED0B0F5204F0BD001250AE0002135
:101E6000201D02F047F803E00098022102F0D2F8AA
:101E700005464DB12E46207800071ED5D4F88000C7
:101E8000B0F5805F0AD00FE0D4F89C20D9F800109C
:101E900021F460411143C9F80010ECE700980221D9
:101EA00002F0B8F800B10126D4F88020DAF800106A
:101EB00021F440511143CAF800102078C00613D510
:101EC000D4F89400B0F5807F05D10098022102F08B
:101ED000A1F800B10126D4F89420D9F8001021F41B
:101EE00040711143C9F800102068000316D5D4F8DA
:101EF000A00038B1B0F5803F09D0B0F5003F0BD05D
:101F000001250AE00021201D01F0F4FF03E0009804
:101F1000022102F07FF8054685B12E462068400375
:101F200022D5D4F88400B0F5801F11D0B0F5001F81
:101F300013D0B0F5401F15D0012514E0D4F8A0202F
:101F4000D9F8001021F440311143C9F80010E5E739
:101F5000386840F40030386004E00098012102F055
:101F600059F8054655B12E462068C0031CD5E06CD3
:101F700070B1B0F5803F10D0012514E0D4F8842072
:101F8000DAF8001021F440111143CAF80010EBE711
:101F9000386840F40030386004E00221201D01F070
:101FA000A9FF0546CDB12E462068800005D50098D2
:101FB000022102F02FF800B10126206880031BD512
:101FC000E06FB8B1B0F5807F10D0B0F5007F11D0D0
:101FD000B0F5407F0ED001250DE02E48E26C0838A8
:101FE000016821F4803111430160DDE7386840F475
:101FF00000303860F5B32E462068C00207D5226F46
:10200000D8F8001021F000411143C8F800102068F2
:10201000C00008D5D4F8B420DBF8001021F48041CA
:102020001143CBF800102068800207D5A26ED8F8C3
:10203000001021F080711143C8F8001020684000A2
:102040000CD5DBF8001021F40041CBF80010DBF8D0
:102050000010D4F8B8201143CBF8001020680028F5
:1020600007DA0C48226D0838016821F0405111430D
:10207000016000E014E02068000208D5D4F8882050
:10208000DAF8001021F440011143CAF8001086B1BB
:10209000012003E054440258CFFFFF00BDE8FC9F3D
:1020A000E26FDAF8001021F440711143CAF8001011
:1020B000A2E70020EDE700002DE9F05F04000F46E5
:1020C0007ED0DFF83882D8F8000000F00F00B84268
:1020D0000CD2D8F8001021F00F013943C8F80010D5
:1020E000D8F8000000F00F00B84269D12078844D84
:1020F00040070AD52069296801F07001884204D997
:10210000296821F070010143296020787C4E361D3A
:1021100000070AD56069316801F07001884204D96E
:10212000316821F07001014331602078C0060AD582
:10213000A069316801F4E061884204D9316821F472
:10214000E061014331602078DFF8B4B180060BF123
:10215000080B0CD5E1695846DBF8002002F070024C
:10216000914204D9026822F070020A43026020788A
:1021700080070AD5E068296801F00F01884204D978
:10218000296821F00F01014329602078C0073ED063
:102190005B49A2682868183920F4706010432860F1
:1021A0006068022818D0032819D00968012819D0BE
:1021B000490700294ADADFF848A1AAF1080A00E035
:1021C00044E0DAF8002022F007020243CAF80020B7
:1021D000FEF7B6FE814612E009688903E9E709685F
:1021E0008901E6E7C905E4E7FEF7AAFEA0EB0901CD
:1021F00041F28830814202D90320BDE8F09F616836
:10220000DAF8000000F03800B0EBC10FECD1207814
:1022100080070AD5E068296801F00F01884204D2DE
:10222000296821F00F0101432960D8F800104046C9
:1022300001F00F01B9420BD9016821F00F013943B8
:102240000160006800F00F00B84201D00120D4E71F
:10225000207840070AD52069296801F0700188427A
:1022600004D2296821F07001014329602078000719
:102270000AD56069316801F07001884204D2316882
:1022800021F07001014331602078C0060AD5A069B1
:10229000316801F4E061884204D2316821F4E061E0
:1022A00001433160207880060CD5E1695846DBF89F
:1022B000002002F07002914204D2026822F0700203
:1022C0000A43026000F06CF80E492A682B68C2F3DA
:1022D000032203F00F038A5CC95C02F01F0201F0C5
:1022E0001F01D040084A20FA01F111600749086037
:1022F00007480068BDE8F05FFEF75EBE00200052B0
:1023000018440258C45A0008200000241C0000246D
:102310001400002430B500F043F80B4A0B490C4B75
:1023200015681468C5F3032204F00F048A5C095D84
:1023300002F01F0201F01F01D040064A20FA01F10D
:1023400019601060084630BD18440258C45A00088D
:10235000200000241C00002400B5FFF7DBFF054926
:102360000968054AC1F30211515C01F01F01C84020
:1023700000BD00001C440258C45A000800B5FFF715
:10238000C9FF05490968054AC1F30221515C01F002
:102390001F01C84000BD00001C440258C45A000878
:1023A000454970B545480968434B103B11F0380268
:1023B00008D00111082A03D0102A0BD0182A0BD0FC
:1023C000084670BD19688906FBD51968C1F3C101BB
:1023D000C84070BD3A4870BD3749374D18310C1DA3
:1023E00024350A68096826682D6802F0030406F09F
:1023F0000102C1F30511C5F3CC0515FB02F200EE95
:10240000102AB8EE400AE9B32F4ADFED2E0AB7EEE4
:10241000001A6CB1DFED2D1A012C01D0022C43D033
:1024200002EE101A1068F8EE422A81EEA22A1EE08F
:102430001C68A40611D51B6801EE901A1168C3F33D
:10244000C103F8EE612AD84001EE900AC1F30800FA
:10245000F8EE611A81EEA22A0BE001EE901ADFED90
:102460001C2A00BFF8EE611A106882EEA12AC0F3A0
:10247000080001EE900AF8EE611A40EE201A31EEE3
:10248000810A00E015E022EE000A1068C0F3462041
:10249000401C00EE900AF8EE600A80EE201ABCEEB6
:1024A000C10A10EE100A70BD01EE901ADFED092A84
:1024B000D8E7002070BD0000104402580090D003FF
:1024C00040787D0100000039304402580024744AED
:1024D0000024744C20BCBE4B2DE9F05F04007DD07D
:1024E000FF4F2078FE4D1837DFF8F493103DC007FA
:1024F00048D0D9F80000396800F03800102815D00D
:10250000182803D101F0030002280FD06068B0F54D
:10251000803F12D010B1B0F5A02F18D0286820F459
:1025200080302860286820F4802009E02868800333
:1025300028D560680028D2D024E0286840F4803094
:102540002860606888B1FEF7FBFC064609E0286851
:1025500040F480202860F0E7FEF7F2FC801B64283E
:102560006FD828688003F7D50CE0FEF7E9FC064633
:1025700005E000BFFEF7E4FC801B6428F0D8286863
:102580008003F7D4207841F20308D54E0C3E800733
:1025900069D5D9F80000396810F038000ED0182835
:1025A00001D188070AD0E06890B3296821F01901A9
:1025B00001432960FEF7C4FC824631E028684007E9
:1025C00002D5E06800288AD0E168286820F0190068
:1025D00008432860FEF7B4FC824607E0DFE000BF56
:1025E000FEF7AEFCA0EB0A000228B9D82868400725
:1025F000F6D500BFFEF79EFC40451BD82069402859
:1026000012D0316821F47C3141EA003030602AE098
:1026100018E000BFFEF794FCA0EB0A0002289FD848
:1026200028684007F6D5E5E7306820F47C3040F4B0
:102630000030EBE7207C316821F0FE4141EA006088
:10264000E4E70DE1286820F001002860FEF778FC3F
:10265000824605E0FEF774FCA0EB0A0002288DD844
:1026600028684007F6D42078C0065DD5D9F8000068
:10267000DFF86CB2396800F03800ABF1040B0828C1
:1026800010D0182803D101F0030001280AD0E06916
:102690000028286838D040F080002860FEF750FC01
:1026A000824623E02868C00523D5E069802876D1DA
:1026B0001FE0206A202821D0316821F0F84141EA4A
:1026C0008060306030E000BF94F82010DBF800201C
:1026D00022F07C5242EA0161CBF8001024E000BFF6
:1026E000FEF72EFCA0EB0A00022898D82868C00547
:1026F000F6D5FEF71FFC4045E6D8DAE7306820F053
:10270000F84040F08040DCE720F080002860FEF7D1
:1027100017FC064605E000BFFEF712FC801B0228EE
:102720009DD82868C005F7D42078000729D56C48C3
:102730006169643000298046016811D041F00101CF
:102740000160FEF7FDFB064605E000BFFEF7F8FB63
:10275000801B0228C9D8D8F800008007F6D510E001
:1027600021F001010160FEF7EBFB064605E000BF2A
:10277000FEF7E6FB801B022872D8D8F8000080071D
:10278000F6D42078800623D5A0690028286810D0C8
:1027900040F480502860FEF7D3FB064605E02CE1AC
:1027A000FEF7CEFB801B02285AD828688004F7D594
:1027B0000EE020F480502860FEF7C2FB064604E0DD
:1027C000FEF7BEFB801B02284AD828688004F7D495
:1027D000207840074FD5DFF80C81D8F8001041F47D
:1027E0008071C8F80010FEF7ABFB064605E000BF9D
:1027F000FEF7A6FB801B642832D8D8F80000C0057D
:10280000F6D5374EA068603601280AD008B10528F1
:1028100013D0306820F001003060306820F00400F0
:1028200002E0306840F001003060A06841F2883A70
:1028300090B1FEF785FB80460AE0306840F0040066
:102840003060EEE7FEF77CFBA0EB0801514507D8AE
:1028500030688007F6D50EE0FEF772FB804607E091
:1028600084E000BFFEF76CFBA0EB080151457DD86A
:1028700030688007F6D4606AB0B3DFF86480D9F8B6
:10288000001008F12008C1F3C20103296FD002280B
:10289000286820F08070286003D0FEF751FB0446C2
:1028A00080E0FEF74DFB064605E000BFFEF748FB63
:1028B000801B022873D828688001F7D4E26A40F2AE
:1028C000F331386854F8283F884340EA021018432F
:1028D0003860217B4FF4FE0C22894FF0FE4704E064
:1028E000104402580048025889E0208A4902521ECA
:1028F000267DA1F5007189B2401EC2F30802114382
:10290000761E0CEA004001433E4807EA0662114386
:102910003C4AC8F800100832016821F0010101604A
:1029200011684FF6F876236AB14341EAC30111609A
:102930000168A26921F00C01114301600168E2699C
:1029400021F0020111430160016841F4803101600E
:10295000016841F400310160016841F480210160A7
:10296000016841F001010160286801E017E01DE005
:1029700040F080702860FEF7E3FA044605E000BFEF
:10298000FEF7DEFA001B022809D828688001F7D577
:1029900035E000BFFEF7D4FA001B022802D903205D
:1029A000BDE8F09F28688001F4D428E03968012848
:1029B000D8F8000021D0A26A01F0030393421CD191
:1029C000E26AC1F305118A4217D1216BC0F30802F4
:1029D000491E8A4211D1616BC0F34622491E9142C1
:1029E0000BD1A16BC0F30642491E914205D1E16BA8
:1029F000C0F30660491E814201D00120D0E70020CB
:102A0000CEE700002C4402582DE9F047040029D0FD
:102A1000504A4FF0000920684F4B504D9042C4F887
:102A2000289006D0984204D0A84202D0E1680F292D
:102A300018D8E1684FF0010AE76B0831C9080AEBC2
:102A400057167143904205D0984203D0A84201D056
:102A5000082907D8904203D0984201D0A84204D157
:102A6000102902D90120BDE8F08794F8810020B92F
:102A7000204684F8809000F073F8022084F88100EA
:102A80002068016821F0010101602168A0698A685D
:102A9000B0F1806F02F4F81010D16268B2F5800FC7
:102AA00001D01AB10AE0A26B22B107E0A26BB2F129
:102AB000805F03D10A6842F480520A60A66AE16925
:102AC000E26B25683143E368024311431943A9606F
:102AD000D4E90D02D4E90571636A25691843D4F875
:102AE00020C00A43266810432843A56D3843D4E923
:102AF0000182D4E9123140EA0C0040EA08000843A0
:102B0000104318432843F060606868B92068816802
:102B100021F4C05141F4006181602068816821F492
:102B2000C06141F4806181602068016D21F0010184
:102B300001656068400206D52068626DC16821F0B9
:102B400000411143C160C4F8849084F881A0002042
:102B500089E700000030014000380040003C0040A0
:102B600010B5B6B0044614212FA8FDF705FCBC2112
:102B70006846FDF701FC1949206888422BD1801472
:102B80000090002468461794FEF72CFE08B1FDF76C
:102B9000AEFD1348016841F480410160006800F413
:102BA000804034900E480838016841F0020101600D
:102BB00000680DF1BC0C022100F0020034904FF4CB
:102BC000604005238CE8130003220648CDE9322338
:102BD0002FA9FEF793F836B010BD00000038004072
:102BE000E8440258000402582DE9FF5F04461646E7
:102BF0000F461D4600214FF0040BD4E9000200915E
:102C000030300290B2F5800F01D1A06888B194F8FD
:102C10008000012819D04FF0010984F88090FEF758
:102C20008FF994F881108246002001290FD00221EB
:102C300026E084F881B03A46114620460093334698
:102C400000F0E9F904B0BDE8F09F0220FAE7B7B15F
:102C5000AEB1A26880466766A4F8686084F881B067
:102C6000C4F88400A4F86A60E065A4F86000A4F8E1
:102C70006200B2F5C02F2067606705D009E001212E
:102C800084F880000846DDE72068016821F40061CF
:102C90000160206841686FF30F0131434160206893
:102CA000016841F0010101606068B0F5800F04D156
:102CB0002068016841F400710160E0680F282DD997
:102CC00048F20806B4F86A00E0B32068416931426E
:102CD0000BD0006B616E0860606E001D6066B4F81A
:102CE0006A00401EA4F86A00ECE7FEF729F9A0EBA1
:102CF0000A00A84202D3681CE4D001E0002DE1D113
:102D0000204601F017FAD4F8842084F8808042F439
:102D10008071C4F8841084F881905CE007281CD886
:102D20003BE020684069C0070DD002980088616EC2
:102D30000880606E801C6066B4F86A00401EA4F8CB
:102D40006A000AE02DE0FEF7FBF8A0EB0A00A842BB
:102D500002D3681C01D031E07DB3B4F86A000028CA
:102D6000DFD11EE020684169C9070CD090F830001F
:102D7000616E0870606E401C6066B4F86A00401EA8
:102D8000A4F86A0009E0FEF7DBF8A0EB0A00A8420D
:102D900002D3681C01D011E07DB1B4F86A000028AC
:102DA000E0D1204601F0C6F984F88190D4F884106F
:102DB00084F8808089B1012044E7FFE7204601F0D4
:102DC000B9F9D4F8842084F8808042F48070C4F883
:102DD000840084F88190032034E7009832E72DE9DD
:102DE000FC5F0446006817468A4600211D4694F899
:102DF000802000F1200B0191012A0DD04FF0010835
:102E000084F88080FEF79CF8814694F881000026C3
:102E1000012804D002201EE00220BDE8FC9FBAF188
:102E2000000F17D0B7B1A1680320C4F85CA0A4F8C4
:102E3000607084F88100C4F88460A4F862706666EB
:102E4000A4F86860A4F86A60B1F5C02F66672667C9
:102E500004D008E0012084F88060DEE72068016883
:102E600041F400610160206841686FF30F0139434C
:102E700041602068016841F0010101606068B0F5BF
:102E8000800F04D12068016841F400710160E0689E
:102E90000F281BD81FE02068416989070BD5E16D19
:102EA00009680162E06D001DE065B4F86200401E33
:102EB000A4F862000AE0FEF743F8A0EB0900A8427C
:102EC00002D3681C02D095E0002D30D0B4F8620027
:102ED0000028E0D174E007282BD86DE02068416914
:102EE00089071CD5B4F8621001290BD9E16B49B1EF
:102EF000E16D09680162E06D001DE065B4F86200F3
:102F0000801E09E0E06D0188ABF80010E06D801CC8
:102F1000E065B4F86200401EA4F8620009E0FEF724
:102F20000FF8A0EB0900A84202D3681C01D061E0B1
:102F3000BDB3B4F862000028D0D141E020684169F7
:102F400089072FD5B4F8621003290CD9E16B402909
:102F500009D9E16D09680162E06D001DE065B4F812
:102F60006200001F1AE0B4F8621001290CD9E16B6D
:102F700051B1E06D0188ABF80010E06D801CE06598
:102F8000B4F86200801E09E0E16D097880F8201035
:102F9000E06D401CE065B4F86200401EA4F86200D9
:102FA0000AE027E0FDF7CCFFA0EB0900A84202D31E
:102FB000681C01D01EE0EDB1B4F862000028BDD15C
:102FC00000224B4608212046009501F060FA28B106
:102FD000D4F8840040F02000C4F88400204601F0BA
:102FE000A9F884F88180D4F8840084F8806080B1E6
:102FF000012012E7204601F09DF8D4F8841084F8EF
:10300000806041F48071C4F8841084F881800320CA
:1030100003E7019801E72DE9FF4F83B090F8801096
:103020000446006801294FF00001109F1D460191E0
:1030300000F1200100F1300093460291009014D07D
:103040004FF0010A84F880A0FDF77AFF804694F8DB
:1030500081006368002101282E464FF480020CD0C5
:10306000934208D1A36833B903E0022007B0BDE85A
:10307000F08F042801D0022037E0049898B3BBF108
:10308000000F31D07DB394F88100042802D00520D0
:1030900084F8810089460846C4F88410C4F864B0F6
:1030A000A4F86A50A4F868500499E165A4F8625045
:1030B000A4F8605020676067206841686FF30F01D3
:1030C000294341602068016841F0010101606068A6
:1030D000904204D12068016841F400710160E06809
:1030E0000F2836D839E0FFE7012084F88010BDE7CB
:1030F0002068416989070DD565B1E16D09680162F4
:10310000E06D001DE065B4F86200401EA4F86200A6
:10311000B4F8625048F208022068416911420DD0AB
:1031200066B1006B616E0860606E001D6066B4F889
:103130006A00401EA4F86A00B4F86A60FDF700FF58
:10314000A0EB0800B84202D3781C02D089E0002F1F
:1031500034D055EA0600CBD169E0072830D863E0C7
:103160002068406980070ED56DB1E06D0188029836
:103170000180E06D801CE065B4F86200401EA4F898
:103180006200B4F8625020684069C0070ED06EB18A
:1031900000980088616E0880606E801C6066B4F8DC
:1031A0006A00401EA4F86A00B4F86A60FDF7C8FE21
:1031B000A0EB0800B84202D3781C01D051E08FB3D5
:1031C00055EA0600CCD132E02068416989070ED566
:1031D0006DB1E16D097880F82010E06D401CE0656C
:1031E000B4F86200401EA4F86200B4F8625020688F
:1031F0004169C9070ED06EB190F83000616E087059
:10320000606E401C6066B4F86A00401EA4F86A0054
:10321000B4F86A60FDF794FEA0EB0800B84202D350
:10322000781C01D01DE0E7B155EA0600CCD10022A0
:10323000434608212046009701F029F928B1D4F827
:10324000840040F02000C4F88400204600F072FFA3
:1032500084F881A0D4F8841084F8809081B1012092
:1032600004E7204600F066FFD4F8842084F88090BC
:1032700042F48071C4F8841084F881A00320F5E63C
:103280000198F3E6401EB0F1807F10B501D3012014
:1032900010BD4FF0E02460610F21601701F0DCFFEA
:1032A0000020A0610721216110BD30B590F8801089
:1032B000012918D0012280F880202421C0F8841030
:1032C0000022202450F8641B0B680D6823F0005383
:1032D00025F001050D60026050F8641C0B6004626B
:1032E0000277104630BD022030BD7047704770B580
:1032F000044690F8800001281DD0012284F8802027
:103300002420C4F8840020680568026822F00102C5
:1033100002602068826822F060620A438260204670
:1033200001F0B8F92268202100201560C4F884104B
:1033300084F8800070BD022070BD70B5044690F81E
:10334000800001281DD0012284F880202420C4F8A8
:10335000840020680568026822F00102026020688B
:10336000826822F060420A438260204601F092F9AE
:103370002268202100201560C4F8841084F88000A1
:1033800070BD022070BD7047704770472DE9F04155
:1033900003680446002540F60F06D86919689A6844
:1033A000304209D186067DD501F0200602F0805713
:1033B0003E4377D0216F62E1C64EC74F16400F40A3
:1033C00037436FD0C70709D0CF0507D501271F6244
:1033D000D4F88C3043F00103C4F88C3083070AD54D
:1033E000D30708D0276802233B62D4F88C3043F01F
:1033F0000403C4F88C3043070AD5D30708D02768E4
:1034000004233B62D4F88C3043F00203C4F88C30C0
:1034100003070CD501F02003334308D026680823A6
:103420003362D4F88C3043F00803C4F88C300305C1
:103430000BD54B0109D526684FF400633362D4F8ED
:103440008C3043F02003C4F88C30D4F88C30002B3F
:103450003AD0800609D501F0200002F080510843DF
:1034600003D0216F09B1204688472168D4F88C0029
:103470008968490602D410F0280F27D0204601F0B1
:10348000C9F92068806840061BD52068083050E8DC
:10349000001F21F0400140E80012002AF5D1E06F42
:1034A00078B100E018E08D490165E06FFDF7D2FAD0
:1034B000002809D0E06F016D00E02046BDE8F04132
:1034C00008472046FFF761FFBDE8F0812046FFF77F
:1034D0005CFFC4F88C50F7E7E76E2026012F7CD103
:1034E000C7067AD5CF0678D5102018622068806884
:1034F00040067DD5E16F7A4A0868904234D0784A18
:103500001832904230D0764A303290422CD0744AF1
:103510004832904228D0724A6032904224D0704A99
:103520007832904220D06E4A903290421CD06C4A41
:10353000A832904218D06B4A904215D0694A18328E
:10354000904211D0674A303290420DD0654A4832DD
:10355000904209D0634A6032904205D0614A783285
:10356000904201D05F4A903240680004000CABD01A
:10357000B4F85C208242A7D9A4F85E00C869B0F50F
:10358000807F2ED0216851E8000F20F4807041E840
:103590000002002AF6D12068083050E8001F21F010
:1035A000010140E80012002AF5D12068083050E8F7
:1035B000001F21F0400140E80012002AF5D1C4F8B4
:1035C0008860E566216851E8000F20F0100041E8AE
:1035D0000002002AF6D1E06F01E03BE008E0FDF7D1
:1035E00089F8B4F85C00B4F85E10401A81B22DE09E
:1035F000B4F85C00B4F85E10B4F85E20401A81B2F2
:10360000002AB4D00029B2D0226852E8000F20F47A
:10361000907042E80003002BF6D1334B226802F190
:10362000080252E8000F00EA030042E80007002FFA
:10363000F4D1C4F88860E5662567226852E8000F77
:1036400020F0100042E80003002BF6D12046FFF7DF
:103650004CFE39E7C70209D5570207D54FF4801051
:1036600018622046BDE8F041FFF78EBE03060AD57A
:1036700001F0800302F40002134304D0616F0029BB
:103680007FF41BAF20E7420611D54A060FD520462E
:10369000026852E8001F21F0400142E80013002BAD
:1036A000F6D1C0F88460456700F03DF90CE70202EE
:1036B00006D54A0004D52046BDE8F041FFF763BEB9
:1036C000C001C6D50029C4DA2046BDE8F041FFF7A5
:1036D0000DBE000001000010200100040148000898
:1036E0001000024010040240FEFFFFEF10B504007E
:1036F00003D0D4F8840010B107E0012010BD0020F1
:1037000084F88000204600F027F82420C4F88400C4
:103710002068016821F001010160204601F0BCFA37
:103720000128EBD0A06A10B1204600F0D5FF206838
:10373000416821F4904141602068816821F02A01AC
:1037400081602068016841F0010101602046BDE808
:10375000104001F025B8000010B5B6B004461421A1
:103760002FA8FCF709FEBC216846FCF705FE1C49A2
:103770002068884231D100241E94012000906846C0
:10378000FEF730F808B1FCF7B2FF1648016841F0C7
:1037900010010160006800F01000349011481038EA
:1037A000016841F00101016000682FAB022100F0C7
:1037B000010034904FF4C060072283E813000A48E8
:1037C0002FA9CDE93242FDF799FA002202212520E6
:1037D000FDF72EFC2520FDF71DFC36B010BD0000C6
:1037E00000100140F04402580000025870B4D0F8B4
:1037F0008830202B20D1E1B1DAB190F88030012B54
:103800001AD0036801260D4D002480F88060C4663C
:10381000AB420BD05B681B0208D5046854E8003F3C
:1038200043F0806344E80035002DF6D170BC01F010
:1038300009BC012070BC70470220FBE7000C005857
:10384000064810B50178064802F059F8BDE8104066
:10385000024901220348FFF7C9BF0000000000240D
:103860004C010024800200242DE9F8430446D0F8DE
:1038700084001F4616460D46202852D1DDB1D6B130
:1038800094F8800001284CD0012084F88000212287
:103890004FF00008C4F88C80C4F884201834FDF779
:1038A0004FFB814654F8100CA687E687183CB0F50C
:1038B000805F03D004E00120BDE8F883206920B1D7
:1038C0002E46002584F8808010E00026FAE780214B
:1038D000204601F043FCB8B9C6B116F8010B2168C7
:1038E0008862B4F85600401EA4F85600B4F856009A
:1038F0004B464FF0000200970028E8D14FF04001FE
:10390000204601F02BFC38B10320D5E735F8020B37
:103910002168C0F30800E3E72020C4F884000020F9
:10392000CAE70220C8E77047FEE70000F0B587B09D
:1039300014216846FCF720FD3A48016841F0100167
:103940000160016801F010010591016841F0040176
:103950000160016801F004010591016841F08001F6
:103960000160016801F080010591016841F00101E9
:103970000160016801F001010591016841F0020157
:103980000160016801F002010591016841F0080140
:10399000016000684FF48056234F002200F00800B9
:1039A000314605903846FDF7BFFA03244FF6FB7009
:1039B000002569468DE831001C48FDF79FF94FF658
:1039C000FF7069468DE831001948FDF797F90094BA
:1039D00069461848CDE90145FDF790F949F6FF1011
:1039E00069468DE831001448FDF788F940F6BB7050
:1039F00069468DE831003846FDF780F901200096D0
:103A000003946946CDE901053846FDF777F94CF294
:103A1000FF7069468DE831000848FDF76FF907B07F
:103A2000F0BD0000E04402580004025800100258A3
:103A300000080258001C025800000258000C0258EE
:103A40000E48002170B500F10C0C0B4A16244FF4FF
:103A500040758CE8320081610123C1610426016256
:103A600080E84C00FDF7DAFB002803D0BDE8704089
:103A7000FCF73DBE70BD000000500052AC010024B8
:103A800070B5154807224FF48005124E00212C0115
:103A9000C0E902120161A300C0E90514C0E90731C1
:103AA00041629A008162C162C0E90D21C163016473
:103AB00041648164C164016541658165C0E9006557
:103AC000FEF7A2FF002803D0BDE87040FCF70FBE50
:103AD00070BD000000380040F801002418480021A3
:103AE00010B5164C0C224FF4E1330460C0E90131EB
:103AF000C160C0E904128161C161016241628162F9
:103B0000FFF7F4FD08B1FCF7F2FD0D480021FFF7C7
:103B100014FC08B1FCF7EBFD09480021FFF7E7FBB7
:103B200008B1FCF7E4FD0648FFF7BFFB002803D00F
:103B3000BDE81040FCF7DBBD10BD000000100140E7
:103B400080020024FEE7FEE77047000030B595B024
:103B5000012200210524079413061502CDE90D5119
:103B6000CDE90F130C911023129194051391149128
:103B7000CDE90112CDE90332CDE9051401AA0346CE
:103B8000044807A9FDF7B0FA002800D0012015B0BD
:103B900030BD0000AC0100242DE9F0434B6A4FF02A
:103BA00040652BB1AA4203D004688B6A5B1E236177
:103BB0008B69002B68D00C6AB4B303688C68DC6135
:103BC000CC69FCB1D1E90B38D1F824C04E6B8F8A97
:103BD00043EA080346EA0C0633430E6A43EA874386
:103BE000D1E9037C43EA0C0333438E693B430F68FE
:103BF0002343046833433B4365E0006849688161BF
:103C0000BDE8F083D1E90B364F6A4C6B8D8A3343A4
:103C10003C430E6923430C6A43EA85438D69334371
:103C2000096823432B4362E0FFE7CC69B4F1000944
:103C300018D0D1E90B484F6A4E6BB1F814C044EA72
:103C400008043E430F683443CE6844EA8C4434434E
:103C500044EA09041C4303683C431443AA425C61E0
:103C6000CBD1CDE7D1E90B464F6A4D6BB1F814C00B
:103C700034433D4300682C43096844EA8C441C43A8
:103C80000C4314434461BBE70B6AABB303688C6815
:103C9000DC61CC69E4B1D1E90B38D1F824C04E6BBA
:103CA0008F8A43EA080346EA0C0633430E6A43EA66
:103CB0008743D1E9037C43EA0C0333438E693B43DA
:103CC0002343046833431343AA42636195D197E7C2
:103CD000D1E90B364F6A4C6B8D8A33433C430E69F6
:103CE00023430C6A43EA85438969334323430068CD
:103CF0000B431343436183E7FFE7CC6984B1D1E908
:103D00000B384F6A4E6BB1F814C043EA08033E43C8
:103D10003343CE6843EA8C43334323430468D2E7FA
:103D20004C6A002C9DD0D1E90B368F8A4D6B01680F
:103D3000334325432B4343EA8740104348615FE701
:103D400010B592B001284FF48071069104D002287A
:103D500004D0032804D005E0052002E0352000E06F
:103D600015200090002007904FF0807201904FF4D2
:103D70004051039101230590CDE90802CDE90A30B5
:103D800041F288340C900D9022460B486946FDF7AD
:103D900001FA18B109A001F04FFAFEE706480EA992
:103DA0002246FDF70DFB18B104A001F045FAFEE72D
:103DB0009DF8380012B010BDAC010024736F6D6522
:103DC0007468696E672077726F6E67202E2E2E2EB4
:103DD0000D0A000010B58EB041F2883400204FF477
:103DE000807166220092CDE9061008902246099063
:103DF000694605900B900C900D900D48FDF7CAF99F
:103E000008B10CA008E099200090094822466946B4
:103E1000FDF7C0F918B109A001F00EFA04E0204640
:103E2000FFF794FE002800D001200EB010BD000066
:103E3000AC01002468656172380A0000686561722F
:103E4000370A00002DE9F041984616460F46044611
:103E5000069D08E0681C06D0FDF772F8A0EB08008C
:103E6000A8420AD84DB120688068384000D00120AF
:103E7000B042EFD10020BDE8F081042084F8410079
:103E8000606C40F0010060640120F4E770B594B00C
:103E900041F2883200244FF4807006210691CDE96A
:103EA0000C040E9406A912480F940B9411941294CA
:103EB0001394FDF76FF9B8B9022000900121430572
:103EC000102205250695CDE90221CDE90443C6055A
:103ED0000190CDE90F6106484FF47A7306A96A464E
:103EE000FDF702F9002800D0012014B070BD0000D9
:103EF000AC0100242DE9F047454D044689464FF0BA
:103F0000000A2868C04380070AD0414E283E306826
:103F100020F080603060FDF713F80746B04608E0F7
:103F20000120BDE8F08700BFFDF70AF8C01B02289A
:103F300067D8D8F800000001F6D4206829684FF44B
:103F4000FE0721F47C313E0241EA00302860207AED
:103F5000A389B4F804C040022D4D2D495B1E227C7C
:103F6000ACF1010C1035091DA0F5007080B2521E95
:103F7000CCF3080C07EA034340EA0C00184306EAB6
:103F80000262104328600868626920F0C000104394
:103F900008600A68A06922F0200202430A60281D16
:103FA0000A6822F010020A6002684FF6F873E469AA
:103FB0009A4342EAC40202600868B9F1000F40F077
:103FC00010020A6011D00868B9F1010F11D040F455
:103FD00000100860D8F80000444640F08060C8F83F
:103FE0000000FCF7ADFF05460DE0086840F4002036
:103FF000EFE740F48010ECE7FCF7A2FF401B02283B
:1040000001D903208DE720680001F5D5504688E7E7
:10401000284402582DE9F047454D044689464FF0A3
:10402000000A2868C04380070AD0414E283E306805
:1040300020F080503060FCF783FF0746B04608E070
:104040000120BDE8F08700BFFCF77AFFC01B022803
:1040500067D8D8F800008000F6D4208829684FF48B
:10406000FE0721F07C713E0241EA00502860207A70
:10407000A389B4F804C040022D4D2D495B1E227C5B
:10408000ACF1010C1835091DA0F5007080B2521E6C
:10409000CCF3080C07EA034340EA0C00184306EA95
:1040A0000262104328600868626920F4406010438F
:1040B00008600A68A06922F4007202430A60281DA1
:1040C0000A6822F480720A6002684FF6F873E469A5
:1040D0009A4342EAC40202600868B9F1000F40F452
:1040E00080720A6011D00868B9F1010F11D040F058
:1040F00080700860D8F80000444640F08050C8F84E
:104100000000FCF71DFF05460DE0086840F4800044
:10411000EFE740F40000ECE7FCF712FF401B022839
:1041200001D903208DE720688000F5D5504688E747
:104130002844025810B5026840F26F3351699469FF
:1041400044F0080494610268946944F01004946196
:104150000268146824F001041460026814699C4326
:1041600014610268936823F44043936090F88120BF
:10417000042A0CD08A060AD5D0F8842042F08002A6
:10418000C0F884200268936943F02003936190F89B
:104190008120032A0CD04A060AD5D0F8842042F0A8
:1041A0000402C0F884200268936943F040039361DD
:1041B0008A050AD5D0F8842042F00102C0F8842094
:1041C0000268936943F400739361C9050AD5D0F876
:1041D000841041F00801C0F8841001688A6942F433
:1041E00080728A610021A0F86210A0F86A1010BDE8
:1041F00070B5044600F064F800F088F80F4E4FF4F4
:104200008055002229463046FCF78EFE202000F023
:1042100071F8C4F3074000F06DF8C4F3072000F014
:1042200069F8E0B200F066F8012229463046FCF752
:104230007BFEBDE8704000F043B800000004025867
:1042400008B506480A2301226946FEF7CDFC10B1E5
:10425000FF208DF800009DF8000008BDF801002443
:104260002DE9F04114460D46064600F029F8DFF826
:104270004C804FF48057002239464046FCF754FEEC
:10428000032000F037F8C5F3074000F033F8C5F31A
:10429000072000F02FF8E8B200F02CF804E000BF8F
:1042A000FFF7CEFF06F8010B641EF9D239464046EF
:1042B000BDE8F0410122FCF737BE000000040258BF
:1042C00070B50B4D4FF48054002221462846FCF770
:1042D0002BFE052000F00EF8FFF7B2FFC007FBD160
:1042E00021462846BDE870400122FCF71DBE0000B3
:1042F0000004025808B50A23694601228DF800001F
:104300000148FEF76CFD08BDF801002470B5094DA9
:104310004FF48054002221462846FCF705FE062073
:10432000FFF7E8FF21462846BDE870400122FCF770
:10433000FBBD0000000402582DE9F04114460D4673
:104340000646FFF7BDFFFFF7E1FFDFF85C804FF4A3
:104350008057002239464046FCF7E6FD0220FFF771
:10436000C9FFC5F30740FFF7C5FFC5F30720FFF7F7
:10437000C1FFE8B2FFF7BEFFB4F5807F07D90BA0FD
:1043800000F05AFFFF243078FFF7B4FF761C601E60
:1043900084B2F8D2012239464046FCF7C5FDBDE89B
:1043A000F041FFF78DBF0000000402584572726FA4
:1043B000723A20466C6173683A63616E2774206DAF
:1043C0006F7265207468616E20323536210A0000F4
:1043D0002DE9F05F81460D4611F0FF001646C0F151
:1043E00000014FF4807B4FEA122402F0FF08CFB2A5
:1043F00013D0E8B2C0F10000C0B2002C09EB000AF3
:1044000005EB00041ED03A4629464846FFF794FFC4
:10441000F01B5546C7B2060A2CE0ACB15E46641EDE
:1044200009D3324629464846FFF786FF09F58079C9
:1044300005F58075F3E7B8F1000026D0024629465D
:1044400048461EE0B84501D892B2F8E73A462946F8
:104450004846FFF771FFA8EB0702504692B221468B
:104460000FE05A4621462846FFF766FF04F58074A0
:1044700005F58075761EF4D2002F06D03A46214607
:104480002846BDE8F05FFFF757BFBDE8F09F2DE974
:10449000F041984616460D460746069C09E0FCF793
:1044A0004FFDA0EB0800A04202D3601C01D00BE03E
:1044B00054B13868406935EA000007D00020B042A6
:1044C000EDD00020BDE8F0810320FBE70120F6E7F6
:1044D0007047FCF73BBD000070B59CB04C216846AE
:1044E000FBF74AFF202113A8FBF746FF0220FCF749
:1044F000D1FD2E4900252E480A6822F001020A60EB
:104500000A68026842F440420260026802F44042D3
:104510001B9202689204FCD5264A136843F00203FA
:104520001360126802F002021B92026842F44042D9
:10453000026002680A6842F001020A60096801F03C
:1045400001011B9101688904FCD5022000904024E0
:1045500004940121039104220B923C23CDE9090527
:10456000CDE90C300FAB05260E960C2183E8230015
:1045700068461295FDF7B0FF08B172B6FEE7082253
:104580001A94CDE91624D30113AA3F200321CDE9C3
:10459000184382E82300042113A8FDF78DFD0028AD
:1045A00001D072B6FEE71CB070BD00002C040058AC
:1045B00018480258F44402582C48F0B52C4A0168B7
:1045C00041F470010160106800F00F00072804D268
:1045D000106820F00F00C01D106026490020254CF7
:1045E00010340B68244D43F001030B6020600B680E
:1045F0002B400B60136803F00F03072B04D91368DB
:1046000023F00F03DB1D13601A4C1C4A18341C4B9B
:10461000261D371D2060174C1A4D28343060261D8A
:104620003860371D23603B1D35601C1D3A60251D19
:104630002E1D1860331D22602860326018600A68E1
:104640000C4B114C22F4802260330A601860206801
:104650006FF30F00B0F1005F03D20C490120C1F8E5
:10466000080143F2D2000A490860F0BD88ED00E07D
:1046700000200052004402587FEDF6EA800201015A
:10468000000202020000FF010010005C00800051E7
:104690000040005230B5416EB9B101680D4B03F1D5
:1046A00008048A688968C2F34262490F5D5C615CF4
:1046B0002D01B5FBF1F1A0F86A10995CA25C09012B
:1046C000B1FBF2F1A0F8681030BD0121A0F86A102A
:1046D000F8E70000B45A000890F82810C90706D07F
:1046E0000168C36A4A6822F400321A434A6090F8AB
:1046F0002810890706D50168036B4A6822F48032C6
:104700001A434A6090F82810490706D50168436BA0
:104710004A6822F480221A434A6090F82810090758
:1047200006D50168836B4A6822F400421A434A6046
:1047300090F82810C90606D50168C36B8A6822F470
:1047400080521A438A6090F82810890606D50168BD
:10475000036C8A6822F400521A438A6090F8281089
:10476000490611D50168436C4A6822F480121A4345
:104770004A60416CB1F5801F06D10168836C4A68BC
:1047800022F4C0021A434A6090F82810090606D5A0
:104790000168C26C486820F40020104348607047EC
:1047A000F8B500260446C0F88C60FCF7C9FB054646
:1047B00020686FF07E470068000708D500222B466E
:1047C0004FF400112046009700F0C8FC60B9206843
:1047D000006840070AD500222B464FF4800120468E
:1047E000009700F0BBFC08B10320F8BD2020C4F8FE
:1047F0008400C4F88800E666002084F88060F8BD74
:1048000010B5806B0021A0F85E10A0F85610FEF7DE
:10481000BCFD10BD10B5026852E8001F21F4907174
:1048200042E80013002BF6D10E4B0268083252E822
:10483000001F194042E80014002CF6D1C16E012976
:1048400008D1026852E8001F21F0100142E800136D
:10485000002BF6D100212022C0F88820C166016714
:1048600010BD0000FEFFFFEF10B5D0F88810B0F8C3
:1048700060202229016804D0886940F0080088611E
:1048800010BD496A836D11401980816D891C816555
:10489000B0F85E10491EA0F85E10B0F85E10002956
:1048A000EED1026852E8001F21F4907142E8001333
:1048B000002BF6D10168083151E8002F22F00102E7
:1048C00041E80023002BF5D12022C0F888200021E8
:1048D000C26E0167012A02D0FEF7B2FF10BDC166A9
:1048E000026852E8001F21F0100142E80013002B7B
:1048F000F6D10168CA69D243D20601D410220A62F5
:10490000B0F85C10FEF7F1FC10BD00002DE9F04797
:1049100004460068C569D0F800A0D0F80880D4F833
:104920008810B4F86060222905D0816941F008013F
:104930008161BDE8F087B4F868704FF0000963E06A
:104940002068A16D406A30400880A06D801CA06581
:10495000B4F85E00401EA4F85E002068C5696907CF
:1049600030D0E9070AD05FEACA5107D501210162B8
:10497000D4F88C0040F00100C4F88C00A8070BD5D7
:104980005FEAC87008D0216802200862D4F88C0061
:1049900040F00400C4F88C0068070BD55FEAC870CB
:1049A00008D0216804200862D4F88C0040F002008E
:1049B000C4F88C00D4F88C0020B12046FEF7E5FC4A
:1049C000C4F88C90B4F85E00F0B9216851E8000F8B
:1049D00020F4807041E80002002AF6D1264A2068BF
:1049E000083050E8001F114040E80013002BF6D1BA
:1049F00020214846C4F88810E16EC4F8709001295F
:104A000023D02046FEF71CFF0FB1A80698D4B4F8B7
:104A10005E0000288DD0B4F86810814289D92068E2
:104A2000083050E8001F21F0805140E80012002AB1
:104A3000F5D112482067216851E8000F40F02000AE
:104A400041E80002002AF6D173E7E066216851E8E8
:104A5000000F20F0100041E80002002AF6D1206883
:104A6000C169C943C90601D410210162B4F85C10C0
:104A70002046FEF73AFCC7E7FEFFFFEF6948000853
:104A800010B5D0F88810B0F860202229016804D051
:104A9000886940F00800886110BD496A836D114043
:104AA0001970816D491C8165B0F85E10491EA0F82F
:104AB0005E10B0F85E100029EED1026852E8001FC7
:104AC00021F4907142E80013002BF6D101680831FF
:104AD00051E8002F22F0010241E80023002BF5D11C
:104AE0002022C0F888200021C26E0167012A02D06E
:104AF000FEF7A6FE10BDC166026852E8001F21F055
:104B0000100142E80013002BF6D10168CA69D243B4
:104B1000D20601D410220A62B0F85C10FEF7E5FB61
:104B200010BD00002DE9F04704460068C569D0F8C3
:104B300000A0D0F80880D4F88810B4F8606022296A
:104B400005D0816941F008018161BDE8F087B4F8C2
:104B500068704FF0000963E02068A16D406A304042
:104B60000870A06D401CA065B4F85E00401EA4F85B
:104B70005E002068C569690730D0E9070AD05FEA9E
:104B8000CA5107D501210162D4F88C0040F0010020
:104B9000C4F88C00A8070BD55FEAC87008D021685C
:104BA00002200862D4F88C0040F00400C4F88C00A5
:104BB00068070BD55FEAC87008D021680420086236
:104BC000D4F88C0040F00200C4F88C00D4F88C00BB
:104BD00020B12046FEF7D9FBC4F88C90B4F85E00F3
:104BE000F0B9216851E8000F20F4807041E800021C
:104BF000002AF6D1264A2068083050E8001F1140EC
:104C000040E80013002BF6D120214846C4F8881054
:104C1000E16EC4F87090012923D02046FEF710FE03
:104C20000FB1A80698D4B4F85E0000288DD0B4F86F
:104C30006810814289D92068083050E8001F21F0AF
:104C4000805140E80012002AF5D1124820672168FF
:104C500051E8000F40F0200041E80002002AF6D1A0
:104C600073E7E066216851E8000F20F0100041E88A
:104C70000002002AF6D12068C169C943C90601D4DF
:104C800010210162B4F85C102046FEF72EFBC7E746
:104C9000FEFFFFEF814A00082DE9F04304468068DB
:104CA000D84E87B0D84B2168D4E90427D4F81CC06B
:104CB00010430A68002547EA0C0738433240024394
:104CC0000A602068E268416821F440511143416064
:104CD0002268A1699A4201D0206A01439768DFF8EF
:104CE0002CC3CB4ECB4807EA0C070F4397602168D3
:104CF000676ACA6A22F00F023A43CA622268B24265
:104D00000ED1006800F03800182873D047DCB8B323
:104D1000082879D010286FD178E028287ED17BE050
:104D2000BD498A4209D1006800F00700062875D203
:104D3000DFE800F0546A6C6E7072B8498A4209D19B
:104D4000006800F00700062868D2DFE800F0475D41
:104D50005F616365B2498A4209D1006800F00700CB
:104D600006285BD2DFE800F03A5052545658AD495D
:104D70008A420BD1006800F0070006284ED200E0FE
:104D800010E0DFE800F02B4143454749A6498A423D
:104D90000AD1006800F03800182839D0B7DD202883
:104DA000BBD13CE001203AE0A0498A4209D1006829
:104DB00000F00700062831D2DFE800F01026282A8C
:104DC0002C2E9B498A420BD1006800F00700062870
:104DD00024D2DFE800F003191B1D1F2100201EE074
:104DE0009A421BD18B48001D006800F0070006287E
:104DF00014D202E00CE007E010E0DFE800F0030569
:104E000007090B0D02200AE0042008E0082006E054
:104E1000102004E0202002E0402000E080208549AE
:104E2000DFF814829A42854A4FF400434FEA211773
:104E30004FF000064ED110281AD006DC022809D007
:104E400004280BD008287CD10DE020283ED0402833
:104E500077D13DE0FCF770FB014610E06846FCF7B7
:104E60007DFB01990BE003A8FCF71AFC049906E00E
:104E70001068800605D51068C0F3C100C140002944
:104E800070D0606A676838F8102007EB4703B1FB01
:104E9000F2F0834255D8B0EB073F52D800230846C2
:104EA0001946FBF71FFA02467808130E120243EA6E
:104EB000012110183A4671410023FBF713FA604AAA
:104EC000A0F5407191423CD821688FE03946D8E77F
:104ED0001946D6E7D4F81CC04FF6EF799C4546D169
:104EE000082819D005DC58B101280CD0042875D148
:104EF0000DE0102815D0202835D040286ED134E0A0
:104F0000FDF72AFA01E0FDF739FA014610E068469C
:104F1000FCF724FB01990BE003A8FCF7C1FB049903
:104F200006E01068800604D51068C0F3C100C140D7
:104F3000C1B1636A606838F81330B1FBF3F149001E
:104F400000E04BE001EB5001B1FBF0F0A0F11001EB
:104F5000494543D84FF6F0732168C0F34202184028
:104F6000104343E043E03946E3E71946E1E7082808
:104F700019D005DC58B101280CD004282ED10DE041
:104F8000102815D020282BD0402827D12AE0FDF763
:104F9000E3F901E0FDF7F2F9014610E06846FCF79D
:104FA000DDFA01990BE003A8FCF77AFB049906E00F
:104FB0001068800604D51068C0F3C100C140B1B1CB
:104FC000636A606838F81330B1FBF3F101EB50010C
:104FD000B1FBF0F0A0F11001494505D9012506E02B
:104FE0003946EDE71946EBE7216880B2C860012039
:104FF000A4F86A00A4F8680028462667666707B028
:10500000BDE8F083F369FFCF000C0058FFF4FF11F7
:105010000010014054440258004400400048004041
:10502000004C004000500040001401400078004057
:10503000007C00400090D0039C5A000800440258B5
:10504000FFFC0F0070B58468002381654FF4805524
:10505000A0F85C20AC42A0F85E204FF0FF0103678F
:1050600004D1046904BB40F2FF111DE04FF07F063C
:10507000C4B1B4F1805F1AD0A0F860302221C0F82A
:105080008C30C0F888100168083151E8004F44F0B6
:10509000010441E80046002EF5D1416EB1F1005FF8
:1050A0000CD030E0046934B9A0F86010E6E701697B
:1050B00009B13F21F8E7A0F86060DFE7B0F86810B9
:1050C000914220D88168A94201D10169C9B11F4923
:1050D0000167016980F8803041B1026852E8001F21
:1050E00041F4807142E80013002BF6D101680831C9
:1050F00051E8002F42F0805241E80023002BF5D107
:1051000021E01349E4E78168A94201D1016979B13D
:1051100010490167016980F8803059B1016851E890
:10512000002F42F4907241E80023002BF6D10AE0F0
:105130000949EEE7016851E8002F42F0200241E8FA
:105140000023002BF6D1002070BD0000254B000885
:105150000D490008814A0008694800082DE9F04718
:105160009A4617460E460446089D4FF000094FF038
:1051700020084CE0681C4AD0FBF7E2FEA0EB0A00D6
:10518000A8422AD84DB32068016849073FD5C069B5
:10519000C04300053BD421684FF4006008622168D9
:1051A00051E8000F20F4D07041E80002002AF6D147
:1051B0002068083050E8001F21F0010140E800128B
:1051C000002AF5D1C4F8848084F88090C4F88880DF
:1051D000C4F88C800320BDE8F087206850E8001FE9
:1051E00021F4D07140E80012002AF6D1206808307E
:1051F00050E8001F21F0010140E80012002AF5D11B
:10520000C4F8848084F88090C4F88880E2E720683D
:10521000C06936EA000004D00020B842AAD00020BD
:10522000D9E70120F9E700000148FEF7AFB8000018
:1052300080020024FEE700000FB4054B10B503A95F
:10524000044A029800F028F810BC5DF814FB000036
:10525000C955000824000024090700284FEA1161FD
:1052600004DB00F1E02080F80014704700F00F002C
:1052700000F1E02080F8141D704702E008C8121FFA
:1052800008C1002AFAD170477047002001E001C12F
:10529000121F002AFBD170472DE9FF4F8DB09B46AE
:1052A0000F460446002606E025280BD05A460F99E3
:1052B0009047641C761C20780028F5D111B0304648
:1052C000BDE8F08F0025A8460122984900E005437B
:1052D00014F8013F203B02FA03F00842F7D120788E
:1052E0002E2817D114F8010F45F004052A280ED0F6
:1052F0006FF02F022078A0F1300109290AD808EBBD
:10530000880102EB410100EB0108641CF2E757F849
:10531000048B641C20786C280DD004DC4C2812D03F
:105320006A2811D104E074280DD07A280CD10AE043
:1053300045F4001507E0617845F48015814202D1FB
:10534000641C05F58015641C2078692844D008DCAD
:105350000028B3D0582867D063280FD0642808D11C
:105360003AE0702865D0732812D075285AD0782872
:105370005AD05A460F999047761CD5E017F8040B7F
:105380008DF8000000208DF80100E946012003E0BF
:1053900057F8049B4FF0FF3069074FF0000501D428
:1053A0000AE06D1C45450DDA8542FADB19F8051057
:1053B0000029F6D106E06D1C8542FCDB19F80510CA
:1053C0000029F8D12E4404E019F8010B5A460F9930
:1053D00090476D1EF8D2A7E00A200021CDE9080110
:1053E000C5F3025002280CD001CFC117021E71F183
:1053F00000020CDA0023D0EB030063EB01012D2245
:1054000008E0FF1D27F00707F7E80201EEE72A058D
:1054100004D52B228DF8282001223CE0EA073AD05F
:105420002022F7E70A2000E010200021CDE9080142
:1054300007E01020002145F00405CDE908014FF0F8
:105440000808C5F30250022810D001CF00214FF008
:10545000000A2A0720D52278702A0DD0DDE908C37A
:105460008CF0100C5CEA030C0CD015E0FF1D27F04B
:105470000707F7E80201EAE740228DF828204FF0FD
:10548000010A0CE050EA010306D030238DF82830E1
:105490008DF82920022292462278582A04D024A28C
:1054A0000DF120090B9209E026A2F9E7DDE90823B6
:1054B000FAF718FF0B9B9B5C09F8013D50EA0102CB
:1054C000F4D1ADEB090020300890680701D44FF00B
:1054D00001080899884503DD0898A8EB000000E062
:1054E00000208046002506E00AA85A46405D0F9934
:1054F00090476D1C761C5545F6DB04E030205A467B
:105500000F999047761CB8F10001A8F10108F5DC6D
:1055100005E019F8010B5A460F999047761C089937
:10552000481E08900029F4DC641CC4E60928010028
:105530003031323334353637383961626364656609
:1055400000000000303132333435363738394142CB
:105550004344454600000000010EC0F30722C0F39B
:105560000743120401EB006002EB0321084470477B
:10557000F8B50546D5E9010100F0DAF904000ED0CE
:1055800005F10C066946281D00F09FF92A6830468F
:105590009DF800109047641E14F0FF04F2D1F8BD8E
:1055A0000748084910B502C0A0F5927100F0A1F9B2
:1055B0000349BDE81040203901F12C0000F099B9F1
:1055C000480100249D59000813B504480A2301220C
:1055D0006946FEF749F900981CBD000080020024CE
:1055E000014890F84C0070475C01002403480021FA
:1055F00080F84C1041640164816470475C010024B0
:1056000070B5002844D001283FD0022840D1402264
:10561000C1022048FEF724FE1E4940221E48FAF728
:1056200092FE1D4C2069FFF797FF60646069FFF7E9
:1056300093FFA064E068FFF78FFF206417A0616C00
:10564000FFF7FAFDA16C18A0FFF7F6FD216C19A079
:10565000FFF7F2FD1AA0FFF7EFFDD4E91115226C58
:105660002846FAF701FF296817A0FFF7E5FD6968EA
:1056700018A0FFF7E1FDD5F894121BA0FFF7DCFDA1
:10568000A06CBDE87040FAF721BE40220021C0E7BF
:1056900070BD0000000004245C0100246C6F616494
:1056A000203D202523780A0065702020203D2025FC
:1056B00023780A0073697A65203D202523780A0043
:1056C0002E2E2E2E2E2E0A00766563746F723D25C7
:1056D00023780A0072657365745F68616E646C6537
:1056E0003D2523780A000000766563746F725F655C
:1056F0006E643D2523780A002DE9FC413C4D0027CE
:105700003C4E3D4C6A68511CB054696028780128B1
:1057100002D002281CD068E0402966D135484022DA
:10572000A968FEF755FE334940223348FAF70BFECD
:105730002069FFF711FF60646069FFF70DFFA06447
:10574000E068FFF709FF206402216F6029704CE0D8
:10575000206CA846884248D128A0FFF76DFD31682B
:1057600029A0FFF769FD71682BA0FFF765FD2EA04A
:10577000FFF762FD30A0FFF75FFD0126002506E080
:10578000606C00EB0530FAF733FE6D1CADB2206C97
:1057900006EB1030A842F3D82BA0FFF74DFD0A20EE
:1057A000FBF79AFA2BA0FFF747FDD4E91021114827
:1057B0004032FAF73DFF2AA0FFF73EFD0A20FBF733
:1057C0008BFA616C08226846FAF74EFE009927A012
:1057D000FFF732FD01992AA0FFF72EFD88F800603F
:1057E0000120C8F80470BDE8FC810020FBE7000040
:1057F00004000024000004245C010024BDD3CAD5A9
:10580000CDEAB3C90A000000646174615F62756625
:1058100066313D2523780A00646174615F627566B4
:1058200066323D2523780A00BFAACABCD0B4C8EBB3
:10583000666C6173680A0000C7EBB5C8B4FDB2C1FD
:10584000B3FDCDEAB3C90A00B2C1B3FDCDEAB3C915
:105850000A000000D5FDD4DAD0B4C8EB0A0000007D
:10586000D0B4C8EBCDEAB3C90A000000757064611A
:1058700074615F74617374313D2523780A00000000
:105880007570646174615F74617374323D2523784F
:105890000A000000014981F84C0070475C010024B7
:1058A000FBF75CFBFEF718FEFEF740F8FEF7C8F8C2
:1058B000FEF7E6F8FEF712F9FAF71CFE00F044F8DE
:1058C000FEE70021017041707047027843789A42E8
:1058D00002D14FF0FF30704743689A5C0A701E2275
:1058E0000178491CB1FBF2F302FB13110170002097
:1058F000704741600022027042701046704770B5D8
:1059000043781E2205785C1CB4FBF2F602FB1644B9
:10591000AC4202D14FF0FF3070BD4468E154417891
:10592000491CB1FBF2F302FB13114170002070BD62
:10593000C0F30722C0B21E21101A1E3090FBF1F2F4
:1059400001FB1200C0B2704762B6FFF74FFEFFF7CF
:1059500027FE084901220848FDF748FF07A0FFF786
:105960006BFC0D48FFF704FEFFF73AFEFFF748FE19
:10597000F7E7000000000024800200242E2E2E2EC7
:105980002E2E2E2E2E2E2E2E2E2E2E2E2E2E2E2E37
:105990002E2E2E2E2E0A0000480100242DE9F0475D
:1059A0002E4C814600260D46207830B1012814D0B7
:1059B00002281ED003284FD149E0612D02D028A033
:1059C000267012E04846FFF77CFF29464846FFF75D
:1059D00096FF0120207024A007E0622D3CD14846AC
:1059E000FFF78DFF0220207022A0BDE8F047FFF7EF
:1059F00023BCDFF88C80632D4FF0030709D0642DA2
:105A000013D0652D21D066291DD10220FFF742FF5A
:105A100022E04846FFF773FF1AA0FFF70DFC0020B5
:105A2000FEF7E6FBC8F8006009E016A0FFF704FCEB
:105A30004FF480552846FEF7DBFBC8F8005014A051
:105A4000FFF7FAFB2770BDE8F0870120DEE7084684
:105A5000FFF752FE0028F6D02670F4E7010000247C
:105A60006572726F720D0A00B5DAD2BBB2BD0D0A53
:105A700000000000B5DAB6FEB2BD0D0A000000005D
:105A80000C000024B5DAC8FDB2BD0D0A000000000C
:105A9000B5C8B4FDBDD3CAD50A000000010002009C
:105AA0000400060008000A000C001000200040005E
:105AB0008000000101010103070100000804020445
:105AC00008010101000000000102030401020304B7
:105AD00006070809F45A0008000000242800000006
