:020000042404D2
:10100000905004241D13042431390424013804248D
:101010002939042449150424394704240000000018
:10102000000000000000000000000000B13B0424AC
:10103000511504240000000069390424E93B04240C
:1010400037130424371304243713042437130424D8
:1010500037130424371304243713042437130424C8
:1010600037130424371304243713042437130424B8
:1010700037130424371304243713042437130424A8
:101080003713042437130424371304243713042498
:101090003713042437130424371304243713042488
:1010A0003713042437130424371304243713042478
:1010B0003713042437130424371304243713042468
:1010C0003713042437130424371304243713042458
:1010D0003713042437130424371304243713042448
:1010E00037130424371304240000000037130424AA
:1010F0003713042437130424371304243713042428
:101100003713042437130424371304243713042417
:101110003713042437130424C93D0424371304244B
:1011200037130424371304243713042437130424F7
:1011300037130424371304243713042437130424E7
:10114000000000000000000000000000000000009F
:1011500037130424371304243713042437130424C7
:1011600037130424371304243713042437130424B7
:1011700037130424371304243713042437130424A7
:101180003713042437130424371304243713042497
:101190003713042437130424371304243713042487
:1011A0003713042437130424371304243713042477
:1011B0003713042437130424371304243713042467
:1011C0003713042437130424371304243713042457
:1011D0003713042437130424371304243713042447
:1011E0003713042437130424371304243713042437
:1011F0003713042437130424371304243713042427
:101200003713042437130424371304243713042416
:101210003713042437130424371304243713042406
:101220003713042437130424371304240000000068
:101230003713042437130424000000003713042458
:1012400037130424371304243713042437130424D6
:1012500037130424371304243713042437130424C6
:1012600037130424371304243713042437130424B6
:101270003713042437130424371304240000000018
:101280003713042437130424371304240000000008
:10129000000000003713042400F002F800F02EF8DC
:1012A0000AA090E8000C82448344AAF10107DA45C1
:1012B00001D100F023F8AFF2090EBAE80F0013F0E5
:1012C000010F18BFFB1A43F0010318470C3600004A
:1012D0001C3600000023002400250026103A28BFF9
:1012E00078C1FBD8520728BF30C148BF0B60704798
:1012F0001FB503F0C7FA1FBD10B510BD00F0F1F81F
:101300001146FFF7F5FF03F06BFA00F00FF903B495
:10131000FFF7F2FF03BC03F04FFA00000C488047D0
:101320000C480047FEE7FEE7FEE7FEE7FEE7FEE7C4
:10133000FEE7FEE7FEE7FEE707480849084A094BD3
:1013400070470000084B1860D0F800D0416808478B
:10135000F93C042499120424904A04249050042453
:10136000904C0424904C042408ED00E0704753EAAC
:10137000020C00F069802DE9F04B4FF00006002BC5
:101380001FBFB3FA83F503FA05F424FA05F65E40AD
:1013900012BF1643B2FA82F502FA05F4C5F1200530
:1013A0001EBF22FA05FC44EA0C04203556EA044C20
:1013B0004FEA144418BF641C4FF000084FF00009B6
:1013C000904271EB030C39D3002919BFB1FA81F7B0
:1013D00001FA07F6B0FA80F700FA07F6C7F120071E
:1013E0001EBF20FA07FC46EA0C062037B6FBF4FCC9
:1013F000A7EB0507103F07F01F0BCBF120062CFAD7
:1014000006F60CFA0BFB44BFB3460026202FA4BF00
:101410005E464FF0000B5BEA060C08BF4FF0010B75
:1014200019EB0B0948EB0608ABFB027C06FB02CC70
:101430000BFB03CCC01B71EB0C01C1E70B46024652
:1014400041464846BDE8F08B13B5084318BF4FF03E
:10145000FF300146AFF30080BDE81C40704700003C
:1014600010B5044603E003F0ABF9401C09D014F8B2
:10147000010B05490028F6D1BDE810400A2003F011
:101480009FB94FF0FF3010BD584904244FF00002BF
:1014900000B5134694469646203922BFA0E80C506A
:1014A000A0E80C50B1F12001BFF4F7AF090728BF45
:1014B000A0E80C5048BF0CC05DF804EB890028BFC1
:1014C00040F8042B08BF704748BF20F8022B11F0EA
:1014D000804F18BF00F8012B704770477047704766
:1014E0007047754600F02CF8AE4605006946534635
:1014F00020F00700854618B020B5FFF71DFFBDE8B6
:1015000020404FF000064FF000074FF000084FF06A
:10151000000BAC46ACE8C009ACE8C009ACE8C009B7
:10152000ACE8C00921F007018D46704710B50446AC
:10153000AFF300802046BDE81040FFF7E8BE000092
:1015400000487047F8480424FEE70000000000004F
:101550007047000000000000EFF3108072B600BF7B
:10156000FEE700000000000080B544F27C4045F238
:101570003101C5F602004CF22302C0F20101C0F6AF
:101580000022016000210160426040F2712241604E
:10159000826040F2FF728160C0F22832C26018227D
:1015A000C16002614CF2FF320161CEF6FF0242617E
:1015B0004FF49B724161826143F233028161C3F255
:1015C000D712C2614DF6AA62C161C0F22002026266
:1015D000016200F071F9002080BD000000000000F1
:1015E000B0B5044600F0F0F844F6F0010546C2F24A
:1015F0000441621C097818BF0C4400BF00F0E4F8F5
:10160000401BA042FAD3B0BD2DE9F04F83B00C6867
:10161000002C00F0C68000F1264242F2004702F1A1
:10162000FF72C5F602074FEAB22201920A22B842BF
:1016300008BF0922002500274FF0010A009209E0A7
:101640000C68043734FA0AF20AF1010A05F10205BE
:1016500000F0A780AAF10109012202FA09FE14EAAA
:101660000E08EDD0D1F804B00BF00304A4F1010C86
:10167000BCF1010F11D803228668AA40CB6826EA84
:101680000202AB401A438260CBF30013426822EAA5
:101690000E0203FA09F31A434260032C1ED00323FF
:1016A000C268AB40022C22EA03028B6803FA05F3FE
:1016B00042EA0302C26011D16FF0030207F01C0678
:1016C00002EA59020F23024403FA06F4D2F820C0BA
:1016D0000B692CEA0404B34023431362032302681A
:1016E000AB404E689A4306F00303AB4016F4403F0C
:1016F00042EA03020260A3D044F2F44340F2084EEF
:10170000C5F60203C5F6000E1A6842F002021A601E
:101710001A6807F00C0302F002020292029A29F002
:101720000302019C009E092C38BF26460F2452F864
:101730000EC09C402CEA040406FA03F34FF0B04CB0
:10174000234342F80E30DCF800204B6842EA0806DA
:10175000DC0258BF22EA08069C02CCF8006040F286
:10176000040CC5F6000CDCF8002042EA080658BF5D
:1017700022EA08069C03CCF80060DCF8802042EAEC
:10178000080658BF22EA0806DB03CCF88060DCF8C4
:101790007C2042EA080658BF22EA0806CCF87C60A2
:1017A0004EE703B0BDE8F08F0069084018BF012084
:1017B000704700000000000041F20000C5F6004044
:1017C0000068000C7047000044F68C20C2F2044010
:1017D000006870470000000044F6F00044F68C21D9
:1017E000C2F20440C2F2044100780A681044086062
:1017F000704700000000000080B5032000F084F86E
:1018000001F0F2F844F2184144F69E03C5F60201D5
:10181000C2F204430A68096801F00F01C2F303220F
:10182000595C9A5C01F01F0102F01F02D04044F69F
:10183000EC02C2F2044220FA01F1116044F6E80120
:10184000C2F2044108600F2000F00AF800281CBF13
:10185000012080BD00F034F8002080BD00000000B1
:10186000B0B544F6F001C2F20441097801B3044670
:1018700044F6E800C2F204404FF47A72B2FBF1F190
:101880000068B0FBF1F001F047FC0F2C4FF00105B0
:101890000CD858B94FF0FF3000222146002500F047
:1018A00023F844F6F400C2F2044004602846B0BDB8
:1018B0000120B0BD000000007047000000000000E3
:1018C00081B044F2F440C5F60200016841F0020123
:1018D0000160006800F002000090009801B07047BD
:1018E00080B502F02DFF80BD70B514460D4606464A
:1018F00002F036FF2946224602F01EF80146304625
:1019000002F036FF70BD000080B502F045FF80BDDB
:10191000B0B544F60C05C5F60205296849072968E3
:1019200005D401F00701081A18BF0120B0BD21F04D
:10193000070108432860FFF747FF044655F8080CE5
:10194000800407D4FFF740FF001BB0F57A7FF5D97C
:101950000120B0BD0020B0BD80B500F0F5FF44F21D
:10196000204144F69E02C5F60201C2F20442096813
:10197000C1F30211515C01F01F01C84080BD00009D
:1019800080B544F2384EC5F6020E5EF8103C5EF8A3
:10199000101CC1F3053C5EF80C1CBCF1000FDEF816
:1019A000042014D0C1F30011C2F3CC02514300EE65
:1019B000101A03F003010229B8EE400A0CD071B9E5
:1019C0005EF8381C89060DD49FED341A18E000210A
:1019D0008160C0E9001180BD9FED2F1A10E09FEDDE
:1019E0002D1A0DE05EF8381C49F20002C0F2D03228
:1019F000C1F3C10122FA01F101EE101AB8EE411A49
:101A0000DEF800109FED263A6FF35F2102EE101A08
:101A1000DEF80010C1F34621B8EE422A00EE032A98
:101A200000EE10CAB7EE003AB8EE400A81EE000AA6
:101A300032EE031A02EE101AB8EE422A20EE010A24
:101A400032EE031A80EE011ABCEEC11A80ED001AC4
:101A5000DEF80010C1F3064101EE101AB8EE411A8B
:101A600031EE031A80EE011ABCEEC11A80ED011AA4
:101A7000DEF80010C1F3066101EE101AB8EE411A4B
:101A800031EE031A80EE010ABCEEC00A10EE101A05
:101A9000816080BD0024744A20BCBE4B0024744C7D
:101AA000000000390000000080B544F2404EC5F649
:101AB000020E5EF8183C5EF8181CC1F3055C5EF877
:101AC000141CBCF1000FDEF8042014D0C1F3002177
:101AD000C2F3CC02514300EE101A03F003010229B5
:101AE000B8EE400A0CD071B95EF8401C89060DD4DE
:101AF0009FED341A18E000218160C0E9001180BD1B
:101B00009FED2F1A10E09FED2D1A0DE05EF8401C9E
:101B100049F20002C0F2D032C1F3C10122FA01F150
:101B200001EE101AB8EE411ADEF800109FED263AC9
:101B30006FF35F2102EE101ADEF80010C1F34621A8
:101B4000B8EE422A00EE032A00EE10CAB7EE003AC1
:101B5000B8EE400A81EE000A32EE031A02EE101AC5
:101B6000B8EE422A20EE010A32EE031A80EE011A84
:101B7000BCEEC11A80ED001ADEF80010C1F3064178
:101B800001EE101AB8EE411A31EE031A80EE011A76
:101B9000BCEEC11A80ED011ADEF80010C1F3066137
:101BA00001EE101AB8EE411A31EE031A80EE010A66
:101BB000BCEEC00A10EE101A816080BD0024744A89
:101BC00020BCBE4B0024744C000000390000000013
:101BD0002DE9F04381B00446C07844F22C49000757
:101BE000C5F6020901D400262DE0606E4FEA3050A0
:101BF00003280DD80026DFE800F0020E1613D9F8EE
:101C00000000002640F40030C9F800004EB912E090
:101C1000012636B90FE0201D022101F0A9FE06467B
:101C20004EB1B04611E004F12400022101F030FF72
:101C30000646002EF5D1D9F82400616E20F440103C
:101C40000843C9F824004FF000086078C0072FD07F
:101C5000606D042807D8DFE800F00A131B030300B7
:101C6000F6B1B04624E00126002EFAD118E0D9F8EA
:101C7000000040F40030C9F80000002EF1D10FE060
:101C8000201D002101F074FE0646002EE9D107E078
:101C900004F12400002101F0FBFE0646002EE0D1F5
:101CA000D9F82400616D20F007000843C9F824002A
:101CB0006078800731D5A06D4FEAB010042807D8AE
:101CC000DFE800F00A131B030300F6B1B04624E07E
:101CD0000126002EFAD118E0D9F8000040F40030B7
:101CE000C9F80000002EF1D10FE0201D002101F005
:101CF0003FFE0646002EE9D107E004F12400002152
:101D000001F0C6FE0646002EE0D1D9F82400A16DF0
:101D100020F4E0700843C9F824006078400733D508
:101D2000D4F8A4004FEA7050042807D8DFE800F088
:101D30000A131B030300F6B1B04625E00126002E6E
:101D4000FAD118E0D9F8000040F40030C9F80000DA
:101D5000002EF1D10FE0201D002101F009FE064602
:101D6000002EE9D107E004F12400002101F090FEEB
:101D70000646002EE0D1D9F82C00D4F8A41020F4A7
:101D800060000843C9F82C006078000733D5D4F808
:101D9000A8004FEA3060042807D8DFE800F00A13F3
:101DA0001B030300F6B1B04625E00126002EFAD150
:101DB00018E0D9F8000040F40030C9F80000002E07
:101DC000F1D10FE0201D002101F0D2FD0646002ECA
:101DD000E9D107E004F12400002101F059FE064694
:101DE000002EE0D1D9F82C00D4F8A81020F0E06043
:101DF0000843C9F82C00E078800727D5A06C4FEA8B
:101E00003010032806D8DFE800F002091202AEB154
:101E1000B0461BE00126002EFAD10FE0D9F80000F1
:101E200040F40030C9F80000002EF1D106E0201D7A
:101E3000022101F09DFD0646002EE9D1D9F82000CF
:101E4000A16C20F030000843C9F820006078C0067B
:101E500031D5E06D4FEA3030042807D8DFE800F0D4
:101E60000A131B030300F6B1B04624E00126002E3E
:101E7000FAD118E0D9F8000040F40030C9F80000A9
:101E8000002EF1D10FE0201D002101F071FD06466A
:101E9000002EE9D107E004F12400002101F0F8FD53
:101EA0000646002EE0D1D9F82400E16D20F4E04090
:101EB0000843C9F824006078800625D5206E4FEAD3
:101EC0003040052807D8DFE800F0030A0F030303BA
:101ED00096B1B04618E00126002EFAD10CE0201D84
:101EE000012101F045FD04E004F12400012101F08D
:101EF000CFFD0646002EECD1D9F82400216E20F447
:101F0000E0200843C9F824006078400627D5D4F8BB
:101F1000AC004FEA3070052807D8DFE800F0030A6C
:101F20000F03030396B1B04619E00126002EFAD143
:101F30000CE0201D012101F01BFD04E004F1240050
:101F4000012101F0A5FD0646002EECD1D9F82C00A8
:101F5000D4F8AC1020F0E0400843C9F82C006078B9
:101F600000061FD5E06ED0B1B0F1005F12D0B0F125
:101F7000805F24D1D9F8000040F40030C9F8000097
:101F80007EB9D9F82400E16E20F040500843C9F82A
:101F9000240007E0201D012101F0EAFC0646002E86
:101FA000EFD0B046E078C00729D0606C03280AD88B
:101FB000DFE800F0020D1602CEB1B0461FE00126A8
:101FC000002EEED1DDE70126002EF6D10FE0D9F884
:101FD000000040F40030C9F80000002EEDD106E00A
:101FE000201D022101F0C4FC0646002EE5D1D9F8DF
:101FF0002000616C20F003000843C9F82000A0789D
:10200000400643D5D9F8D40340F48070C9F8D4030E
:10201000FFF7DAFB074600BFD9F8D403C00505D4A3
:10202000FFF7D2FBC01B6528F6D303266EBBD9F899
:102030004410D4F8B000414011F4407F11D0D9F8D9
:102040004410D9F8442042F48032C9F84420D9F829
:10205000442021F4407122F48032C9F84420C9F8A8
:102060004410B0F5807F0FD1FFF7AEFB074641F279
:10207000893500BFD9F84400800705D4FFF7A4FBD9
:10208000C01BA842F6D3032686B1B0462078C0070D
:1020900041D0A06F4FEAF000052823D8DFE800F018
:1020A00003262B03030376B3B04634E04FF6CF7319
:1020B000D4F8B00059F81C2CC0F2FF0300F44071B2
:1020C00022F47C5203EA1013B1F5407F08BF1A4393
:1020D0006FF31F3049F81C2CD9F844100843C9F895
:1020E0004400D3E70126002EDED10CE0201D0121A3
:1020F00001F03EFC04E004F12400012101F0C8FCE1
:102100000646002ED0D1D9F82800A16F20F0380063
:102110000843C9F828002078800723D5606F052878
:1021200007D8DFE800F0030A0F03030396B1B046B7
:1021300018E00126002EFAD10CE0201D012101F04B
:1021400017FC04E004F12400012101F0A1FC064683
:10215000002EECD1D9F82800616F20F00700084369
:10216000C9F828002078400725D5D4F89000052824
:1021700007D8DFE800F0030A0F03030396B1B04667
:1021800019E00126002EFAD10CE0201D012101F0FA
:10219000EFFB04E004F12400012101F079FC064684
:1021A000002EECD1D9F82C00D4F8901020F00700C4
:1021B0000843C9F82C002078800627D5D4F88C0075
:1021C0004FEA3070052807D8DFE800F0030A0F0354
:1021D000030396B1B04619E00126002EFAD10CE0B7
:1021E000201D002101F0C4FB04E004F124000221C1
:1021F00001F04EFC0646002EECD1D9F82800D4F8A8
:102200008C1020F0E0400843C9F8280020784006F0
:1022100027D5D4F898004FEAB020052807D8DFE882
:1022200000F0030A0F03030396B1B04619E001263C
:10223000002EFAD10CE0201D002101F099FB04E0F2
:1022400004F12400022101F023FC0646002EECD10B
:10225000D9F82C00D4F8981020F4E0500843C9F8BD
:102260002C002078000627D5D4F89C004FEA703067
:10227000052807D8DFE800F0030A0F03030396B12F
:10228000B04619E00126002EFAD10CE0201D0021F5
:1022900001F06EFB04E004F12400022101F0F8FBE0
:1022A0000646002EECD1D9F82C00D4F89C1020F46E
:1022B00060400843C9F82C002078000716D5D4F8F0
:1022C0008000B0F5805F08D104F12400022101F004
:1022D000DFFB002818BF4FF00108D9F82800D4F818
:1022E000801020F440500843C9F828002078C00628
:1022F00016D5D4F89400B0F5807F08D104F12400FD
:10230000022101F0C5FB002818BF4FF00108D9F8E1
:102310002C00D4F8941020F440700843C9F82C0025
:10232000A078000721D5D4F8A000B0F5003F19D05F
:10233000B0F5803F10D0C0BB201D002101F018FB7C
:1023400006468EB9D9F82C00D4F8A01020F44030FD
:102350000843C9F82C0008E004F12400022101F030
:1023600097FB0646002EEDD0B046A078400729D551
:10237000D4F88400B0F5401F21D0B0F5001F18D06C
:10238000B0F5801F40F0C180D9F8000040F4003063
:10239000C9F80000AEB9D9F82800D4F8841020F4A8
:1023A00040100843C9F828000CE00126002EDBD1BC
:1023B000C8E704F12400012101F06AFB0646002E63
:1023C000E9D0B046A078C0071FD0E06CB0F5803FE0
:1023D00010D0B0B9D9F8000040F40030C9F80000BE
:1023E00096B9D9F82000E16C20F480300843C9F890
:1023F00020000AE0201D022101F0BAFA06461EB9AB
:10240000EFE70126002EECD0B046E078800608D534
:1024100004F12400022101F03BFB002818BF4FF01B
:102420000108206881031ED4C10234D4C1003CD409
:10243000810245D441004DD4B0F1FF3F5ADD000286
:1024400008D5D9F82800D4F8881020F440000843B3
:10245000C9F82800B8F1000F18BF4FF00108404636
:1024600001B0BDE8F083E16F6FF0010202EB3122B1
:10247000022A0AD34FEA31223AB1012A4AD1D9F8C5
:10248000002042F40032C9F80020002E45D04FF061
:102490000108C102CAD5D9F82410226F21F00041E9
:1024A0001143C9F82410C100C2D559F81C1CD4F836
:1024B000B42021F48041114349F81C1C8102B9D594
:1024C000D9F82410A26E21F080711143C9F82410AC
:1024D0004100B1D559F81C1C21F4004149F81C1CDD
:1024E000D4F8B81059F81C2C114349F81C1CB0F151
:1024F000FF3FA4DCD9F82010226D21F04051114398
:10250000C9F820100002A5D59BE70126002E7FF414
:1025100058AF40E70126002EB9D1D9F8282022F47F
:1025200040721143C9F82810C1027FF57FAFB2E7AE
:102530002DE9F04381B0002800F0F48042F2000859
:102540000446C5F200288946D8F8000000F00F00C4
:1025500088420ED2D8F8000020F00F0040EA0900AF
:10256000C8F80000D8F8000000F00F00484540F01F
:10257000D980206844F218474107C5F602070AD5FA
:1025800021693A6802F07002914204D93A6822F057
:1025900070021143396001070AD561697A6802F057
:1025A0007002914204D97A6822F070021143796076
:1025B000C1060AD5A1697A6802F4E062914204D9A1
:1025C0007A6822F4E0621143796081060AD5E169F4
:1025D000BA6802F07002914204D9BA6822F070021F
:1025E0001143B96081070AD5E1683A6802F00F0229
:1025F000914204D93A6822F00F0211433960C007B2
:102600007ED1206881070AD5E1683A6802F00F029E
:10261000914204D23A6822F00F0211433960D8F88F
:10262000001001F00F0149450DD9D8F8001021F034
:102630000F0141EA0901C8F80010D8F8001001F0B4
:102640000F0149456ED141070AD521693A6802F068
:102650007002914204D23A6822F07002114339604C
:1026600001070AD561697A6802F07002914204D2CA
:102670007A6822F0700211437960C1060AD5A16917
:102680007A6802F4E062914204D27A6822F4E0624D
:102690001143796080060AD5E069B96801F07001DC
:1026A000884204D2B96821F070010843B86000F094
:1026B0009BF9396844F69E02C2F204423B68C1F3BA
:1026C000032103F00F03515CD25C01F01F01C840ED
:1026D00002F01F0144F6EC0220FA01F1C2F20442BA
:1026E000116044F6E80144F6F402C2F20441C2F279
:1026F000044208601068FFF7B3F801B0BDE8F0834A
:10270000386820F47061D4E90102012841EA02012D
:1027100039600BD003282BD002282ED157F8181C73
:10272000890307D4012001B0BDE8F08357F8181CD5
:10273000C905F7D557F8081C21F00701084347F8E9
:10274000080CFFF741F8064641F2883557F8080CA7
:10275000616800F03800B0EBC10F3FF452AFFFF7F3
:1027600033F8801BA842F1D9032001B0BDE8F08303
:1027700057F8181C8901D5D5DCE757F8181C49070C
:10278000D0D5D7E7000000002DE9F04142F2000863
:10279000C5F20028D8F8000000F00F0006280CD879
:1027A000D8F80000072161F30300C8F80000D8F84A
:1027B000000000F00F00072831D144F20047C5F6B1
:1027C0000207FFF701F80446386840F0010038605E
:1027D0003868400707D4FEF7F7FF001B0228F7D937
:1027E0000320BDE8F081786849F2000140F08040A4
:1027F00078600020386144F6E800C0F2D031C2F2BF
:10280000044044F6F402C2F20442016044F6EC00D3
:10281000C2F2044001601068FFF722F810B10120F5
:10282000BDE8F081FEF7D0FF044641F2883600BFD4
:102830003D69FEF7C9FF15F0380F054605D0281B86
:10284000B042F5D90320BDE8F0814EF64551386815
:10285000CFF6F671084038603C68FEF7B5FFA1037B
:10286000044605D5601B6428F6D90320BDE8F08135
:10287000386820F0807038603D68FEF7A5FFA90138
:10288000054605D5281B02284FF00300F4D956E071
:10289000386820F0806038603C68FEF795FF2101C1
:1028A000044605D5601B02284FF00300F4D946E02A
:1028B000386820F0805038603868800007D5FEF70F
:1028C00083FF001B02284FF00300F5D937E040F2E8
:1028D00000210020B861C0F20221F8613862B962BB
:1028E0000021C0F2FF11F96240F28021C0F2011113
:1028F00039637863B963F86339647864396821F4BB
:102900008021396038664FF0FF30B866D7F8D000C4
:1029100040F48030C7F8D000D8F8000000070DD58B
:10292000D8F80000072161F30300C8F80000D8F8C8
:10293000000000F00F0007287FF471AF0020BDE811
:10294000F08100000000000080B500F04DF844F276
:10295000184144F69E03C5F60201C2F204430A6818
:10296000096801F00F01C2F30322595C9A5C02F07E
:102970001F0220FA02F201F01F0044F6EC0122FAD5
:1029800000F0C2F20441086044F6E801C2F20441DA
:102990000A6080BD0000000080B5FFF7D5FF44F25B
:1029A0001C4144F69E02C5F60201C2F204420968C7
:1029B000C1F30211515C01F01F01C84080BD00004D
:1029C00080B5FFF7C1FF44F21C4144F69E02C5F6F4
:1029D0000201C2F204420968C1F30221515C01F014
:1029E0001F01C84080BD000044F20041C5F602014D
:1029F0000869C0F3C20003280FD002282AD070BB98
:102A00000868800649F20000C0F2D03058BF704715
:102A10000968C1F3C101C84070478A6A886AC0F377
:102A2000051CC86ABCF1000F4B6B1DD0C3F3CC036F
:102A300000F00100584302F00302022A00EE100ADF
:102A4000B8EE400A12D0A2B90868800614D49FEDEF
:102A5000261A1EE047F64000C0F27D10704740F68F
:102A60000010C0F23D007047002070479FED1D1A16
:102A70000FE09FED1B1A0CE0086849F20002C0F25B
:102A8000D032C0F3C10022FA00F001EE100AB8EE15
:102A9000411A086B9FED153A6FF35F2002EE100AA2
:102AA000086BC0F34620B8EE422A013000EE032A3C
:102AB00000EE10CAB7EE003AB8EE400A81EE000A06
:102AC00032EE031A20EE010A01EE100AB8EE411AA6
:102AD00080EE010ABCEEC00A10EE100A704700BF7B
:102AE0000024744A20BCBE4B0024744C0000003902
:102AF0002DE9F04381B0F8B18046007844F20049F6
:102B0000C007C5F602095AD0D9F8100000F0380104
:102B1000D9F82800102905D018290FD100F003009A
:102B200002280BD1D9F80000800344D5D8F804005E
:102B3000002840D101272FE0012735E2D8F80440D2
:102B40002CB1B4F5A02F0DD0B4F5803F10D0D9F83A
:102B5000000020F48030C9F80000D9F8000020F40B
:102B6000802009E0D9F8000040F48020C9F8000076
:102B7000D9F8000040F48030C9F80000FEF724FEC8
:102B80000546A4B1D9F80000800314D4FEF71CFE5A
:102B9000401B6428F6D903270020002800F0048297
:102BA0000DE000BFFEF710FE401B6428F3D8D9F8F3
:102BB00000008003F6D40120002800F0F58198F889
:102BC0000000800740F18480D9F8100010F038012F
:102BD000D9F828001CD0182908BF5FEA807017D0E8
:102BE000D8F80C00D9F80010002847D021F01901BE
:102BF0000843C9F80000FEF7E7FD0546D9F80000D4
:102C000040072AD4FEF7E0FD401B0228F6D91EE05B
:102C1000D9F80000400704D5D8F80C00002800F0CF
:102C20009181D9F80000D8F80C1020F01900084361
:102C3000C9F80000FEF7C8FD054600BFD9F800003E
:102C400040070AD4FEF7C0FD401B0228F6D903272F
:102C50000024002C00F0A8813AE0FEF7ADFD41F21F
:102C60000301884223D8D8F81000D9F8041040286E
:102C700021F47C3124D141F4003023E021F0010023
:102C8000C9F80000FEF7A0FD05460126D9F80000AE
:102C900010F0040086EA900417D0FEF795FD401B63
:102CA0000328F3D30327002C00F07E8110E0D9F82D
:102CB0000400D8F8101020F0FE4040EA016001E066
:102CC00041EA0030C9F804000124002C00F06C81B6
:102CD00098F80000C00674D5D9F8100000F038014B
:102CE000D9F82800082905D018291CD100F00300C4
:102CF000012818D1D9F80000C00503D5D8F81C0068
:102D0000802859D1FEF758FD41F20301884222D8AC
:102D1000D8F82000D9F80410202821F0F84142D139
:102D200041F0804041E0D8F81C000028D9F80000AC
:102D300020D040F08000C9F80000FEF745FD0546B0
:102D4000D9F80000C005DDD4FEF73EFD401B022887
:102D5000F6D9032731E0D9F80C00D8F8201020F07C
:102D60007C50012440EA0160C9F80C00002C00F0FE
:102D70001B8126E020F08000C9F80000FEF724FD4A
:102D800005460126D9F8000010F4807086EA102468
:102D90000ED0FEF719FD401B0328F3D30327002CA8
:102DA00000F002810DE041EA8060C9F804000124CE
:102DB000002C00F0F98004E001270024002C00F032
:102DC000F38098F8000000071CD498F800008006F3
:102DD00031D498F80000400745D4D8F82440002C9E
:102DE00000F0E180D9F8100000F03800182840F019
:102DF0008880012CD9F82810D9F8300040F0A48040
:102E00000127D1E0D8F814000028D9F874003ED08A
:102E100040F00100C9F87400FEF7D6FC054600BF7B
:102E2000D9F874008007D0D4FEF7CEFC401B0228EE
:102E3000F6D90327B8E0D8F818000028D9F8000020
:102E40004BD040F48050C9F80000FEF7BDFC0546A9
:102E5000D9F800008004BCD4FEF7B6FC401B022861
:102E6000F6D90327A0E0D9F8000440F48070C9F82F
:102E70000004FEF7A9FC0546D9F80004C0051AD4E1
:102E8000FEF7A2FC401B6428F6D903278CE020F053
:102E90000100C9F87400FEF797FC0546032700BF40
:102EA000D9F8740080077FF590AFFEF78DFC401BCA
:102EB0000228F5D978E0D8F808401CB1052C77D065
:102EC000012C7BD0D9F8700020F00100C9F8700007
:102ED000D9F8700020F0040074E020F48050C9F8A4
:102EE0000000FEF771FC0546032700BFD9F800007B
:102EF00080047FF56EAFFEF767FC401B0228F5D912
:102F000052E0D9F8000020F08070C9F80000FEF708
:102F10005BFC022C05464FF0030709D1D9F80000ED
:102F2000800171D5FEF750FC401B0228F6D93BE02A
:102F3000D9F80000800136D5FEF746FC401B022878
:102F4000F6D931E0012783E601F00302D8F82830F2
:102F50009A4240F0D380C1F30511D8F82C20914259
:102F600040F0CE800146D8F830206FF35F21013A5F
:102F7000914240F0C780C0F34622D8F8341001399E
:102F80008A4240F0C180C0F30642D8F838100139B7
:102F90008A4240F0BB80C0F30660D8F83C1001398B
:102FA000884240F0B5800027F8B201B0BDE8F08358
:102FB000D9F8700040F00400C9F87000D9F870002A
:102FC00040F00100C9F87000FEF7FEFB002C05463A
:102FD00041F288344FF0030711D000BFD9F87000D8
:102FE00080073FF5FAAEFEF7EFFB401BA042F5D994
:102FF000DAE700BFFEF7E8FB401BA042D4D8D9F8BF
:1030000070008007F6D4E8E608F12807D9F8280010
:1030100040F2F33188438ECF0843591E40EA021034
:103020004FF47E426FF35F21C9F8280002EB47207E
:103030004FF4FE0280B2D8F83C300844D8F838107B
:1030400002EB01414FF0FE4201F4FE0102EB03628C
:10305000084402F0FE410844C9F83000D9F82C00B9
:103060004FF6F87120F00100C9F82C00D9F83400AF
:10307000D8F84820884340EAC200C9F83400D9F89B
:103080002C00D8F8401020F00C000843C9F82C00A0
:10309000D9F82C00D8F8441020F002000843C9F8F1
:1030A0002C00D9F82C0040F48030C9F82C00D9F855
:1030B0002C0040F40030C9F82C00D9F82C0040F462
:1030C0008020C9F82C00D9F82C0040F00100C9F884
:1030D0002C00D9F8000040F08070C9F80000FEF71D
:1030E00073FB04460327D9F8000080013FF55BAF6E
:1030F000FEF76AFB001B0228F5D955E7012753E7C5
:10310000012751E701274FE701274DE701274BE74B
:10311000012749E70000000080B500F04DFD80BDAB
:103120007047000000000000704700000000000031
:103130007047000000000000B0B590F83C20012A64
:103140004FF002025CD0012380F83C3080F83D2033
:1031500040F2004C0268C4F2010C42F48063634503
:103160005368D2F808E002BF23F470034C6823438D
:1031700041F2FF740D68C4F2000423F07003A24210
:1031800043EA050353600BDC40F2FF73C4F2000313
:103190009A4215DCB2F1804F27D040F2004317E08D
:1031A00040F2FF33C4F201039A4216DC41F60003F9
:1031B000C4F200039A4218D00023C4F2010309E0CC
:1031C00040F60003C4F200039A420ED040F60043DA
:1031D000C4F200039A4208D00CE044F20003C4F2A7
:1031E00001039A4201D0624504D12EF08003896820
:1031F000194391600022012180F83D1080F83C20A5
:103200001046B0BD0000000060B310B5044690F851
:103210003D0028B9002084F83C00204600F024F846
:10322000022084F83D002068211D00F0D5FD01201A
:1032300084F8480084F83E0084F83F0084F8400099
:1032400084F8410084F8420084F8430084F8440084
:1032500084F8450084F8460084F8470084F83D006F
:10326000002010BD0120704780B582B041F20001FE
:103270000068C4F20001884201D002B080BD44F26F
:10328000E8400022C5F60200016841F0100101602B
:103290000068002100F01000019001983620FEF730
:1032A00023FB3620FEF71CFB02B080BD00000000AF
:1032B00090F83D1001291BD1022180F83D100168D2
:1032C00041F2FF70C4F200008142C86840F0010082
:1032D000C8600FDC40F2FF70C4F20000814217DCCE
:1032E000B1F1804F2BD040F20040C4F2000024E046
:1032F0000120704740F2FF30C4F20100814212DC2D
:1033000041F60000C4F20000814218D0002012E013
:1033100040F60000C4F20000814210D040F60040A8
:10332000C4F2000009E044F20000C4F2010081424E
:1033300005D040F20040C4F2010081420BD10722C7
:103340008868C0F2010202400020062A18BFB2F5C8
:10335000803F00D17047086840F0010008600020FD
:1033600070470000000000007047000000000000EF
:1033700010B5044600680169890744BFC1685FEA67
:10338000817140D420680169490744BFC1685FEA80
:10339000417144D420680169090744BFC1685FEAEC
:1033A000017149D420680169C90644BFC1685FEA58
:1033B000C1614DD420680169C9071CBFC1685FEABB
:1033C000C17152D120680169090644BFC1685FEA32
:1033D000016151D420680169C90544BFC1685FEA31
:1033E000016150D420680169490644BFC1685FEAA1
:1033F00041614FD420680169890644BFC1685FEA12
:1034000081614ED410BD6FF002010161012121776D
:10341000806980074CD02046FFF7A6FF4EE06FF092
:103420000401016102212177806910F4407F48D0B6
:103430002046FFF799FF4AE06FF00801016104217F
:103440002177C069800745D02046FFF78DFF47E010
:103450006FF01001016108212177C06910F4407FED
:1034600041D02046FFF780FF43E06FF0010101618A
:10347000204600F049F8A5E76FF080010161204681
:10348000FFF752FEA6E76FF4807101612046FFF757
:1034900047FEA7E76FF040010161204600F054F8B5
:1034A000A8E76FF0200101612046FFF741FE10BD43
:1034B000204600F021F8204600F022F80020207776
:1034C00060E7204600F018F8204600F019F80020C8
:1034D00020775FE7204600F00FF8204600F010F854
:1034E000002020775EE7204600F006F8204600F036
:1034F00007F8002020775DE770470000000000001B
:10350000704700000000000010B544F6B0110068DC
:10351000C2F204410968884200D010BD44F6AC14E0
:10352000C2F2044420880130208081B2B1F5FA7FD4
:1035300018BF10BD02A0FDF793FF0020208010BD32
:103540007465737400000000704700000000000004
:1035500090F88010012901D1022070472421C0F881
:10356000841002681368116823F0005321F00101F0
:1035700011600021416613602022C0F8842080F889
:103580008010084670470000B0B5044690F88000EF
:10359000012801D10220B0BD012084F88000242040
:1035A000C4F8840020680568026822F00102026005
:1035B000826822F0606211438160204600F0ACFC1A
:1035C000206805602020C4F88400002084F8800072
:1035D000B0BD000000000000B0B5044690F88000C7
:1035E000012801D10220B0BD012084F880002420F0
:1035F000C4F8840020680568026822F001020260B5
:10360000826822F0604211438160204600F084FC11
:10361000206805602020C4F88400002084F8800021
:10362000B0BD00000000000010B5B0B10446D0F8F5
:10363000840028B9002084F88000204600F028F893
:103640002420C4F884002068016821F00101016091
:10365000204600F035FD012801D1012010BDA06AEF
:1036600010B1204600F084FC2068416821F49041AC
:103670004160816821F02A018160016841F0010107
:103680000160204600F0E4FC10BD000000000000D6
:10369000B0B5B6B0044602A8BC210025CDE934552A
:1036A000CDE932553195FDF7F1FE41F20001206878
:1036B000C4F20101884201D036B0B0BD01200290B1
:1036C00002A82095FEF784FA08B1FDF745FF44F201
:1036D000E040C5F60200016941F010010161016995
:1036E00001F0100101910199016841F001010160AF
:1036F000006831A900F00100019001984FF4C0600A
:103700003190022032900020CDE93300072035901F
:103710000020C5F60200FDF777FF36B0B0BD00000F
:103720002DE9F04381B00446D0F8840020280BD165
:103730000E4600294FF001005CD01746002A59D0F0
:1037400094F88000012803D1022001B0BDE8F08385
:103750001D46012084F880004FF00009C4F88C90C9
:103760002120C4F88400FEF72FF8A4F85470A4F8C0
:1037700056700746A168B1F5805F07D1206900281F
:103780001CBF30464E46B046064601E04FF00008EA
:1037900084F8809009E000BF206816F8011B816260
:1037A000B4F856000138A4F85600B4F8560088B1B1
:1037B0008021002220463B46009500F045FF88B955
:1037C000002EE9D138F8020B216800266FF35F2044
:1037D0008862E5E74021002220463B46009500F044
:1037E00033FF18B1032001B0BDE8F0832020C4F8F6
:1037F0008400002001B0BDE8F0830000000000005C
:10380000FEE700000000000080B586B000200590B3
:10381000CDE90300CDE9010044F2E040C5F6020025
:10382000016841F001010160006801A900F0010098
:103830000090009804200190012003900020C5F61C
:103840000200FDF7E1FE06B080BD000000000000B0
:1038500010B584B044F6B01041F20001C2F2044049
:1038600000240394C4F20001CDE901440160EF217A
:10387000C0E9011440F2E731C1608461FFF7C4FC84
:1038800008B1FDF769FE44F6B01001A9C2F2044088
:1038900001940394FFF750FC08B1FDF75DFE04B0FE
:1038A00010BD00000000000080B544F6FC1041F29D
:1038B0000001C2F2044048F28042C4F20101C0F2A9
:1038C0001E02C0E9001200210161C0E902110C22B0
:1038D000C0E90521C0E90711C0E90911FFF7A4FEFD
:1038E00008B1FDF739FE44F6FC100021C2F2044095
:1038F000FFF772FE08B1FDF72FFE44F6FC10002121
:10390000C2F20440FFF740FE08B1FDF725FE44F681
:10391000FC10C2F20440FFF71BFE002808BF80BD68
:10392000FDF71AFE80BD0000FEE700000000000069
:10393000FEE700000000000000F007004FF0FF3C31
:1039400080F00703042B28BF0423033838BF00206E
:103950000CFA03F399430CFA00F301FA00F022EA9F
:10396000030108437047000070470000000000009A
:10397000F0B581B044F22C47C5F6020757F8042C85
:1039800002F00302032A02D1012001B0F0BD054676
:1039900057F82C0C0C4620F0806047F82C0CFDF7F3
:1039A00013FF064657F82C0C000105D5FDF70CFF58
:1039B000801B0228F6D964E057F8040CEE6895E8FD
:1039C0000E0020F47C30012C40EA0130A2F101010C
:1039D0006FF35F214FF47E4202EB432247F8040C61
:1039E00092B24FF0FE4302EB01004FF4FE012A6950
:1039F00001EB064101F4FE0103EB0262084402F010
:103A0000FE410844F8603868696920F0C00040EA67
:103A1000010038603868A96920F0200040EA010000
:103A2000386038684FF6F87120F010003860386957
:103A3000EA6920EA01004FF4001140EAC20038614F
:103A4000386808BF4FF4801140F01000002C386037
:103A500008BF4FF4002138680843386057F82C0C31
:103A600040F0806047F82C0CFDF7AEFE044600BF26
:103A700057F82C0C000107D4FDF7A6FE001B032805
:103A8000F6D3032001B0F0BD002001B0F0BD00006E
:103A9000F0B581B044F22C47C5F6020757F8042C64
:103AA00002F00302032A02D1012001B0F0BD054655
:103AB00057F82C0C0C4620F0805047F82C0CFDF7E2
:103AC00083FE064657F82C0C800005D5FDF77CFEDA
:103AD000801B0228F6D964E057F8040CEE6895E8DC
:103AE0000E0020F07C70012C40EA0150A2F101018F
:103AF0006FF35F214FF47E4202EB432247F8040C40
:103B000092B24FF0FE4302EB01004FF4FE012A692E
:103B100001EB064101F4FE0103EB0262084402F0EE
:103B2000FE41084478613868696920F4406040EAE1
:103B3000010038603868A96920F4007040EA01008B
:103B4000386038684FF6F87120F480703860B869D2
:103B5000EA6920EA01004FF0807140EAC200B861D2
:103B6000386808BF4FF4000140F48070002C3860C2
:103B700008BF4FF4800138680843386057F82C0CB0
:103B800040F0805047F82C0CFDF71EFE044600BFA5
:103B900057F82C0C800007D4FDF716FE001B0328F5
:103BA000F6D3032001B0F0BD002001B0F0BD00004D
:103BB0007047000000000000B0B501380024B4EBED
:103BC000106F01D00120B0BD4EF210050F21CEF2D2
:103BD000000568604FF0FF3000F0CAFDAC600720C0
:103BE00028602046B0BD000080B5FDF7F5FD80BD22
:103BF00070B59CB044F6180440F22C4509A84C213D
:103C0000C5F60204C5F60005FDF740FC02200026BB
:103C1000CDE90766CDE90566CDE90366CDE9016624
:103C2000FDF776FE0096286820F0010028602868DD
:103C300000F001000090206840F4404020602068BF
:103C400000F440400090009820688004FCD54FF6B6
:103C5000DC40CFF6FF70215841F00201215020587E
:103C600000F002000090009800200090206840F4CE
:103C700040402060206800F440400090286840F0F8
:103C800001002860286800F001000090009800BF43
:103C900020688004FCD50220099001210C9112902B
:103CA0000025042114913C214024CDE91510052163
:103CB0000D94CDE917100C201395CDE9190509A82D
:103CC0001B95FEF715FFA0B93F20019003200421AA
:103CD000CDE9020508200694CDE904044FF4806084
:103CE000CDE9070401A8FEF723FC002804BF1CB09F
:103CF00070BDFDF731FC00004EF6885042F2000C1A
:103D0000CEF20000C5F2002C016841F470010160A0
:103D1000DCF8000000F00F00062806D8DCF80000F0
:103D2000072161F30300CCF8000044F200404EF696
:103D30007F52C5F60200CEF6F622016841F001017D
:103D400001600021016103681A400260DCF8002074
:103D5000120706D5DCF80020072363F30302CCF832
:103D6000002040F200228161C161C0F202220162A2
:103D700082620022C0F2FF12C26240F28022C0F2D0
:103D80000112026341638263C16302644164026899
:103D900022F480220260016641F20000C5F6004074
:103DA0000068B1EB507F05D148F208100121C5F23F
:103DB0000010016044F2000043F2D201C5F200207D
:103DC000016070470000000080B544F6B010C2F2F8
:103DD0000440FFF7CDFA80BD10B540F6FF32C4F2C3
:103DE0000002904202680FDCB0F1804F1DD040F21B
:103DF0000043C4F20003984217D040F60003C4F217
:103E00000003984211D014E040F60043C4F20003CE
:103E100098420AD040F20043C4F20103984204D011
:103E20000023C4F20103984203D122F070024B68D0
:103E30001A434FF6FF7343F6FF7CC4F20003C4F24B
:103E4000010C984210DD60451ADD44F20003C4F213
:103E5000010398422CD044F60003C4F201039842B7
:103E600026D044F2004312E040F2FF73C4F2000394
:103E7000984211DCB0F1804F1AD040F2004313E0B9
:103E80000023C4F20103984212D040F20043C4F26E
:103E9000010398420CD00FE040F60003C4F2000387
:103EA000984205D040F60043C4F20003984203D183
:103EB00022F44072CB681A4322F080024C696045BC
:103EC000D1F800E08B6842EA04020260C362C0F8E5
:103ED00028E00EDD44F20002C4F20102904213D049
:103EE00044F60002C4F2010290420DD044F20042B6
:103EF00006E00022C4F20102904205D040F20042E6
:103F0000C4F20102904201D10969016301214161BA
:103F100010BD00000000000010B5416E01B3016843
:103F200044F6C60CC2F2044C44F6CE0E8A68C2F2C5
:103F3000044E8968C2F342624C0F1CF802301EF82E
:103F400002101A011EF80430B2FBF1F11CF8042033
:103F5000A0F868101201B2FBF3F2A0F86A2010BDBD
:103F60000121A0F86A10A0F8681010BD0000000040
:103F7000816ACA070CD18A0715D44A071ED40A07DA
:103F800027D4CA0630D48A0639D44A0655D541E02A
:103F90000268D0F82CC0536823F4003343EA0C03C2
:103FA00053608A07E9D50268D0F830C0536823F41B
:103FB000803343EA0C0353604A07E0D50268D0F827
:103FC00034C0536823F4802343EA0C0353600A0788
:103FD000D7D50268D0F838C0536823F4004343EAC9
:103FE0000C035360CA06CED50268D0F83CC0936873
:103FF00023F4805343EA0C0393608A06C5D5026814
:10400000D0F840C0936823F4005343EA0C03936054
:104010004A0612D50268D0F844C0BCF5801F536828
:1040200023F4801343EA0C03536006D1536823F44E
:10403000C00C836C43EA0C035360090658BF7047F9
:104040000168C06C4A6822F400221043486070473F
:10405000B0B582B004460020C4F88C00FDF7B4FB74
:1040600021680546096809070AD54FF400110022A6
:104070006FF07E40009020462B4600F0E5FA70B9C4
:104080002068006840070DD54FF4800100226FF0D2
:104090007E40009020462B4600F0D6FA10B1032057
:1040A00002B0B0BD2020C4F88400C4F8880000200D
:1040B000E06684F8800002B0B0BD0000000000009F
:1040C000F0B583B004460368806846F6F316D4E979
:1040D0000312104362691043E2691F68CCF6FF7651
:1040E000104307EA06021043186058684FF2FF4772
:1040F00020F4405240F6004011435960C5F60000DC
:10410000A1698342C1F2FF171CBF226A11439A685A
:1041100047F2FF763A40C4F2000611439960DA6A2A
:1041200044F2544122F00F02676AC5F602013A4395
:10413000B342DA624FF0800225DD40F6FF77C4F229
:104140000107BB423FDD834200F0718041F200472E
:10415000C4F20107BB4200F0758041F20007C4F2CF
:104160000107BB4240F0A5800A68C2F3C203052BD9
:1041700000F296800122DFE813F09C009100950088
:10418000970099009B0044F6FF37C4F20007BB423A
:1041900033DC44F20047C4F20007BB4200F05D800C
:1041A00044F60007C4F20007BB4240F082800A6870
:1041B00002F00703052B00F273800022DFE803F012
:1041C000796E7274767847F60007C4F20007BB4236
:1041D00000F04E8047F60047C4F20007BB4240F0B3
:1041E00068800A6802F00703052B00F2598000225C
:1041F000DFE803F05F54585A5C5E44F60047C4F2AF
:104200000007BB4200F03F8045F20007C4F2000700
:10421000BB4240F04E800A6802F00703052B00F213
:104220003F800022DFE803F0453A3E4042444A68BE
:1042300002F00703052B33D80222DFE803F03A2F00
:10424000333537390A68C2F3C203052B28D8012257
:10425000DFE803F02F24282A2C2E0A6802F0070337
:10426000052B1DD80022DFE803F024191D1F212390
:104270000A6802F00703052B12D80022DFE803F0DA
:10428000190E121416180A6802F00703052B07D836
:104290000022DFE803F00E0307090B0D042208E0FB
:1042A000802206E0082204E0102202E0202200E042
:1042B00040222368834240F60010C0F23D0000F027
:1042C0005380E369B3F5004F40F07880402A00F254
:1042D0001A810025DFE812F04100120117011701D1
:1042E0001B011701170117011F0117011701170102
:1042F00017011701170117012601170117011701EF
:1043000017011701170117011701170117011701ED
:1043100017011701170117013401170117011701C0
:1043200017011701170117011701170117011701CD
:1043300017011701170117011701170117011701BD
:1043400017011701170117011701170117011701AD
:10435000170117011701170131010025FEF71CFB9A
:10436000002840F0EF8049E1931E1E2B00F274807C
:104370000027DFE813F01F0077007A00770077004E
:1043800077007E007700770077007700770077006E
:104390007700B80077007700770077007700770024
:1043A0007700770077007700770077007700770055
:1043B000770083000027FDF7CFFA5FE0402A00F284
:1043C000E6800025DFE812F04100DE00E300E300B4
:1043D000E700E300E300E300EB00E300E300E300B9
:1043E000E300E300E300E300F200E300E300E300A6
:1043F000E300E300E300E300E300E300E300E300A5
:10440000E300E300E300E3000001E300E300E30076
:10441000E300E300E300E300E300E300E300E30084
:10442000E300E300E300E300E300E300E300E30074
:10443000E300E300E300E300E300E300E300E30064
:10444000E300E300E300E300FD000025FEF7A4FA2B
:10445000002840F0BA80D1E0402A03D14FF4004058
:1044600000270BE00020012708E06846FDF788FAE6
:1044700002E06846FDF718FB0027019878B3616AEF
:1044800044F6AE02C2F204426668012532F81120F9
:1044900006EB4603B0FBF2F19942C0F0AF80330364
:1044A000994200F2AB8000210023FCF760FF090273
:1044B000002341EA10613246000210EB560041F140
:1044C0000001FCF754FF4FF6FF42A0F54071C0F227
:1044D0000F02914205D821683D46C8608EE03D46F6
:1044E0008CE001258AE051F8540C800649F2000066
:1044F000C0F2D03000F18B800027BFE70025FEF727
:104500005FFAF8B97AE000200125D8B976E068466C
:10451000FDF736FA02E06846FDF7C6FA0025019875
:1045200080B96BE051F8540C800649F20000C0F2EB
:10453000D03073D4002528B960E04FF40040002546
:1045400000285BD0616A44F6AE02C2F2044232F83F
:1045500011106268B0FBF1F0510801EB4000B0FBB4
:10456000F2F0A0F110014FF6EF72914208D84FF629
:10457000F07122680140C0F342000844D0603DE081
:1045800001253BE00025FEF71BFAF0B936E00020DC
:104590000125D0B932E06846FDF7F2F902E068463D
:1045A000FDF782FA0025019878B927E051F8540CFC
:1045B000800649F20000C0F2D03039D4002520B97D
:1045C0001CE04FF400400025C0B1616A44F6AE0221
:1045D000C2F2044232F811106268B0FBF1F000EB55
:1045E0005200B0FBF2F0A0F110014FF6EF729142D1
:1045F00003D880B22168C86000E001254FF00110A7
:10460000A0660020C4E91C00284603B0F0BD51F8A4
:10461000541C0027C1F3C101C8402FE751F8541CB6
:104620000025C1F3C101C84000287FF48BAFE5E746
:1046300051F8541C0025C1F3C101C8400028C4D161
:10464000DCE70000000000002DE9F04381B00446E3
:104650000068C0690840401AB0FA80F040099042F2
:1046600064D1DDF820800D461646994608F1010711
:1046700009E000BF2068C0692840401BB0FA80F004
:104680004009B04252D1002FF4D0FDF79DF8B8F1A7
:10469000000F2BD0A0EB0900404527D82068016807
:1046A000490744BFC1695FEA0151E3D54FF4006196
:1046B000016200BF206850E8000F216820F4D0702C
:1046C00041E80002002AF5D1206850E8020F216875
:1046D00020F0010041E80202002AF5D12020C4F8B0
:1046E0008400C4F88800C4F88C0018E0206850E802
:1046F000000F216820F4D07041E80002002AF5D1B3
:10470000206850E8020F216820F0010041E8020211
:10471000002AF5D12020C4F88400C4F888000020C5
:1047200084F88000032001B0BDE8F083002001B0D0
:10473000BDE8F08300000000FEE70000000000007C
:10474000002848BF704700F01F01012202FA01F162
:104750004EF200124009CEF2000242F820107047DB
:104760004EF60C50CEF200000068C0F302207047F5
:104770004EF6145300F00F02CEF20003B0F1FF3FEB
:104780001A4400F16043C8BF03F564420801107089
:1047900070470000000000004EF60C514FF6FF037A
:1047A000CEF200010A681A4060F30A2242F08060EB
:1047B00040F0FD7008607047704700000000000086
:1047C00080B582B0019044F6FC10C2F2044001A909
:1047D00001220A23FEF7A4FF019802B080BD000069
:1047E000FDF70AF8FFF704FAFFF70EF8FFF75CF899
:1047F000FFF72EF800F004F8FEE7000000000000CC
:1048000017A0FCF72DFE44F6B010C2F20440FEF7EC
:104810004FFD002414A5C5F6020416A618A706E04D
:104820003846FCF71DFE4FF4FA70FCF7D9FE042160
:104830002046FCF7B9FF0028F2D12846FCF710FE0D
:10484000EFF3108072B6FDF79FFFFCF78DFE4FF07F
:104850000060FCF777FD3046FCF702FEE0E700BFA2
:104860004150503200000000B0B4BCFCB0B4CFC224
:10487000C1CB0000CCF8D7AACAA7B0DC000000006A
:1048800041505000F1EE100A4FF6FF71C0F2C031F6
:1048900020EA010040F04070E1EE100A704700008D
:1048A00000000102030401020304060708090100D5
:1048B00002000400060008000A000C00100020009E
:1048C000400080000001010101030701000008040D
:1048D0000204080101010000F8480424F8480424F7
:1048E00098070000D41204240090D0030090D00355
:0848F0000100000010000000AF
:040000052404129924
:00000001FF
