:020000040800F2
:10000000D80A00244D030008813F0008213D000864
:10001000793F000829090008E9570008000000009E
:100020000000000000000000000000003947000848
:100030003109000800000000B93F000871470008BE
:1000400067030008670300086703000867030008E8
:1000500067030008670300086703000867030008D8
:1000600067030008670300086703000867030008C8
:1000700067030008670300086703000867030008B8
:1000800067030008670300086703000867030008A8
:100090006703000867030008670300086703000898
:1000A0006703000867030008670300086703000888
:1000B0006703000867030008670300086703000878
:1000C0006703000867030008670300086703000868
:1000D00067030008D9570008670300086703000892
:1000E00067030008670300080000000067030008BA
:1000F0006703000867030008670300086703000838
:100100006703000867030008670300086703000827
:100110006703000867030008670300086703000817
:100120006703000867030008670300086703000807
:1001300067030008670300086703000867030008F7
:1001400000000000000000000000000000000000AF
:1001500067030008670300086703000867030008D7
:1001600067030008670300086703000867030008C7
:1001700067030008670300086703000867030008B7
:1001800067030008670300086703000867030008A7
:100190006703000867030008670300086703000897
:1001A0006703000867030008670300086703000887
:1001B0006703000867030008670300086703000877
:1001C0006703000867030008670300086703000867
:1001D0006703000867030008670300086703000857
:1001E0006703000867030008670300086703000847
:1001F0006703000867030008670300086703000837
:100200006703000867030008670300086703000826
:100210006703000867030008670300086703000816
:100220006703000867030008670300080000000078
:100230006703000867030008000000006703000868
:1002400067030008670300086703000867030008E6
:1002500067030008670300086703000867030008D6
:1002600067030008670300086703000867030008C6
:100270006703000867030008670300080000000028
:100280006703000867030008670300080000000018
:10029000000000006703000800F002F800F047F8D3
:1002A0000AA090E8000C82448344AAF10107DA45D1
:1002B00001D100F03CF8AFF2090EBAE80F0013F0DC
:1002C000010F18BFFB1A43F001031847685D0000D7
:1002D000885D0000103A24BF78C878C1FAD8520768
:1002E00024BF30C830C144BF04680C6070470000B0
:1002F0000023002400250026103A28BF78C1FBD82F
:10030000520728BF30C148BF0B607047642900F016
:10031000F580782900F02E81732900F09F8200205B
:1003200070471FB505F0BDFD1FBD10B510BD00F035
:10033000C7FA1146FFF7F5FF05F0EAFA00F0E5FA13
:1003400003B4FFF7F2FF03BC05F08EFA0C488047B8
:100350000C480047FEE7FEE7FEE7FEE7FEE7FEE7A4
:10036000FEE7FEE7FEE7FEE707480849084A094BB3
:1003700070470000084B1860D0F800D0416808476B
:100380008148000899020008D8040024D80A0024F3
:10039000D8060024D806002408ED00E0704753EA90
:1003A000020C00F069802DE9F04B4FF00006002BA5
:1003B0001FBFB3FA83F503FA05F424FA05F65E408D
:1003C00012BF1643B2FA82F502FA05F4C5F1200510
:1003D0001EBF22FA05FC44EA0C04203556EA044C00
:1003E0004FEA144418BF641C4FF000084FF0000996
:1003F000904271EB030C39D3002919BFB1FA81F790
:1004000001FA07F6B0FA80F700FA07F6C7F12007FD
:100410001EBF20FA07FC46EA0C062037B6FBF4FCA8
:10042000A7EB0507103F07F01F0BCBF120062CFAB6
:1004300006F60CFA0BFB44BFB3460026202FA4BFE0
:100440005E464FF0000B5BEA060C08BF4FF0010B55
:1004500019EB0B0948EB0608ABFB027C06FB02CC50
:100460000BFB03CCC01B71EB0C01C1E70B46024632
:1004700041464846BDE8F08B13B5084318BF4FF01E
:10048000FF300146AFF30080BDE81C40704700001C
:100490000FB4044910B503AA029800F0E3F910BCA8
:1004A0005DF814FB8800002470B50C460546012A4F
:1004B00005D02878800600D5EA69002302E00123F0
:1004C00005E05B1C934202D2E05C0028F9D1A869E8
:1004D000E618C01AA861286A184428622846AFF3B3
:1004E000008004E0D5E9012114F8010B9047B442E3
:1004F000F8D32846AFF3008070BD00002DE9F0412D
:100500000646002410687529314616A510D0AFF3B1
:100510000080002802DA404213A507E031688A070C
:1005200001D512A502E0490704D511A5012401E077
:10053000AFF3008000210A2206F1240709E0B0FB96
:10054000F2FCB0FBF2F302FB1C003030785418468A
:10055000491C0028F3D123462A463046BDE8F04125
:1005600000F011B9000000002D0000002B00000079
:100570002000000070B504460D4621461068AFF318
:1005800000802188090502D50F4A7A4402E00E4A0C
:100590007A440E32002104F1240305E000F00F0636
:1005A0000009965D5E54491C0028F7D1207800238D
:1005B000000704D5702D02D009B102231132204664
:1005C000BDE8704000F0DFB82E5900002DE9F05F63
:1005D000894604464FF0000ADFF824B1FB44C0F816
:1005E00020A02046E168884700287DD0252806D035
:1005F000D4E901219047206A401C2062F1E70025E0
:100600005F462046E16888472028064607DB312EF2
:1006100005D2B81910F8200C08B10543F1E7A80776
:1006200001D525F00405C4F81CA00027C4F818A0C3
:100630002A2E09D0304605F02DFC38B304EB87088C
:10064000303EC8F8186019E059F8041B204604EB46
:1006500087029161E1688847012F064618D1E06959
:10066000002820DA25F020051DE0D8F8180000EB5E
:10067000800006EB40003038C8F818002046E168DA
:100680008847064605F006FC0028EED1012F0AD067
:100690002E2E08D12046E16888477F1C0646022F8F
:1006A00045F02005C4DBA069002803DA404245F08C
:1006B0000105A061E80701D025F01005A6B1A6F15B
:1006C0004100192802D8203645F400654A463146D3
:1006D000204625604D46FFF719FE60B1012807D07E
:1006E000ED1D25F0070000E007E000F1080978E7BC
:1006F00005F1040975E730467AE7206ABDE8F09F06
:100700000459000010B5044603E005F0F1F8401C60
:1007100009D014F8010B05490028F6D1BDE81040B6
:100720000A2005F0E5B84FF0FF3010BD8800002426
:100730004FF0000200B5134694469646203922BF7A
:10074000A0E80C50A0E80C50B1F12001BFF4F7AFC5
:10075000090728BFA0E80C5048BF0CC05DF804EBA7
:10076000890028BF40F8042B08BF704748BF20F815
:10077000022B11F0804F18BF00F8012B7047704713
:100780007047704770472DE9F0470D4699469246ED
:10079000044600F124080168880604D5E06921F0C8
:1007A0001001216000E00120A84201DD471B00E0AC
:1007B0000027A1697A1902EB0900081AA0612078C4
:1007C000C00602D42046AFF30080002608E0D4E93A
:1007D00001211AF806009047206A401C761C20620E
:1007E0004E45F4DB2078C0060AD52046AFF30080E2
:1007F00006E0D4E9012130209047206A401C2062A5
:10080000381EA7F10107F4DC07E0D4E9012118F84C
:1008100005009047206A401C2062281EA5F10105B2
:10082000F3DC2046AFF300802078000602D50220DA
:10083000BDE8F0870120FBE710B5436913B1AFF3C2
:10084000008001E0FFF730FE012010BD127800F1BA
:1008500024010A7000224A700122EDE711684FF06E
:10086000FF32E9E7074B70B50D467B4400F011F805
:100870000446284600F020F810B14FF0FF3070BD5C
:10088000204670BD8350000001694A1C026108784F
:10089000704700B58FB0CDE90131002105910549C0
:1008A0007944CDE9031011466846FFF78FFE0FB07B
:1008B00000BD0000E5FFFFFF007B00F080007047F7
:1008C000754600F02BF8AE4605006946534620F009
:1008D0000700854618B020B5FFF746FDBDE820406B
:1008E0004FF000064FF000074FF000084FF0000BEC
:1008F000AC46ACE8C009ACE8C009ACE8C009ACE85B
:10090000C00921F007018D46704710B50446AFF3CA
:1009100000802046BDE81040FFF712BD0048704738
:100920002800002400000000FEE700000000000096
:100930007047000000000000EFF3108072B600BFA7
:10094000FEE70000000000002DE9F041044600F041
:1009500027FD04B3054694F8350002281ED140F265
:100960000F472068C4F2020740F26F48B842C4F251
:10097000020817DC6F21C4F20201884223DC3F2108
:10098000C4F20201884239DC1021C4F2020188421B
:1009900058D0282151E00120BDE8F0818020606519
:1009A0000120ABE240451ADC40F23F41C4F20201B3
:1009B00088422ADC40F21041C4F20201884241D050
:1009C00040F2284139E09F21C4F20201884225DC2F
:1009D0007021C4F20201884234D088212DE040F217
:1009E0009F41C4F2020188421FDC40F27041C4F210
:1009F0000201884226D040F288411EE04021C4F224
:100A0000020188421ED0582117E040F24041C4F252
:100A10000201884216D040F258410EE0A021C4F2F3
:100A2000020188420ED0B82107E040F2B841C4F27A
:100A30000201884206D040F2A041C4F2020188427D
:100A400040F0EA812668316821F01E02314641F803
:100A5000142B6FF080020B68404502EA03020A6023
:100A600019DC9F21C4F20201884231DC5721C4F213
:100A70000201884256DC1021C4F20201884200F0D3
:100A800091802821C4F20201884200F08B8040212D
:100A9000C4F2020184E045F22F41C5F6020188420A
:100AA0002BDC40F2B741C4F20201884248DC40F23C
:100AB0007041C4F20201884274D040F28841C4F20D
:100AC000020188426ED040F2A041C4F2020167E008
:100AD00040F22741C4F20201884240DCA021C4F266
:100AE000020188425ED0B821C4F20201884259D086
:100AF00040F21041C4F2020152E045F26B41C5F6EA
:100B0000020188423CDC45F23041C5F602018842D0
:100B100048D045F24441C5F60201884242D045F230
:100B200058413BE05821C4F2020188423AD070217A
:100B3000C4F20201884235D08821C4F202012FE0BC
:100B400040F2B841C4F2020188422BD045F208417C
:100B5000C5F60201884225D045F21C411EE040F254
:100B60002841C4F2020188421CD040F24041C4F244
:100B70000201884216D040F25841C4F202010FE04F
:100B800045F26C41C5F6020188420BD045F2944112
:100B9000C5F60201884205D045F28041C5F6020142
:100BA000884269D1216EB8420A6822F480720A60D4
:100BB00010DC6F21C4F2020188421CDC3F21C4F228
:100BC0000201884232DC1021C4F20201884252D074
:100BD00028214AE040451ADC40F23F41C4F20201BC
:100BE00088422ADC40F21041C4F20201884242D01D
:100BF00040F2284139E09F21C4F20201884225DCFD
:100C00007021C4F20201884235D088212DE040F2E3
:100C10009F41C4F2020188421FDC40F27041C4F2DD
:100C20000201884227D040F288411EE04021C4F2F0
:100C3000020188421FD0582117E040F24041C4F21F
:100C40000201884217D040F258410EE0A021C4F2C0
:100C5000020188420FD0B82107E040F2B841C4F247
:100C60000201884207D040F2A041C4F2020188424A
:100C700008BF206800E02068016821F001010160E0
:100C80003068C0070BD000F08BFB401B0628F7D361
:100C900020206065032084F8350001202EE12068C3
:100CA000B84210DC6F21C4F2020188421CDC3F21F3
:100CB000C4F20201884232DC1021C4F202018842EF
:100CC00050D028214AE040451ADC40F23F41C4F2AE
:100CD000020188422ADC40F21041C4F2020188423B
:100CE00040D040F2284139E09F21C4F202018842FD
:100CF00025DC7021C4F20201884233D088212DE026
:100D000040F29F41C4F2020188421FDC40F2704170
:100D1000C4F20201884225D040F288411EE0402101
:100D2000C4F2020188421DD0582117E040F2404130
:100D3000C4F20201884215D040F258410EE0A021D1
:100D4000C4F2020188420DD0B82107E040F2B84158
:100D5000C4F20201884205D040F2A041C4F202016F
:100D600088425ED1D4E9161202F01F023F2303FA33
:100D700002F28A6040455EDC9F21C4F20201884293
:100D800014DC5721C4F20201884226DC1021C4F28F
:100D90000201884200F0A2802821C4F202018842A8
:100DA00000F09C804021C4F2020195E040F227410E
:100DB000C4F2020188421EDCA021C4F20201884272
:100DC00000F08C80B821C4F20201884200F08680D5
:100DD00040F21041C4F202017EE05821C4F2020147
:100DE00088427BD07021C4F20201884276D08821EB
:100DF000C4F2020170E040F22841C4F202018842CC
:100E00006CD040F24041C4F20201884266D040F208
:100E10005841C4F202015FE021686FF00E020E46F5
:100E200019E6D4E9161202F01F02012303FA02F2B6
:100E30004A604045A0DD45F22F41C5F602018842D7
:100E400016DC40F2B741C4F20201884225DC40F2D0
:100E50007041C4F20201884240D040F28841C4F29D
:100E6000020188423AD040F2A041C4F2020133E0CC
:100E700045F26B41C5F6020188421DDC45F2304166
:100E8000C5F60201884229D045F24441C5F6020167
:100E9000884223D045F258411CE040F2B841C4F2E8
:100EA000020188421AD045F20841C5F60201884283
:100EB00014D045F21C410DE045F26C41C5F602012B
:100EC00088420BD045F29441C5F60201884205D014
:100ED00045F28041C5F6020188420BD1616EA26ED7
:100EE000E06E4A6030B1016821F480710160D4E99C
:100EF0001C014160012084F835000020002184F8A5
:100F00003410BDE8F081000080B5D8B190F83510FC
:100F1000022919D140F20F420168C4F20202914243
:100F200016DC6F23C4F20203994226DC3F23C4F28D
:100F3000020399423CDC1023C4F2020399425AD0C6
:100F4000282354E0012080BD80214165012080BD1F
:100F500040F26F43C4F2020399421ADC40F23F436D
:100F6000C4F2020399422ADC40F21043C4F20203A5
:100F7000994240D040F2284339E09F23C4F2020353
:100F8000994225DC7023C4F20203994233D08823AE
:100F90002DE040F29F43C4F2020399421FDC40F26D
:100FA0007043C4F20203994225D040F288431EE008
:100FB0004023C4F2020399421DD0582317E040F2A7
:100FC0004043C4F20203994215D040F258430EE068
:100FD000A023C4F2020399420DD0B82307E040F2E7
:100FE000B843C4F20203994205D040F2A043C4F2D0
:100FF0000203994270D191424FF0040280F83520EB
:1010000010DC6F22C4F20202914220DC3F22C4F2C3
:101010000202914236DC1022C4F20202914254D004
:1010200028224EE040F26F42C4F2020291421ADCE2
:1010300040F23F42C4F2020291422ADC40F21042E6
:10104000C4F20202914240D040F2284239E09F228D
:10105000C4F20202914225DC7022C4F202029142E3
:1010600033D088222DE040F29F42C4F20202914226
:101070001FDC40F27042C4F20202914225D040F2DD
:1010800088421EE04022C4F2020291421DD0582242
:1010900017E040F24042C4F20202914215D040F201
:1010A00058420EE0A022C4F2020291420DD0B822B2
:1010B00007E040F2B842C4F20202914205D040F289
:1010C000A042C4F20202914224D10068016821F0DA
:1010D00001010160002080BD0268136823F00E0347
:1010E000136045F25742C5F6020291420A6822F0A7
:1010F00001020A6014DC45F22F42C5F60202914259
:101100001DDC45F20842C5F6020291422CD045F2A0
:101110001C4225E0086820F001000860002080BD26
:1011200045F27F42C5F60202914211DC45F2584277
:10113000C5F60202914217D045F26C4210E045F22A
:101140003042C5F6020291420ED045F2444207E019
:1011500045F29442C5F60202914205D045F2804222
:10116000C5F6020291421AD1D0E9181CD0E916E363
:101170000A6822F480720A6003F01F01012202FA59
:1011800001F1CEF80410816ECCF80410C16E31B1BB
:101190000A6822F480720A60D0E91C124A600121B8
:1011A00080F83510026D002180F834100AB19047A4
:1011B0000021084680BD0000B0B5044600F0F0F8FC
:1011C00040F220010546C2F20041621C097818BFB6
:1011D0000C4400BF00F0E4F8401BA042FAD3B0BDBD
:1011E0002DE9F04F83B00C68002C00F0C68000F1B0
:1011F000264242F2004702F1FF72C5F602074FEAAB
:10120000B22201920A22B84208BF09220025002713
:101210004FF0010A009209E00C68043734FA0AF230
:101220000AF1010A05F1020500F0A780AAF10109FF
:10123000012202FA09FE14EA0E08EDD0D1F804B03A
:101240000BF00304A4F1010CBCF1010F11D803222F
:101250008668AA40CB6826EA0202AB401A43826045
:10126000CBF30013426822EA0E0203FA09F31A4391
:101270004260032C1ED00323C268AB40022C22EA3A
:1012800003028B6803FA05F342EA0302C26011D13C
:101290006FF0030207F01C0602EA59020F23024412
:1012A00003FA06F4D2F820C00B692CEA0404B34018
:1012B0002343136203230268AB404E689A4306F04F
:1012C0000303AB4016F4403F42EA03020260A3D09E
:1012D00044F2F44340F2084EC5F60203C5F6000E90
:1012E0001A6842F002021A601A6807F00C0302F052
:1012F00002020292029A29F00302019C009E092C2C
:1013000038BF26460F2452F80EC09C402CEA040435
:1013100006FA03F34FF0B04C234342F80E30DCF8EA
:1013200000204B6842EA0806DC0258BF22EA0806A1
:101330009C02CCF8006040F2040CC5F6000CDCF80E
:10134000002042EA080658BF22EA08069C03CCF8AF
:101350000060DCF8802042EA080658BF22EA08064E
:10136000DB03CCF88060DCF87C2042EA080658BF3A
:1013700022EA0806CCF87C604EE703B0BDE8F08FA7
:10138000002A08BF090481617047000000000000C6
:1013900041F20000C5F600400068000C70470000F4
:1013A00040F2D040C2F200400068704700000000E8
:1013B00040F2200040F2D041C2F20040C2F20041AF
:1013C00000780A68104408607047000000000000C0
:1013D00080B5032000F080F801F0FAF844F21841DB
:1013E00045F6F563C5F60201C0F600030A68096810
:1013F00001F00F01C2F30322595C9A5C01F01F0156
:1014000002F01F02D04040F21C02C2F2004220FA59
:1014100001F1116040F21801C2F2004108600F2092
:1014200000F00AF800281CBF012080BD00F030F851
:10143000002080BD00000000B0B540F22001C2F2E3
:101440000041097801B3044640F21800C2F200409E
:101450004FF47A72B2FBF1F10068B0FBF1F002F0E8
:10146000A7F80F2C4FF001050CD858B94FF0FF30FA
:1014700000222146002500F01FF840F22400C2F2AD
:10148000004004602846B0BD0120B0BD000000004F
:1014900081B044F2F440C5F60200016841F0020157
:1014A0000160006800F002000090009801B07047F1
:1014B00080B504F09DF980BD70B514460D46064612
:1014C00004F0A6F92946224602F05EFD01463046A8
:1014D00004F0A6F970BD000080B504F0B5F980BD38
:1014E000B0B544F60C05C5F6020529684907296818
:1014F00005D401F00701081A18BF0120B0BD21F082
:10150000070108432860FFF74BFF044655F8080C15
:10151000800407D4FFF744FF001BB0F57A7FF5D9AC
:101520000120B0BD0020B0BD2DE9F04182B00446DD
:10153000FFF736FF24B3054694F8410038B920463A
:1015400000F04EF841F28831204600F0D5F82068CE
:101550006FF0FF06A1684FF00008A36C026822F448
:10156000706206EB012111430160202100220093EB
:1015700020462B4602F024FD30B102B0BDE8F081D8
:10158000012002B0BDE8F081D4E900124FF62F77B8
:10159000D4E903350E68C0F2FF0737403B43E769E3
:1015A00043EA0262236A3A431A430A604FF6FE0393
:1015B0004A68CFF6E0731A4063691A43A36942EAA6
:1015C00005421A434A600A6842F001020A60C4F800
:1015D0004480012184F8411002B0BDE8F081000090
:1015E0002DE9F047B6B0044602A8BC210025CDE99C
:1015F0003455CDE932553195FFF79AF845F200019F
:101600002068C5F20021884202D036B0BDE8F087DC
:101610004FF00070029002A8149500F0ADF908B1E7
:10162000FFF78AF944F2E04040F20044C5F60200B8
:10163000C5F6020431AD4FF0040950F80C1C4FF010
:10164000020841F4804140F80C1C50F80C1C4FF08B
:10165000000A01F4804101910199016841F01001F3
:1016600001600168032601F01001019101990168F0
:1016700041F0020101600168092701F002010191B6
:101680000199016841F0080101600068294600F0F5
:1016900008000190019804F54060CDF8C490CDF8A1
:1016A000C880CDF8CCA034963597FFF799FD204639
:1016B0002946CDE93198CDE933A63597FFF790FD5E
:1016C00031A94FF46050CDE9346781E8010504F594
:1016D00000602946FFF784FD31A94020349681E857
:1016E00001050A20359020462946FFF779FD36B0DE
:1016F000BDE8F08700000000816470470000000032
:1017000080B500F015FF44F2204145F6F562C5F6BC
:101710000201C0F600020968C1F30211515C01F038
:101720001F01C84080BD000080B544F2384EC5F6A8
:10173000020E5EF8103C5EF8101CC1F3053C5EF82A
:101740000C1CBCF1000FDEF8042014D0C1F3001112
:10175000C2F3CC02514300EE101A03F00301022938
:10176000B8EE400A0CD071B95EF8381C89060DD469
:101770009FED341A18E000218160C0E9001180BD9E
:101780009FED2F1A10E09FED2D1A0DE05EF8381C2A
:1017900049F20002C0F2D032C1F3C10122FA01F1D4
:1017A00001EE101AB8EE411ADEF800109FED263A4D
:1017B0006FF35F2102EE101ADEF80010C1F346212C
:1017C000B8EE422A00EE032A00EE10CAB7EE003A45
:1017D000B8EE400A81EE000A32EE031A02EE101A49
:1017E000B8EE422A20EE010A32EE031A80EE011A08
:1017F000BCEEC11A80ED001ADEF80010C1F30641FC
:1018000001EE101AB8EE411A31EE031A80EE011AF9
:10181000BCEEC11A80ED011ADEF80010C1F30661BA
:1018200001EE101AB8EE411A31EE031A80EE010AE9
:10183000BCEEC00A10EE101A816080BD0024744A0C
:1018400020BCBE4B0024744C000000390000000096
:1018500080B544F2404EC5F6020E5EF8183C5EF8C4
:10186000181CC1F3055C5EF8141CBCF1000FDEF817
:10187000042014D0C1F30021C2F3CC02514300EE86
:10188000101A03F003010229B8EE400A0CD071B916
:101890005EF8401C89060DD49FED341A18E0002133
:1018A0008160C0E9001180BD9FED2F1A10E09FED0F
:1018B0002D1A0DE05EF8401C49F20002C0F2D03251
:1018C000C1F3C10122FA01F101EE101AB8EE411A7A
:1018D000DEF800109FED263A6FF35F2102EE101A3A
:1018E000DEF80010C1F34621B8EE422A00EE032ACA
:1018F00000EE10CAB7EE003AB8EE400A81EE000AD8
:1019000032EE031A02EE101AB8EE422A20EE010A55
:1019100032EE031A80EE011ABCEEC11A80ED001AF5
:10192000DEF80010C1F3064101EE101AB8EE411ABC
:1019300031EE031A80EE011ABCEEC11A80ED011AD5
:10194000DEF80010C1F3066101EE101AB8EE411A7C
:1019500031EE031A80EE010ABCEEC00A10EE101A36
:10196000816080BD0024744A20BCBE4B0024744CAE
:1019700000000039000000002DE9F04381B004466A
:10198000C07844F22C490007C5F6020901D40026AC
:101990002DE0606E4FEA305003280DD80026DFE8B6
:1019A00000F0020E1613D9F80000002640F40030B3
:1019B000C9F800004EB912E0012636B90FE0201D2B
:1019C000022102F035FB06464EB1B04611E004F1AB
:1019D0002400022102F0BCFB0646002EF5D1D9F806
:1019E0002400616E20F440100843C9F824004FF031
:1019F00000086078C0072FD0606D042807D8DFE8A2
:101A000000F00A131B030300F6B1B04624E00126E0
:101A1000002EFAD118E0D9F8000040F40030C9F8DF
:101A20000000002EF1D10FE0201D002102F000FB8C
:101A30000646002EE9D107E004F12400002102F05F
:101A400087FB0646002EE0D1D9F82400616D20F016
:101A500007000843C9F824006078800731D5A06DDD
:101A60004FEAB010042807D8DFE800F00A131B0380
:101A70000300F6B1B04624E00126002EFAD118E0AA
:101A8000D9F8000040F40030C9F80000002EF1D170
:101A90000FE0201D002102F0CBFA0646002EE9D10E
:101AA00007E004F12400002102F052FB0646002E5C
:101AB000E0D1D9F82400A16D20F4E0700843C9F802
:101AC00024006078400733D5D4F8A4004FEA705062
:101AD000042807D8DFE800F00A131B030300F6B15F
:101AE000B04625E00126002EFAD118E0D9F8000012
:101AF00040F40030C9F80000002EF1D10FE0201DA5
:101B0000002102F095FA0646002EE9D107E004F123
:101B10002400002102F01CFB0646002EE0D1D9F87B
:101B20002C00D4F8A41020F460000843C9F82C005D
:101B30006078000733D5D4F8A8004FEA3060042855
:101B400007D8DFE800F00A131B030300F6B1B04624
:101B500025E00126002EFAD118E0D9F8000040F463
:101B60000030C9F80000002EF1D10FE0201D002147
:101B700002F05EFA0646002EE9D107E004F12400E7
:101B8000002102F0E5FA0646002EE0D1D9F82C003B
:101B9000D4F8A81020F0E0600843C9F82C00E078E1
:101BA000800727D5A06C4FEA3010032806D8DFE85D
:101BB00000F002091202AEB1B0461BE00126002E71
:101BC000FAD10FE0D9F8000040F40030C9F8000065
:101BD000002EF1D106E0201D022102F029FA06466E
:101BE000002EE9D1D9F82000A16C20F03000084384
:101BF000C9F820006078C00631D5E06D4FEA30307A
:101C0000042807D8DFE800F00A131B030300F6B12D
:101C1000B04624E00126002EFAD118E0D9F80000E1
:101C200040F40030C9F80000002EF1D10FE0201D73
:101C3000002102F0FDF90646002EE9D107E004F18B
:101C40002400002102F084FA0646002EE0D1D9F8E3
:101C50002400E16D20F4E0400843C9F824006078D6
:101C6000800625D5206E4FEA3040052807D8DFE8EA
:101C700000F0030A0F03030396B1B04618E00126F3
:101C8000002EFAD10CE0201D012102F0D1F904E070
:101C900004F12400012102F05BFA0646002EECD18B
:101CA000D9F82400216E20F4E0200843C9F824006C
:101CB0006078400627D5D4F8AC004FEA307005288C
:101CC00007D8DFE800F0030A0F03030396B1B0461C
:101CD00019E00126002EFAD10CE0201D012102F0AE
:101CE000A7F904E004F12400012102F031FA0646CC
:101CF000002EECD1D9F82C00D4F8AC1020F0E04044
:101D00000843C9F82C00607800061FD5E06ED0B1FA
:101D1000B0F1005F12D0B0F1805F24D1D9F800009B
:101D200040F40030C9F800007EB9D9F82400E16E13
:101D300020F040500843C9F8240007E0201D01218D
:101D400002F076F90646002EEFD0B046E078C007E4
:101D500029D0606C03280AD8DFE800F0020D1602D3
:101D6000CEB1B0461FE00126002EEED1DDE7012600
:101D7000002EF6D10FE0D9F8000040F40030C9F889
:101D80000000002EEDD106E0201D022102F050F9E6
:101D90000646002EE5D1D9F82000616C20F0030042
:101DA0000843C9F82000A078400643D5D9F8D403E9
:101DB00040F48070C9F8D403FFF7F2FA074600BF79
:101DC000D9F8D403C00505D4FFF7EAFAC01B65288B
:101DD000F6D303266EBBD9F84410D4F8B0004140C6
:101DE00011F4407F11D0D9F84410D9F8442042F4BE
:101DF0008032C9F84420D9F8442021F4407122F4FB
:101E00008032C9F84420C9F84410B0F5807F0FD162
:101E1000FFF7C6FA074641F2893500BFD9F84400FA
:101E2000800705D4FFF7BCFAC01BA842F6D30326EF
:101E300086B1B0462078C00741D0A06F4FEAF000CD
:101E4000052823D8DFE800F003262B03030376B32D
:101E5000B04634E04FF6CF73D4F8B00059F81C2CDC
:101E6000C0F2FF0300F4407122F47C5203EA101325
:101E7000B1F5407F08BF1A436FF31F3049F81C2C9F
:101E8000D9F844100843C9F84400D3E70126002ECE
:101E9000DED10CE0201D012102F0CAF804E004F1BB
:101EA0002400012102F054F90646002ED0D1D9F8C1
:101EB0002800A16F20F038000843C9F828002078D6
:101EC000800723D5606F052807D8DFE800F0030AF4
:101ED0000F03030396B1B04618E00126002EFAD195
:101EE0000CE0201D012102F0A3F804E004F124001D
:101EF000012102F02DF90646002EECD1D9F8280078
:101F0000616F20F007000843C9F8280020784007D7
:101F100025D5D4F89000052807D8DFE800F0030A9B
:101F20000F03030396B1B04619E00126002EFAD143
:101F30000CE0201D012102F07BF804E004F12400F4
:101F4000012102F005F90646002EECD1D9F82C004B
:101F5000D4F8901020F007000843C9F82C0020782E
:101F6000800627D5D4F88C004FEA3070052807D8B2
:101F7000DFE800F0030A0F03030396B1B04619E04F
:101F80000126002EFAD10CE0201D002102F050F8AD
:101F900004E004F12400022102F0DAF80646002EE3
:101FA000ECD1D9F82800D4F88C1020F0E040084398
:101FB000C9F828002078400627D5D4F898004FEAC1
:101FC000B020052807D8DFE800F0030A0F03030359
:101FD00096B1B04619E00126002EFAD10CE0201D82
:101FE000002102F025F804E004F12400022102F0AF
:101FF000AFF80646002EECD1D9F82C00D4F8981092
:1020000020F4E0500843C9F82C002078000627D5BA
:10201000D4F89C004FEA7030052807D8DFE800F0BC
:10202000030A0F03030396B1B04619E00126002E00
:10203000FAD10CE0201D002101F0FAFF04E004F1C8
:102040002400022102F084F80646002EECD1D9F8D3
:102050002C00D4F89C1020F460400843C9F82C00F0
:102060002078000716D5D4F88000B0F5805F08D13D
:1020700004F12400022102F06BF8002818BF4FF091
:102080000108D9F82800D4F8801020F44050084303
:10209000C9F828002078C00616D5D4F89400B0F509
:1020A000807F08D104F12400022102F051F80028B9
:1020B00018BF4FF00108D9F82C00D4F8941020F480
:1020C00040700843C9F82C00A078000721D5D4F847
:1020D000A000B0F5003F19D0B0F5803F10D0C0BBD4
:1020E000201D002101F0A4FF06468EB9D9F82C006E
:1020F000D4F8A01020F440300843C9F82C0008E0C0
:1021000004F12400022102F023F80646002EEDD04F
:10211000B046A078400729D5D4F88400B0F5401F18
:1021200021D0B0F5001F18D0B0F5801F40F0C1805D
:10213000D9F8000040F40030C9F80000AEB9D9F871
:102140002800D4F8841020F440100843C9F828006F
:102150000CE00126002EDBD1C8E704F124000121A8
:1021600001F0F6FF0646002EE9D0B046A078C00781
:102170001FD0E06CB0F5803F10D0B0B9D9F80000A6
:1021800040F40030C9F8000096B9D9F82000E16C9D
:1021900020F480300843C9F820000AE0201D022105
:1021A00001F046FF06461EB9EFE70126002EECD0EF
:1021B000B046E078800608D504F12400022101F041
:1021C000C7FF002818BF4FF00108206881031ED404
:1021D000C10234D4C1003CD4810245D441004DD465
:1021E000B0F1FF3F5ADD000208D5D9F82800D4F835
:1021F000881020F440000843C9F82800B8F1000F07
:1022000018BF4FF00108404601B0BDE8F083E16F10
:102210006FF0010202EB3122022A0AD34FEA312287
:102220003AB1012A4AD1D9F8002042F40032C9F863
:102230000020002E45D04FF00108C102CAD5D9F8C0
:102240002410226F21F000411143C9F82410C1006D
:10225000C2D559F81C1CD4F8B42021F48041114394
:1022600049F81C1C8102B9D5D9F82410A26E21F0BE
:1022700080711143C9F824104100B1D559F81C1CD4
:1022800021F4004149F81C1CD4F8B81059F81C2C52
:10229000114349F81C1CB0F1FF3FA4DCD9F8201011
:1022A000226D21F040511143C9F820100002A5D53C
:1022B0009BE70126002E7FF458AF40E70126002E51
:1022C000B9D1D9F8282022F440721143C9F8281056
:1022D000C1027FF57FAFB2E72DE9F04381B000285E
:1022E00000F0F48042F200080446C5F20028894656
:1022F000D8F8000000F00F0088420ED2D8F8000095
:1023000020F00F0040EA0900C8F80000D8F80000EB
:1023100000F00F00484540F0D980206844F218478B
:102320004107C5F602070AD521693A6802F0700232
:10233000914204D93A6822F07002114339600107D2
:102340000AD561697A6802F07002914204D97A680C
:1023500022F0700211437960C1060AD5A1697A683A
:1023600002F4E062914204D97A6822F4E0621143F7
:10237000796081060AD5E169BA6802F0700291427B
:1023800004D9BA6822F070021143B96081070AD5F6
:10239000E1683A6802F00F02914204D93A6822F0EB
:1023A0000F0211433960C0077ED1206881070AD52A
:1023B000E1683A6802F00F02914204D23A6822F0D2
:1023C0000F0211433960D8F8001001F00F014945A0
:1023D0000DD9D8F8001021F00F0141EA0901C8F821
:1023E0000010D8F8001001F00F0149456ED14107E7
:1023F0000AD521693A6802F07002914204D23A6823
:1024000022F070021143396001070AD561697A68C8
:1024100002F07002914204D27A6822F070021143F5
:102420007960C1060AD5A1697A6802F4E062914236
:1024300004D27A6822F4E0621143796080060AD5FA
:10244000E069B96801F07001884204D2B96821F0EE
:1024500070010843B86000F0BBF8396845F6F562D2
:10246000C0F600023B68C1F3032103F00F03515C87
:10247000D25C01F01F01C84002F01F0140F21C02B3
:1024800020FA01F1C2F20042116040F2180140F25C
:102490002402C2F20041C2F2004208601068FEF756
:1024A000CBFF01B0BDE8F083386820F47061D4E957
:1024B0000102012841EA020139600BD003282BD028
:1024C00002282ED157F8181C890307D4012001B027
:1024D000BDE8F08357F8181CC905F7D557F8081C54
:1024E00021F00701084347F8080CFEF759FF06469C
:1024F00041F2883557F8080C616800F03800B0EBFD
:10250000C10F3FF452AFFEF74BFF801BA842F1D939
:10251000032001B0BDE8F08357F8181C8901D5D518
:10252000DCE757F8181C4907D0D5D7E700000000B2
:1025300080B500F04DF844F2184145F6F563C5F654
:102540000201C0F600030A68096801F00F01C2F336
:102550000322595C9A5C02F01F0220FA02F201F099
:102560001F0040F21C0122FA00F0C2F20041086094
:1025700040F21801C2F200410A6080BD0000000074
:1025800080B5FFF7D5FF44F21C4145F6F562C5F66C
:102590000201C0F600020968C1F30211515C01F0AA
:1025A0001F01C84080BD000080B5FFF7C1FF44F2A5
:1025B0001C4145F6F562C5F60201C0F60002096845
:1025C000C1F30221515C01F01F01C84080BD000031
:1025D00044F20041C5F602010869C0F3C2000328B5
:1025E0000FD002282AD070BB0868800649F200008C
:1025F000C0F2D03058BF70470968C1F3C101C8406C
:1026000070478A6A886AC0F3051CC86ABCF1000F6B
:102610004B6B1DD0C3F3CC0300F00100584302F014
:102620000302022A00EE100AB8EE400A12D0A2B944
:102630000868800614D49FED261A1EE047F6400075
:10264000C0F27D10704740F60010C0F23D007047A8
:10265000002070479FED1D1A0FE09FED1B1A0CE044
:10266000086849F20002C0F2D032C0F3C10022FA79
:1026700000F001EE100AB8EE411A086B9FED153A12
:102680006FF35F2002EE100A086BC0F34620B8EE2D
:10269000422A013000EE032A00EE10CAB7EE003ADB
:1026A000B8EE400A81EE000A32EE031A20EE010A6B
:1026B00001EE100AB8EE411A80EE010ABCEEC00A23
:1026C00010EE100A704700BF0024744A20BCBE4BB5
:1026D0000024744C000000392DE9F04381B0F8B1BA
:1026E0008046007844F20049C007C5F602095AD076
:1026F000D9F8100000F03801D9F82800102905D0C9
:1027000018290FD100F0030002280BD1D9F80000DE
:10271000800344D5D8F80400002840D101272FE0D9
:10272000012735E2D8F804402CB1B4F5A02F0DD024
:10273000B4F5803F10D0D9F8000020F48030C9F8FB
:102740000000D9F8000020F4802009E0D9F800004A
:1027500040F48020C9F80000D9F8000040F480302F
:10276000C9F80000FEF71CFE0546A4B1D9F8000028
:10277000800314D4FEF714FE401B6428F6D9032707
:102780000020002800F004820DE000BFFEF708FEE4
:10279000401B6428F3D8D9F800008003F6D4012048
:1027A000002800F0F58198F80000800740F184804F
:1027B000D9F8100010F03801D9F828001CD01829D9
:1027C00008BF5FEA807017D0D8F80C00D9F8001065
:1027D000002847D021F019010843C9F80000FEF78E
:1027E000DFFD0546D9F8000040072AD4FEF7D8FDE2
:1027F000401B0228F6D91EE0D9F80000400704D596
:10280000D8F80C00002800F09181D9F80000D8F821
:102810000C1020F019000843C9F80000FEF7C0FDB5
:10282000054600BFD9F8000040070AD4FEF7B8FDFE
:10283000401B0228F6D903270024002C00F0A881B1
:102840003AE0FEF7A5FD41F20301884223D8D8F80B
:102850001000D9F80410402821F47C3124D141F42F
:10286000003023E021F00100C9F80000FEF798FDD8
:1028700005460126D9F8000010F0040086EA90040D
:1028800017D0FEF78DFD401B0328F3D30327002C40
:1028900000F07E8110E0D9F80400D8F8101020F084
:1028A000FE4040EA016001E041EA0030C9F804005E
:1028B0000124002C00F06C8198F80000C00674D54B
:1028C000D9F8100000F03801D9F82800082905D0FF
:1028D00018291CD100F00300012818D1D9F80000F4
:1028E000C00503D5D8F81C00802859D1FEF750FD4B
:1028F00041F20301884222D8D8F82000D9F8041008
:10290000202821F0F84142D141F0804041E0D8F840
:102910001C000028D9F8000020D040F08000C9F841
:102920000000FEF73DFD0546D9F80000C005DDD4E6
:10293000FEF736FD401B0228F6D9032731E0D9F80F
:102940000C00D8F8201020F07C50012440EA0160EF
:10295000C9F80C00002C00F01B8126E020F080005C
:10296000C9F80000FEF71CFD05460126D9F8000055
:1029700010F4807086EA10240ED0FEF711FD401B83
:102980000328F3D30327002C00F002810DE041EA75
:102990008060C9F804000124002C00F0F98004E0F4
:1029A00001270024002C00F0F38098F800000007B5
:1029B0001CD498F80000800631D498F80000400735
:1029C00045D4D8F82440002C00F0E180D9F810005C
:1029D00000F03800182840F08880012CD9F8281021
:1029E000D9F8300040F0A4800127D1E0D8F81400D5
:1029F0000028D9F874003ED040F00100C9F87400F6
:102A0000FEF7CEFC054600BFD9F874008007D0D48D
:102A1000FEF7C6FC401B0228F6D90327B8E0D8F819
:102A200018000028D9F800004BD040F48050C9F8B5
:102A30000000FEF7B5FC0546D9F800008004BCD4C0
:102A4000FEF7AEFC401B0228F6D90327A0E0D9F818
:102A5000000440F48070C9F80004FEF7A1FC0546AC
:102A6000D9F80004C0051AD4FEF79AFC401B64286C
:102A7000F6D903278CE020F00100C9F87400FEF7B6
:102A80008FFC0546032700BFD9F8740080077FF547
:102A900090AFFEF785FC401B0228F5D978E0D8F806
:102AA00008401CB1052C77D0012C7BD0D9F87000E0
:102AB00020F00100C9F87000D9F8700020F004007F
:102AC00074E020F48050C9F80000FEF769FC054668
:102AD000032700BFD9F8000080047FF56EAFFEF732
:102AE0005FFC401B0228F5D952E0D9F8000020F025
:102AF0008070C9F80000FEF753FC022C05464FF029
:102B0000030709D1D9F80000800171D5FEF748FC10
:102B1000401B0228F6D93BE0D9F80000800136D5E9
:102B2000FEF73EFC401B0228F6D931E0012783E680
:102B300001F00302D8F828309A4240F0D380C1F364
:102B40000511D8F82C20914240F0CE800146D8F8EB
:102B500030206FF35F21013A914240F0C780C0F30B
:102B60004622D8F8341001398A4240F0C180C0F3BF
:102B70000642D8F8381001398A4240F0BB80C0F3D1
:102B80000660D8F83C100139884240F0B580002733
:102B9000F8B201B0BDE8F083D9F8700040F004004D
:102BA000C9F87000D9F8700040F00100C9F8700051
:102BB000FEF7F6FB002C054641F288344FF0030780
:102BC00011D000BFD9F8700080073FF5FAAEFEF7CC
:102BD000E7FB401BA042F5D9DAE700BFFEF7E0FBB8
:102BE000401BA042D4D8D9F870008007F6D4E8E69C
:102BF00008F12807D9F8280040F2F33188438ECF36
:102C00000843591E40EA02104FF47E426FF35F21E1
:102C1000C9F8280002EB47204FF4FE0280B2D8F832
:102C20003C300844D8F8381002EB01414FF0FE4226
:102C300001F4FE0102EB0362084402F0FE41084485
:102C4000C9F83000D9F82C004FF6F87120F00100D7
:102C5000C9F82C00D9F83400D8F84820884340EA55
:102C6000C200C9F83400D9F82C00D8F8401020F080
:102C70000C000843C9F82C00D9F82C00D8F84410EF
:102C800020F002000843C9F82C00D9F82C0040F4C9
:102C90008030C9F82C00D9F82C0040F40030C9F875
:102CA0002C00D9F82C0040F48020C9F82C00D9F869
:102CB0002C0040F00100C9F82C00D9F8000040F0C9
:102CC0008070C9F80000FEF76BFB04460327D9F8B3
:102CD000000080013FF55BAFFEF762FB001B02289E
:102CE000F5D955E7012753E7012751E701274FE7BA
:102CF00001274DE701274BE7012749E700000000C6
:102D00002DE9F041002800F0A580044643F60006B6
:102D1000C4F2000643F20007256843F60048B542B6
:102D2000C4F20107C4F200084FF00000A06204D012
:102D3000454518BFBD4240F08980204601F0D8FCCF
:102D4000B54218BFBD4274D1102800F2838094F8B8
:102D5000810028B9002084F88000204600F080F827
:102D6000022084F881002068A1690268B1F1806FB7
:102D700022F001020260826802F4F8120FD1636847
:102D80002BB1B3F5800F0AD1A76B27B13BB9A36B69
:102D9000B3F1805F03D1036843F480530360E369B8
:102DA000A76A1A43E36B3A431343D4E90365D4E9B2
:102DB000012733438360636B666A41EA0301A36BB7
:102DC00041EA060141EA0301636941EA0501266A15
:102DD00041EA0301E36C41EA0601A66C41EA020103
:102DE00041EA0301A36D41EA070141EA060141EA14
:102DF0000301C1604AB98168012363F3CC2181607A
:102E00008168022363F34A218160016D520221F03F
:102E10000101016505D5C168626D21F000411143D2
:102E2000C1600020C4F88400012184F88110BDE84D
:102E3000F081454518BF08280CD8B54218BFBD42DF
:102E40003FF482AF45453FF47FAF80E7E0680F284D
:102E50007FF673AF0120BDE8F081000000000000A4
:102E6000B0B5B6B0044602A8BC210025CDE9345562
:102E7000CDE932553195FDF75BFC43F60001206842
:102E8000C4F20001884201D036B0B0BD4FF480508A
:102E9000029002A81995FEF76FFD08B1FDF74CFDF1
:102EA00044F2E040C5F60200816841F4804181604F
:102EB000816801F4804101910199016841F00201AA
:102EC0000160006831A900F00200019001984FF400
:102ED00060403190022032900020339003203490E3
:102EE0000520359040F20040C5F60200FEF778F963
:102EF00036B0B0BD000000002DE9F04381B00446BB
:102F00004068B0F5800F994617460E46256801D1F6
:102F1000A068F0B194F88000012816D0012084F850
:102F20008000FEF73DFA94F8811001290AD1002EA5
:102F300018BF002F1BD1002084F88000012001B0B1
:102F4000BDE8F083002084F88000022001B0BDE8D5
:102F5000F083042084F881002046314632463B4607
:102F6000CDF8009000F0ECF901B0BDE8F0838046A8
:102F7000042084F881000020C4F884006666A4F868
:102F80006870A4F86A70E065A4F86000A4F86200B4
:102F9000A1682067B1F5C02F606704D1206801687F
:102FA00021F400610160D4E900014FF6FF73B1F52F
:102FB000800F426822EA03023A444260026842F00B
:102FC0000101016003D1016841F400710160E16811
:102FD000102924D3B4F86A00002876D048F20805F6
:102FE00009F101060EE000BF006B616E41F8040BB1
:102FF0006166B4F86A000138A4F86A00B4F86A009F
:10300000002862D0206841692942EDD1FEF7C8F955
:10301000002EF3D0A0EB08004845EFD342E0B4F80F
:103020006A0007291FD900284FD009F101060DE0D9
:10303000288E616E21F8020B6166B4F86A000138CF
:10304000A4F86A00B4F86A0000283ED020684069FD
:10305000C007EDD1FEF7A4F9002EF3D0A0EB0800D5
:103060004845EFD31EE080B309F101050EE090F86A
:103070003000616E0870606E01306066B4F86A00FE
:103080000138A4F86A00B4F86A00F0B12068416918
:10309000C907ECD1FEF784F9002DF4D0A0EB0800AD
:1030A0004845F0D3204601F0E3F8002084F8800082
:1030B000D4F8840040F48070C4F88400012084F8BF
:1030C0008100032001B0BDE8F083204601F0D0F874
:1030D000002084F88000012084F88100D4F8840066
:1030E000002818BF012001B0BDE8F08300000000F7
:1030F0002DE9F047044690F88000012802D1022013
:10310000BDE8F0871D4617460E46D4F80090012012
:1031100084F88000FEF744F994F88110012909D160
:10312000002E18BF002F0BD1002084F88000012052
:10313000BDE8F087002084F880000220BDE8F08719
:103140008046032084F881000020C4F88400E665EE
:10315000A4F86070A4F862706066A4F86800A4F82F
:103160006A00A1682067B1F5C02F606704D12068AC
:10317000016841F400610160D4E900014FF6FF737A
:10318000B1F5800F426822EA03023A4442600268C5
:1031900042F00101016003D1016841F40071016056
:1031A000E168102933D3B4F86200002800F0AA8047
:1031B0006E1C0EE0E16D51F8042B0262E165B4F87B
:1031C00062000138A4F86200B4F86200002800F040
:1031D0009980206841698907ECD4FEF7E1F8002E58
:1031E000F2D0A0EB0800A842EED3204601F040F850
:1031F000002084F88000D4F8840040F48070C4F883
:103200008400012084F881000320BDE8F087B4F831
:103210006200072933D9002874D04FF6FE706E1C67
:10322000471C11E0E06D39460088A9F82000022013
:10323000E26D1044E065B4F862000844A4F862004E
:10324000B4F8620000285DD020684169890708D47D
:10325000FEF7A6F8002EF3D0A0EB0800A842EFD3AB
:10326000C3E7B4F862100229DCD3E16B0029D9D09E
:10327000E16D0968016204204FF6FE71D8E700286D
:1032800040D04FF6FE706E1CA0F1020A471C10E001
:10329000E16D097880F8201001203946E26D104474
:1032A000E065B4F862000844A4F86200B4F8620073
:1032B00040B320684169890708D4FEF771F8002EF1
:1032C000F4D0A0EB0800A842F0D38EE7B4F8621067
:1032D000042908D3E16B412905D3E16D0968016236
:1032E00004205146DAE7B4F862100229D0D3E16B2A
:1032F0000029CDD0E06D4FF6FE710088A9F82000BE
:103300000220CBE7204641462A4601F0FDF928B1CC
:10331000D4F8840040F02000C4F88400204600F077
:10332000A7FF002084F88000012084F88100D4F8F1
:103330008400002818BF0120BDE8F08700000000CD
:103340002DE9F047044690F88000012802D10220C0
:10335000BDE8F0871F4615460E46D4F800900120C0
:1033600084F88000FEF71CF894F88110804601294B
:103370000AD11EB1002D18BF002F14D1002084F8EF
:1033800080000120BDE8F0876068B0F5800F04D1AF
:10339000042902D1A0680028EBD0002084F8800026
:1033A0000220BDE8F08794F88100042802D00520AF
:1033B00084F881000021C4F8841065664FF6FF731D
:1033C000A4F86A70A4F86870E665A4F862702068D2
:1033D000A4F860702167616761684268B1F5800F89
:1033E00022EA03023A444260026842F001010160AD
:1033F00003D1016841F400710160E068DDF820A0AC
:10340000102837D348F208090AF101053E4600BFEB
:1034100056EA070000F0AF802068002F416918BF0E
:1034200011F002010BD0E16D51F8042B0262E1654D
:10343000B4F862100139A4F86210B4F862704169FE
:10344000002E18BF11EA09010BD0006B616E41F824
:10345000040B6166B4F86A000138A4F86A00B4F895
:103460006A60FDF79DFF002DD2D0A0EB080050450B
:10347000CED36EE00AF101053E46072834D900BFDD
:1034800056EA070077D02068002F416918BF11F075
:1034900002010CD0E16D31F8022BA9F82020E16582
:1034A000B4F862100139A4F86210B4F8627040698F
:1034B000002E18BF10F001000CD0B9F83000616E7A
:1034C00021F8020B6166B4F86A000138A4F86A00BA
:1034D000B4F86A60FDF764FF002DD1D0A0EB0800BE
:1034E0005045CDD335E000BF56EA070043D02068F1
:1034F000002F416918BF11F002010DD0E16D09786C
:1035000080F82010E06D0130E065B4F86200013809
:10351000A4F86200B4F862702068002E416918BFF8
:1035200011F001010DD090F83000616E0870606EEE
:1035300001306066B4F86A000138A4F86A00B4F893
:103540006A60FDF72DFF002DCED0A0EB080050459E
:10355000CAD3204600F08CFE002084F88000D4F806
:10356000840040F48070C4F88400012084F8810055
:103570000320BDE8F08720464146524601F0C4F8DA
:1035800028B1D4F8840040F02000C4F8840020461C
:1035900000F06EFE002084F88000012084F8810095
:1035A000D4F88400002818BF0120BDE8F08700008F
:1035B00080B501F0C5F880BD90F88010012901D1D7
:1035C000022070472421C0F8841002681368116833
:1035D00023F0005321F001011160002141661360C6
:1035E0002022C0F8842080F8801008467047000030
:1035F000704700000000000070470000000000005D
:10360000B0B5044690F88000012801D10220B0BD79
:10361000012084F880002420C4F884002068056814
:10362000026822F001020260826822F060621143A7
:103630008160204601F08CF9206805602020C4F8E4
:103640008400002084F88000B0BD0000000000006D
:10365000B0B5044690F88000012801D10220B0BD29
:10366000012084F880002420C4F8840020680568C4
:10367000026822F001020260826822F06042114377
:103680008160204601F064F9206805602020C4F8BC
:103690008400002084F88000B0BD0000000000001D
:1036A00070470000000000007047000000000000AC
:1036B0007047000000000000B0B50368044640F603
:1036C0002F00D9691D680840D3F808E020280CD1E4
:1036D00005F020020EF08050801806D0216F0029DE
:1036E00000F0B18020468847B0BD40F60F0008408A
:1036F00000F09080012040F22012C1F20000C0F2E0
:1037000000420EEA000C05EA020010EB0C0000F08B
:103710008180C80718BF15F4807007D00120186297
:10372000D4F88C0040F00100C4F88C0088070EF03B
:10373000010208D53AB102201862D4F88C0040F09A
:103740000400C4F88C00480708D53AB10420186278
:10375000D4F88C0040F00200C4F88C0008070CD5A7
:1037600005F0200050EA0C0007D008201862D4F8B9
:103770008C0040F00800C4F88C0008050BD515F04B
:10378000806008D04FF400601862D4F88C0040F0DC
:103790002000C4F88C00D4F88C00002853D011F01D
:1037A000200009D005F020000EF08051401803D011
:1037B000216F09B1204688472068D4F88C1001F0A9
:1037C0002801806800F04000401800F0A9802046E1
:1037D00001F09EF920688068400640F1918000BFAA
:1037E000206850E8020F216820F0400041E8020202
:1037F000002AF5D1E06F002800F0828044F6F9211C
:10380000C0F600010165FDF77FFBE0B1E06F016DDF
:103810008847B0BD05EA010CE26E5FEACC603CD59A
:10382000012A3AD1102018629868400641D4B4F8B1
:103830005C00B4F85E10B4F85E20002A1CBF401A89
:103840005FEA004100D1B0BD216851E8001F226845
:1038500021F4907142E80013002BF5D14FF6FE7170
:10386000CEF6FF71226852E8022F23680A4043E82F
:103870000225002DF6D12021C4F888100021E16630
:10388000216700BF216851E8001F226821F0100164
:1038900042E80013002BF5D1F4E0C80223D51EF452
:1038A000800020D04FF4801018622046FFF7FCFE05
:1038B000B0BDE06F40F20F42C4F2020201689142D3
:1038C00035DC6F22C4F20202914249DC3F22C4F28D
:1038D000020291426ADC1022C4F20202914200F01C
:1038E0008880282281E008060ED505F080000EF4BD
:1038F0000002801808D0616F00297FF4F3AEA2E7C0
:103900002046FFF7D5FEB0BD5FEA4C6024D4080224
:1039100041D515F080403ED02046FFF7C1FEB0BD36
:103920002046FFF7C5FE0020C4F88C00B0BD40F271
:103930006F42C4F2020291421EDC40F23F42C4F2E6
:103940000202914239DC40F21042C4F2020291427A
:103950004FD040F2284248E0204601F009F9B0BDBE
:103960009F22C4F20202914230DC7022C4F20202B1
:1039700091423ED0882238E040F29F42C4F20202D7
:1039800091422ADC40F27042C4F20202914230D0ED
:1039900040F2884229E0C8017FF555AFB5F1FF3FFD
:1039A000C8BFB0BD2046FFF727FEB0BD4022C4F21D
:1039B000020291421DD0582217E040F24042C4F268
:1039C0000202914215D040F258420EE0A022C4F209
:1039D000020291420DD0B82207E040F2B842C4F290
:1039E0000202914205D040F2A042C4F2020291428A
:1039F00001D1E16F0968043109688AB2002A3FF4F5
:103A000022AFB4F85C309A42BFF41DAFA4F85E1048
:103A1000C069B0F5807F30D0206850E8000F216881
:103A200020F4807041E80002002AF5D1206850E8B7
:103A3000020F216820F0010041E80202002AF5D1BE
:103A4000206850E8020F216820F0400041E802029F
:103A5000002AF5D12020C4F888000020E06600BFCD
:103A6000206850E8000F216820F0100041E80002B3
:103A7000002AF5D1E06FFCF767FFB4F85C00B4F8FA
:103A80005E10401A81B22046FFF7B2FDB0BD0000C3
:103A900010B5B0B10446D0F8840028B9002084F8ED
:103AA0008000204600F028F82420C4F88400206814
:103AB000016821F001010160204601F0B9FA0128F6
:103AC00001D1012010BDA06A10B1204600F06CFFAA
:103AD0002068416821F490414160816821F02A0109
:103AE0008160016841F001010160204600F0CCFFD7
:103AF00010BD000000000000B0B5B6B0044602A83A
:103B0000BC210025CDE93455CDE932553195FCF77E
:103B10000FFE41F200012068C4F20101884201D089
:103B200036B0B0BD0120029002A82095FDF724FF19
:103B300008B1FCF701FF44F2E040C5F6020001695C
:103B400041F010010161016901F010010191019939
:103B5000016841F001010160006831A900F0010035
:103B6000019001984FF4C060319002203290002003
:103B7000CDE93300072035900020C5F60200FDF79F
:103B80002FFB252002210022FDF796FC2520FDF7C2
:103B90008FFC36B0B0BD000080B5D0F88830202B47
:103BA0000AD10123002918BF002A01D1184680BD7F
:103BB00090F88030012B01D1022080BD012380F8D4
:103BC00080300023C36640F60043D0F800C0C5F63D
:103BD00000039C4510D0DCF804301B020CD500BF5C
:103BE000036853E800CFD0F800E04CF080634EE863
:103BF000003CBCF1000FF3D101F0DEFC00231846BD
:103C000080BD00000000000010B540F25C2440F2CE
:103C1000DC00C2F20044C2F200400430217801F01E
:103C2000AFFE40F2C4100122C2F200402146FFF76D
:103C3000B3FF10BD000000002DE9F04381B0044641
:103C4000D0F8840020280BD10E4600294FF0010047
:103C50005CD01746002A59D094F88000012803D17F
:103C6000022001B0BDE8F0831D46012084F88000E9
:103C70004FF00009C4F88C902120C4F88400FDF7AF
:103C80008FFBA4F85470A4F856700746A168B1F5EC
:103C9000805F07D1206900281CBF30464E46B046E1
:103CA000064601E04FF0000884F8809009E000BF6C
:103CB000206816F8011B8162B4F856000138A4F898
:103CC0005600B4F8560088B18021002220463B46B9
:103CD000009501F009FD88B9002EE9D138F8020BF2
:103CE000216800266FF35F208862E5E7402100220B
:103CF00020463B46009501F0F7FC18B1032001B0C7
:103D0000BDE8F0832020C4F88400002001B0BDE8A5
:103D1000F083000000000000704700000000000079
:103D2000FEE70000000000002DE9F04186B044F2FB
:103D3000E0400026C5F602000596CDE90366CDE910
:103D40000166016840F2004441F010010160016821
:103D5000C5F6020401F0100100910099016841F0DC
:103D6000040101600168002201F004010091009942
:103D7000016841F08001016001684FF4805801F052
:103D8000800100910099016841F001010160016822
:103D900001F0010100910099016841F00201016008
:103DA000016801F0020100910099016841F00801E9
:103DB000016000684FF4805100F008000090009806
:103DC0002046FDF7DDFA01AD4FF6FB70019004F5DA
:103DD000406029460327CDE90276FDF701FA4FF648
:103DE000FF702946CDE9010704F580600396FDF7D1
:103DF000F7F904F5C0502946CDE901770396FDF7A0
:103E0000EFF949F6FF102946CDE90107A4F58060D6
:103E10000396FDF7E5F940F6BB702946CDE90107A9
:103E200020460396FDF7DCF902A90120CDF80480B5
:103E3000C1C120462946FDF7D3F94CF2FF7029464F
:103E4000CDE9010704F500600396FDF7C9F906B056
:103E5000BDE8F0810000000080B540F2F00045F2BE
:103E60000001C2F20040C5F2002101600121416061
:103E7000042181601021C160162101614FF440715D
:103E800041610021C0E906110162FDF74DFB0028E8
:103E900008BF80BDFCF750FD80BD000000000000A1
:103EA00010B540F23C1443F60000C2F20044C4F2E4
:103EB0000000072120604FF4800060600020A060B7
:103EC000C4E9031060614FF08061C4E90610C4E9E1
:103ED0000800C4E90A004FF08040606304F1380034
:103EE0002421FCF725FC2046FEF70AFF002808BF26
:103EF00010BDFCF721FD10BD80B540F2C41041F2A9
:103F00000001C2F20040C4F201010C2201604FF432
:103F1000E13141600021C0E902110161C0E90521E0
:103F2000C0E90711C0E90911FFF7B2FD08B1FCF7BC
:103F300003FD40F2C4100021C2F20040FFF788FBED
:103F400008B1FCF7F9FC40F2C4100021C2F20040B5
:103F5000FFF756FB08B1FCF7EFFC40F2C410C2F2C9
:103F60000040FFF729FB002808BF80BDFCF7E4FCF8
:103F700080BD000000000000FEE70000000000001F
:103F8000FEE700000000000000F007004FF0FF3CDB
:103F900080F00703042B28BF0423033838BF002018
:103FA0000CFA03F399430CFA00F301FA00F022EA49
:103FB0000301084370470000704700000000000044
:103FC0002DE9F04381B0044600688068084018BFBE
:103FD0000120904203D1002001B0BDE8F083DDF85C
:103FE00020800D461646994608F1010707E000BFFC
:103FF00020688068284018BF0120B042EBD0002F15
:10400000F6D0FDF7CDF9B8F1000F03D0A0EB090011
:104010004045EDD9042084F84100606C40F0010077
:104020006064012001B0BDE8F083000000000000E2
:10403000F0B581B044F22C47C5F6020757F8042CBE
:1040400002F00302032A02D1012001B0F0BD0546AF
:1040500057F82C0C0C4620F0806047F82C0CFDF72C
:104060009FF9064657F82C0C000105D5FDF798F985
:10407000801B0228F6D964E057F8040CEE6895E836
:104080000E0020F47C30012C40EA0130A2F1010145
:104090006FF35F214FF47E4202EB432247F8040C9A
:1040A00092B24FF0FE4302EB01004FF4FE012A6989
:1040B00001EB064101F4FE0103EB0262084402F049
:1040C000FE410844F8603868696920F0C00040EAA1
:1040D000010038603868A96920F0200040EA01003A
:1040E000386038684FF6F87120F010003860386991
:1040F000EA6920EA01004FF4001140EAC200386189
:10410000386808BF4FF4801140F01000002C386070
:1041100008BF4FF4002138680843386057F82C0C6A
:1041200040F0806047F82C0CFDF73AF9044600BFD8
:1041300057F82C0C000107D4FDF732F9001B0328B7
:10414000F6D3032001B0F0BD002001B0F0BD0000A7
:10415000F0B581B044F22C47C5F6020757F8042C9D
:1041600002F00302032A02D1012001B0F0BD05468E
:1041700057F82C0C0C4620F0805047F82C0CFDF71B
:104180000FF9064657F82C0C800005D5FDF708F905
:10419000801B0228F6D964E057F8040CEE6895E815
:1041A0000E0020F07C70012C40EA0150A2F10101C8
:1041B0006FF35F214FF47E4202EB432247F8040C79
:1041C00092B24FF0FE4302EB01004FF4FE012A6968
:1041D00001EB064101F4FE0103EB0262084402F028
:1041E000FE41084478613868696920F4406040EA1B
:1041F000010038603868A96920F4007040EA0100C5
:10420000386038684FF6F87120F480703860B8690B
:10421000EA6920EA01004FF0807140EAC200B8610B
:10422000386808BF4FF4000140F48070002C3860FB
:1042300008BF4FF4800138680843386057F82C0CE9
:1042400040F0805047F82C0CFDF7AAF8044600BF58
:1042500057F82C0C800007D4FDF7A2F8001B0328A8
:10426000F6D3032001B0F0BD002001B0F0BD000086
:10427000016840F26F32D1F814C08B6943F0080333
:104280008B618B6943F010038B610B6823F0010392
:104290000B600B6923EA02020A618A6822F4404239
:1042A0008A6090F881305FEA8C620BD5042B09D0CC
:1042B000D0F8842042F08002C0F884208A6942F05D
:1042C00020028A6190F881305FEA4C620BD5032BA3
:1042D00009D0D0F8842042F00402C0F884208A6912
:1042E00042F040028A615FEA8C5209D5D0F88420FE
:1042F00042F00102C0F884208A6942F400728A61A7
:104300005FEACC5209D5D0F8842042F00802C0F808
:1043100084208A6942F480728A610021A0F86210C8
:10432000A0F86A1070470000B0B5054600F0E8F844
:1043300000F012F940F200444FF48051C5F6020437
:1043400000222046FDF71CF8202000F0F5F8C5F308
:10435000074000F0F1F8C5F3072000F0EDF8E8B2EF
:1043600000F0EAF84FF4805101222046FDF708F8EA
:1043700000F0C6F8B0BD000010B500F0C1F800F0C4
:10438000EBF840F200444FF48051C5F602040022DD
:104390002046FCF7F5FFC72000F0CEF84FF480511F
:1043A00001222046FCF7ECFF00F0AAF810BD000047
:1043B00080B582B040F23C100DF10701C2F200401E
:1043C00001220A23FEF798FD00281CBFFF208DF86C
:1043D00007009DF8070002B080BD0000000000004B
:1043E000F0B581B000F08CF840F200444FF48051F9
:1043F000C5F6020400222046FCF7C2FF9F2000F011
:104400009BF8FFF7D5FF0546FFF7D2FF0646FFF7FB
:10441000CFFF07464FF4805101222046FCF7B0FF42
:10442000300240F2000440EA0540C2F20044C119E3
:104430000BA02160FCF72CF84BF6EB712068CFF64F
:1044400010710844032803D80FA151F8200003E09D
:1044500045F6A770C0F60000FCF754F901B0F0BDB6
:10446000546865204A45444543204944206F6620EE
:1044700053504920666C6173682069732030782539
:104480002E36580D0A0000002E5F0008A75F0008B6
:104490007F5F0008565F0008F0B581B040F200442D
:1044A00015460F460646C5F6020400F029F84FF4FB
:1044B000805100222046FCF763FF032000F03CF807
:1044C000C7F3074000F038F8C7F3072000F034F8CE
:1044D000F8B200F031F845B1013E00BF013DFFF7F1
:1044E00067FF002D06F8010FF8D14FF4805101222B
:1044F0002046FCF745FF01B0F0BD000000000000C1
:1045000010B540F200444FF48051C5F60204002279
:104510002046FCF735FF052000F00EF8FFF748FFB6
:10452000C007FBD14FF4805101222046FCF728FF41
:1045300010BD00000000000080B582B08DF80700BB
:1045400040F23C10C2F200400DF1070101220A23A3
:10455000FEF7CEFD02B080BD10B540F200444FF42E
:104560008051C5F6020400222046FCF709FF062010
:10457000FFF7E2FF4FF4805101222046FCF700FFD5
:1045800010BD000000000000F0B581B040F2004412
:1045900015460F460646C5F60204FFF7B1FFFFF7C2
:1045A000DBFF4FF4805100222046FCF7E9FE022099
:1045B000FFF7C2FFC7F30740FFF7BEFFC7F30720AF
:1045C000FFF7BAFFF8B2FFF7B7FFB5F5807F04D960
:1045D0000CA0FCF797F84FF4807545B1013E00BF81
:1045E00016F8010F013DFFF7A7FF2804F8D14FF49B
:1045F000805101222046FCF7C3FEFFF781FF01B086
:10460000F0BD00BF4572726F723A20466C617368EC
:104610003A63616E2774206D6F7265207468616EF5
:1046200020323536210000002DE9F0410C46090604
:10463000164605464FEA12272DD0002FC4F1000779
:104640003BD05FFA87F8284621464246FFF79CFF99
:10465000A6EB0806002055FA87F5B0EB162F54FAA2
:1046600087F40DD0300A47424FF480722846214625
:10467000FFF78AFF013705F5807504F58074F3D3E1
:10468000300608BFBDE8F081F2B228462146FFF7A8
:104690007BFFBDE8F0811FB34FF4807228462146AE
:1046A000013FFFF771FF002F05F5807504F5807459
:1046B000F2D13006EDD0F2B213E05FFA86F8FFB225
:1046C000B8450DD9284621463A46FFF75DFFA8EBCD
:1046D0000702E81992B23919FFF756FFBDE8F081D9
:1046E000B2B228462146FFF74FFFBDE8F081000037
:1046F000C16B0122C068083002EB5111C008484369
:104700007047000000000000F0B581B014460D466F
:104710000646571C30684069000709D4FCF740FE84
:10472000002FF7D0401BA042F4D3032001B0F0BD0E
:10473000002001B0F0BD0000704700000000000044
:10474000B0B501380024B4EB106F01D00120B0BD2A
:104750004EF210050F21CEF2000568604FF0FF30D9
:1047600001F05EF8AC60072028602046B0BD000074
:1047700080B5FCF71DFE80BD70B59CB044F61804F2
:1047800040F22C4509A84C21C5F60204C5F60005E7
:10479000FBF7CEFF02200026CDE90766CDE90566CE
:1047A000CDE90366CDE90166FCF79AFE009628681C
:1047B00020F001002860286800F0010000902068C7
:1047C00040F440402060206800F440400090009891
:1047D00020688004FCD54FF6DC40CFF6FF702158EE
:1047E00041F002012150205800F002000090009892
:1047F00000200090206840F440402060206800F4D1
:1048000040400090286840F001002860286800F0CF
:1048100001000090009800BF20688004FCD50220B1
:10482000099001210C9112900025042114913C2142
:104830004024CDE9151005210D94CDE917100C2069
:104840001395CDE9190509A81B95FDF745FFA0B9FA
:104850003F20019003200421CDE9020508200694A1
:10486000CDE904044FF48060CDE9070401A8FDF709
:1048700033FD002804BF1CB070BDFCF75DF80000DC
:104880004EF6885042F2000CCEF20000C5F2002C29
:10489000016841F470010160DCF8000000F00F00D5
:1048A000062806D8DCF80000072161F30300CCF8E5
:1048B000000044F200404EF67F52C5F60200CEF6EC
:1048C000F622016841F001010160002101610368E5
:1048D0001A400260DCF80020120706D5DCF8002040
:1048E000072363F30302CCF8002040F20022816129
:1048F000C161C0F20222016282620022C0F2FF1294
:10490000C26240F28022C0F20112026341638263FC
:10491000C16302644164026822F48022026001667D
:1049200041F20000C5F600400068B1EB507F05D1B0
:1049300048F208100121C5F20010016044F20000A5
:1049400043F2D201C5F20020016070470000000070
:1049500010B5416E01B3016845F61E7CC0F6000C2F
:1049600045F6267E8A68C0F6000E8968C2F3426268
:104970004C0F1CF802301EF802101A011EF8043009
:10498000B2FBF1F11CF80420A0F868101201B2FB90
:10499000F3F2A0F86A2010BD0121A0F86A10A0F877
:1049A000681010BD00000000816ACA070CD18A0798
:1049B00015D44A071ED40A0727D4CA0630D48A065B
:1049C00039D44A0655D541E00268D0F82CC0536866
:1049D00023F4003343EA0C0353608A07E9D50268E5
:1049E000D0F830C0536823F4803343EA0C0353609B
:1049F0004A07E0D50268D0F834C0536823F4802316
:104A000043EA0C0353600A07D7D50268D0F838C0D0
:104A1000536823F4004343EA0C035360CA06CED51F
:104A20000268D0F83CC0936823F4805343EA0C0337
:104A300093608A06C5D50268D0F840C0936823F415
:104A4000005343EA0C0393604A0612D50268D0F87B
:104A500044C0BCF5801F536823F4801343EA0C0361
:104A6000536006D1536823F4C00C836C43EA0C03F3
:104A70005360090658BF70470168C06C4A6822F449
:104A80000022104348607047B0B582B00446002051
:104A9000C4F88C00FCF784FC216805460968090706
:104AA0000AD54FF4001100226FF07E40009020469E
:104AB0002B4600F019FE70B92068006840070DD53C
:104AC0004FF4800100226FF07E40009020462B467C
:104AD00000F00AFE10B1032002B0B0BD2020C4F8DF
:104AE0008400C4F888000020E06684F8800002B0EA
:104AF000B0BD00000000000080B5806B0021A0F870
:104B00005E10A0F85610FEF7D3FD80BD0000000037
:104B1000016851E8001F026821F4907142E8001317
:104B2000002BF5D14FF6FE7CCEF6FF7C026852E8F2
:104B3000022F036802EA0C0243E802210029F5D1A2
:104B4000C16E01290AD100BF016851E8001F026847
:104B500021F0100142E80013002BF5D12021C0F80C
:104B600088100021C1660167704700000000000046
:104B700080B500BF016851E8001F026821F04001C4
:104B800042E80013002BF5D12021C0F88410002149
:104B90004167FFF7C1F880BD80B5B0F860100268CA
:104BA000D0F88830222B42D1526A836D114023F80D
:104BB000021B8365B0F85E100139A0F85E10B0F8F2
:104BC0005E10002918BF80BD016851E8001F02680F
:104BD00021F4907142E80013002BF5D1016851E8EF
:104BE000021F026821F0010142E80213002BF5D1F7
:104BF0002021C0F8881000210167C26E012A1BD154
:104C0000C16600BF016851E8001F026821F0100171
:104C100042E80013002BF5D10168CA69D20601D51C
:104C200010220A62B0F85C10FEF7E2FC80BD9069C9
:104C300040F00800906180BDFEF7E6FF80BD0000F7
:104C40002DE9F04F81B004460368B0F86090DA694E
:104C500018689968D4F88870222F2AD1B4F868604F
:104C6000002E18BF12F020022AD1B4F85E00E8B17D
:104C7000B4F86810884219D2206850E8020F216801
:104C800020F0805041E80202002AF5D144F6993024
:104C9000C0F60000206700BF206850E8000F2168C0
:104CA00040F0200041E80002002AF5D101B0BDE843
:104CB000F08F986940F00800986101B0BDE8F08F6E
:104CC0004FF6FE7500F4807801F00107CEF6FF750F
:104CD0004FF0000B07E02046FEF796FF002E18BFAE
:104CE0001AF02000C1D02068A16D426A02EA0902D0
:104CF00021F8022BA165B4F85E100139A4F85E100A
:104D0000D0F81CA05FEA4A712FD0B8F1000F18BF8D
:104D10001AF0010107D001210162D4F88C1041F092
:104D20000101C4F88C10002F18BF1AF0020107D03F
:104D300002210162D4F88C1041F00401C4F88C10F7
:104D4000002F18BF1AF0040107D004210162D4F823
:104D50008C0040F00200C4F88C00D4F88C0020B124
:104D60002046FEF7A5FCC4F88CB0B4F85E0000281D
:104D7000B4D100BF206850E8000F216820F4807093
:104D800041E80002002AF5D1206850E8020F2168AE
:104D9000284041E80202002AF6D12020C4F8880009
:104DA000C4F870B0E06E012895D1C4F86CB000BFB3
:104DB000206850E8000F216820F0100041E8000250
:104DC000002AF5D12068C169C90601D51021016208
:104DD000B4F85C102046FEF70BFC7FE700000000F3
:104DE00080B5B0F860100268D0F88830222B44D12A
:104DF000526A836D11401970816D01318165B0F87F
:104E00005E100139A0F85E10B0F85E10002918BFDE
:104E100080BD00BF016851E8001F026821F4907155
:104E200042E80013002BF5D1016851E8021F026827
:104E300021F0010142E80213002BF5D12021C0F836
:104E4000881000210167C26E012A1BD1C16600BF14
:104E5000016851E8001F026821F0100142E80013C8
:104E6000002BF5D10168CA69D20601D510220A6269
:104E7000B0F85C10FEF7BCFB80BD906940F0080004
:104E8000906180BDFEF7C0FE80BD00000000000004
:104E90002DE9F04F81B004460368B0F86090DA69FC
:104EA00018689968D4F88870222F2AD1B4F86860FD
:104EB000002E18BF12F020022AD1B4F85E00E8B12B
:104EC000B4F86810884219D2206850E8020F2168AF
:104ED00020F0805041E80202002AF5D144F6E1506A
:104EE000C0F60000206700BF206850E8000F21686E
:104EF00040F0200041E80002002AF5D101B0BDE8F1
:104F0000F08F986940F00800986101B0BDE8F08F1B
:104F10004FF6FE7500F4807801F00107CEF6FF75BC
:104F20004FF0000B07E02046FEF76EFE002E18BF84
:104F30001AF02000C1D02068A16D406A00EA090083
:104F40000870A06D0130A0652068B4F85E100139CA
:104F5000A4F85E10D0F81CA05FEA4A712FD0B8F117
:104F6000000F18BF1AF0010107D001210162D4F827
:104F70008C1041F00101C4F88C10002F18BF1AF0FA
:104F8000020107D002210162D4F88C1041F0040123
:104F9000C4F88C10002F18BF1AF0040107D00421A8
:104FA0000162D4F88C0040F00200C4F88C00D4F800
:104FB0008C0020B12046FEF77BFBC4F88CB0B4F81F
:104FC0005E000028B2D100BF206850E8000F2168C1
:104FD00020F4807041E80002002AF5D1206850E8F2
:104FE000020F2168284041E80202002AF6D1202061
:104FF000C4F88800C4F870B0E06E012893D1C4F8FA
:105000006CB000BF206850E8000F216820F010004D
:1050100041E80002002AF5D12068C169C90601D51E
:1050200010210162B4F85C102046FEF7E1FA7DE73A
:10503000F0B583B004460368806846F6F316D4E9F9
:105040000312104362691043E2691F68CCF6FF76D1
:10505000104307EA06021043186058684FF2FF47F2
:1050600020F4405240F6004011435960C5F600005C
:10507000A1698342C1F2FF171CBF226A11439A68DB
:1050800047F2FF763A40C4F2000611439960DA6AAB
:1050900044F2544122F00F02676AC5F602013A4316
:1050A000B342DA624FF0800225DD40F6FF77C4F2AA
:1050B0000107BB423FDD834200F0718041F20047AF
:1050C000C4F20107BB4200F0758041F20007C4F250
:1050D0000107BB4240F0A5800A68C2F3C203052B5A
:1050E00000F296800122DFE813F09C009100950009
:1050F000970099009B0044F6FF37C4F20007BB42BB
:1051000033DC44F20047C4F20007BB4200F05D808C
:1051100044F60007C4F20007BB4240F082800A68F0
:1051200002F00703052B00F273800022DFE803F092
:10513000796E7274767847F60007C4F20007BB42B6
:1051400000F04E8047F60047C4F20007BB4240F033
:1051500068800A6802F00703052B00F259800022DC
:10516000DFE803F05F54585A5C5E44F60047C4F22F
:105170000007BB4200F03F8045F20007C4F2000781
:10518000BB4240F04E800A6802F00703052B00F294
:105190003F800022DFE803F0453A3E4042444A683F
:1051A00002F00703052B33D80222DFE803F03A2F81
:1051B000333537390A68C2F3C203052B28D80122D8
:1051C000DFE803F02F24282A2C2E0A6802F00703B8
:1051D000052B1DD80022DFE803F024191D1F212311
:1051E0000A6802F00703052B12D80022DFE803F05B
:1051F000190E121416180A6802F00703052B07D8B7
:105200000022DFE803F00E0307090B0D042208E07B
:10521000802206E0082204E0102202E0202200E0C2
:1052200040222368834240F60010C0F23D0000F0A7
:105230005380E369B3F5004F40F07880402A00F2D4
:105240001A810025DFE812F0410012011701170151
:105250001B011701170117011F0117011701170182
:10526000170117011701170126011701170117016F
:10527000170117011701170117011701170117016E
:105280001701170117011701340117011701170141
:10529000170117011701170117011701170117014E
:1052A000170117011701170117011701170117013E
:1052B000170117011701170117011701170117012E
:1052C000170117011701170131010025FDF758F9E2
:1052D000002840F0EF8049E1931E1E2B00F27480FD
:1052E0000027DFE813F01F0077007A0077007700CF
:1052F00077007E00770077007700770077007700EF
:105300007700B800770077007700770077007700A4
:1053100077007700770077007700770077007700D5
:10532000770083000027FCF7EBF95FE0402A00F2EA
:10533000E6800025DFE812F04100DE00E300E30034
:10534000E700E300E300E300EB00E300E300E30039
:10535000E300E300E300E300F200E300E300E30026
:10536000E300E300E300E300E300E300E300E30025
:10537000E300E300E300E3000001E300E300E300F7
:10538000E300E300E300E300E300E300E300E30005
:10539000E300E300E300E300E300E300E300E300F5
:1053A000E300E300E300E300E300E300E300E300E5
:1053B000E300E300E300E300FD000025FDF7E0F873
:1053C000002840F0BA80D1E0402A03D14FF40040D9
:1053D00000270BE00020012708E06846FCF7A4F94D
:1053E00002E06846FCF734FA0027019878B3616A56
:1053F00045F60672C0F600026668012532F81120F3
:1054000006EB4603B0FBF2F19942C0F0AF803303E4
:10541000994200F2AB8000210023FAF7C0FF090295
:10542000002341EA10613246000210EB560041F1C0
:105430000001FAF7B4FF4FF6FF42A0F54071C0F249
:105440000F02914205D821683D46C8608EE03D4676
:105450008CE001258AE051F8540C800649F20000E6
:10546000C0F2D03000F18B800027BFE70025FDF7A8
:105470009BF8F8B97AE000200125D8B976E06846B3
:10548000FCF752F902E06846FCF7E2F900250198C2
:1054900080B96BE051F8540C800649F20000C0F26C
:1054A000D03073D4002528B960E04FF400400025C7
:1054B00000285BD0616A45F60672C0F6000232F839
:1054C00011106268B0FBF1F0510801EB4000B0FB35
:1054D000F2F0A0F110014FF6EF72914208D84FF6AA
:1054E000F07122680140C0F342000844D0603DE002
:1054F00001253BE00025FDF757F8F0B936E0002024
:105500000125D0B932E06846FCF70EF902E06846A2
:10551000FCF79EF90025019878B927E051F8540C62
:10552000800649F20000C0F2D03039D4002520B9FD
:105530001CE04FF400400025C0B1616A45F60672D8
:10554000C0F6000232F811106268B0FBF1F000EB17
:105550005200B0FBF2F0A0F110014FF6EF72914251
:1055600003D880B22168C86000E001254FF0011027
:10557000A0660020C4E91C00284603B0F0BD51F825
:10558000541C0027C1F3C101C8402FE751F8541C37
:105590000025C1F3C101C84000287FF48BAFE5E7C7
:1055A00051F8541C0025C1F3C101C8400028C4D1E2
:1055B000DCE700000000000081650023A0F85C200B
:1055C000A0F85E208168036751B1B1F1805F0BD014
:1055D000B1F5805F0CD1016921B940F2FF110AE0F9
:1055E000016939B9FF2106E0016919B13F2102E0E3
:1055F000002100E07F21A0F860100021C0F88C108D
:105600002221C0F8881000BF016851E8021FD0F8BD
:1056100000C041F001014CE80213002BF4D1416EAF
:10562000B1F1005F03D1B0F86810914229D98168C7
:10563000B1F5805F02D10169002949D044F6E151FA
:10564000C0F60001026901674FF0000180F8801088
:1056500062B100BF016851E8001F026841F4907117
:1056600042E80013002BF5D130E000BF016851E89B
:10567000001F026841F0200142E80013002BF5D121
:1056800024E08168B1F5805F01D1016929B344F656
:105690009161C0F60001026901674FF0000180F8D6
:1056A00080104AB1016851E8001F026841F480711E
:1056B00042E80013002BF5D1016851E8021F02688F
:1056C00041F0805142E80213002BF5D100207047D1
:1056D00044F69931C0F60001B4E744F64141C0F602
:1056E0000001D8E7000000002DE9F04381B0044636
:1056F0000068C0690840401AB0FA80F04009904242
:1057000064D1DDF820800D461646994608F1010760
:1057100009E000BF2068C0692840401BB0FA80F053
:105720004009B04252D1002FF4D0FBF739FEB8F156
:10573000000F2BD0A0EB0900404527D82068016856
:10574000490744BFC1695FEA0151E3D54FF40061E5
:10575000016200BF206850E8000F216820F4D0707B
:1057600041E80002002AF5D1206850E8020F2168C4
:1057700020F0010041E80202002AF5D12020C4F8FF
:105780008400C4F88800C4F88C0018E0206850E851
:10579000000F216820F4D07041E80002002AF5D102
:1057A000206850E8020F216820F0010041E8020261
:1057B000002AF5D12020C4F88400C4F88800002015
:1057C00084F88000032001B0BDE8F083002001B020
:1057D000BDE8F0830000000080B540F2C410C2F2C2
:1057E0000040FDF769FF80BDFEE7000000000000FB
:1057F000002848BF704700F01F01012202FA01F1A2
:105800004EF200124009CEF2000242F8201070471A
:105810004EF60C50CEF200000068C0F30220704734
:105820004EF6145300F00F02CEF20003B0F1FF3F2A
:105830001A4400F16043C8BF03F5644208011070C8
:1058400070470000000000004EF60C514FF6FF03B9
:10585000CEF200010A681A4060F30A2242F080602A
:1058600040F0FD70086070477047000000000000C5
:1058700000BA7047000000002DE9F04182B00546F3
:10588000044655F8040F696800F0A2F880B1064696
:1058900004F10C070DF107082846414600F04CF8CA
:1058A0009DF80710226838469047013E3006F3D134
:1058B00002B0BDE8F081000010B540F2DC0445F60E
:1058C0005131C2F20044C0F60001204640F8041BEA
:1058D00040F2D031C2F2004100F04AF840F2B1315A
:1058E00004F10C00C2F2004100F042F810BD0000CB
:1058F00080B582B0019040F2C410C2F2004001A90C
:1059000001220A23FEF798F9019802B080BD000039
:10591000FBF75EFDFEF730FFFEF706FAFEF7ECFA46
:10592000FEF79AFAFEF7BCFA00F066F8FEE7000010
:105930000021018070470000027843789A4202D12A
:10594000FF2040B2704743689A5C0A7048F68902AB
:105950000178C8F688020131A1FB02231A0912015D
:10596000A2EB1312A1EB42010170002040B270477C
:1059700002460020108000205160704700000000A7
:1059800010B590F801E048F6890CC8F6880C0EF1C5
:105990000102A2FB0C3423091B01A3EB14130478AE
:1059A000A2EB4302A24202D1FF2040B210BD4268E6
:1059B00002F80E1041780131A1FB0C231A091201E3
:1059C000A2EB1312A1EB42014170002040B210BDC6
:1059D000C0F30721C0B2081A48F689011E30C8F684
:1059E000880151FB00010A0902EBD171C1EB0111E1
:1059F000A0EB4100C0B27047FFF75EFF40F2C41059
:105A000040F25C21C2F20040C2F200410122FEF7E6
:105A1000C3F800F009F840F2DC04C2F2004400BF11
:105A20002046FFF729FFFBE7F0B59FB045F6F87079
:105A300040F20005C0F60000C2F200456E4690E854
:105A40000E001091C168119202691293436913917B
:105A500081691492C2691593C36A1B93836A1A936E
:105A6000436A1993036A1893036B1792426B806B16
:105A70001691CDE91D2068681C938047A968002015
:105A80000027884710AC2B6988213C222046984784
:105A900013A02146FAF7FCFC6B6901AD88213C227A
:105AA0002846984713A02946FAF7F2FC16A11FA032
:105AB00022782B789A4208D13A2F07F1010704F196
:105AC000010405F10105F3D900E00846FAF71AFED2
:105AD0004FF47A70FBF770FBB5461FB0F0BD00BF06
